:020000040800F2
:10000000E8060020A1010008371F0008851C000831
:10001000351F00080D0D000809240008000000002D
:100020000000000000000000000000003B1F00086E
:100030000F0D000800000000391F00083D1F0008D8
:10004000BB010008BB010008BB010008BB010008A0
:10005000BB010008BB010008BB010008BB01000890
:10006000BB010008BB010008BB010008BB01000880
:10007000BB010008BB010008BB010008BB01000870
:10008000BB010008BB010008BB010008BB01000860
:10009000BB010008BB010008BB010008BB01000850
:1000A000BB010008BB010008BB010008BB01000840
:1000B000BB010008BB010008BB010008BB01000830
:1000C000BB010008BB010008BB010008BB01000820
:1000D000BB010008BB010008CD220008BB010008DD
:1000E000BB010008BB010008BB010008BB01000800
:1000F000BB010008BB010008BB010008BB010008F0
:10010000BB010008BB010008BB010008BB010008DF
:10011000BB010008BB0100083D200008BB0100082E
:10012000BB010008BB010008BB010008BB010008BF
:10013000BB010008BB010008BB010008BB010008AF
:10014000BB010008BB010008BB010008BB0100089F
:10015000BB010008BB010008BB010008BB0100088F
:10016000BB010008BB010008BB010008BB0100087F
:10017000BB010008BB010008BB0100080000000033
:10018000BB010008BB010008DFF810D000F0B6FB8F
:10019000004800477D340008AFF30080E8060020E7
:1001A0000648804706480047FEE7FEE7FEE7FEE711
:1001B000FEE7FEE7FEE7FEE7FEE7FEE7D91F0008E1
:1001C000890100082DE9F05F0546002092469B4614
:1001D00088460646814640241BE02846414647465D
:1001E000224600F04CF953465A46C01A914110D3AA
:1001F00011461846224600F033F92D1A67EB010824
:100200004F4622460120002100F02AF917EB000991
:100210004E41201EA4F10104DFDC484631462A4647
:100220004346BDE8F09FD2B201E000F8012B491E21
:10023000FBD270470022F6E710B513460A46044683
:100240001946FFF7F0FF204610BD2DE9FE4F80460E
:1002500081EA0300C00F0C46009021F0004123F01A
:100260000045B8EB0200A94105D240462146904620
:100270001C460B46024623F00040104347D0270D92
:10028000C7F30A00C3F30A510290401A01904028B4
:100290006BDAC3F3130040F4801B0098924620B140
:1002A0000023D2EB030A63EB0B0B01985946C0F114
:1002B0004002504600F0D4F806460D4650465946D6
:1002C000019A00F0ECF810EB08006141002487EA85
:1002D000115284EAE7731A4340D0009A62B3019A3C
:1002E000012A4FEA075215DC001B61EB02014FF0B7
:1002F000004202EA0752CDE90042001C41F580119C
:1003000032462B4600F09BF903B0BDE8F08F404623
:100310002146F9E7001B61EB0201001C41F5801347
:1003200000185B412018A2F5001747EB030140EAD3
:10033000D570B6196D4111E06D084FEA360645EAF1
:10034000C0754FEA0752001B61EB0201001C41F52A
:10035000801149084FEA30000019514132462B46BE
:1003600003B0BDE8F04F00F05BB9009801224000F7
:100370000023D0EB020263EBE073009821464FEAC2
:10038000E074B8EB000061EB0401E9E783F000439F
:100390005BE781F0004158E770B5C1F30A5201F004
:1003A00000450024C1F3130140F2FF3341F48011F2
:1003B0009A4201DA002070BD40F233439A42A2F221
:1003C000334203DC524200F05AF800E090402C43E4
:1003D000F1D0404270BD00F0004230F000400AD041
:1003E000C10D01F56071C0F3160042EA0151C20867
:1003F00040071143704700200146704701F0004359
:1004000030B421F0004150EA010206D00A0DA2F5F5
:100410006072C1F31301002A02DC30BC0020704777
:10042000440F44EAC104C100E01830BC00EBC250E4
:1004300000F096B830B50B4601460020202201247A
:1004400009E021FA02F59D4205D303FA02F5491BA2
:1004500004FA02F52844151EA2F10102F1DC30BDB8
:10046000202A04DB203A00FA02F100207047914074
:10047000C2F1200320FA03F3194390407047202A69
:1004800004DB203A21FA02F00021704721FA02F33E
:10049000D040C2F120029140084319467047202AFB
:1004A00006DBCB17203A41FA02F043EAE07306E09C
:1004B00041FA02F3D040C2F12002914008431946AC
:1004C000704700000FB4002300B589B00CA900915B
:1004D0000B996FF00042CB601E4B06931E4B0793A7
:1004E0000423CDE901321D4A089202466B460020E2
:1004F00000F0B0FA09B05DF814FB70B586B006469E
:100500004FF0FF300091CDE90101002015460C4667
:1005100004903246694604A8FFF7D4FF02460498C7
:10052000211825B108B1084600E02046286004984B
:1005300000280DD0002A02DD0098884208D0081B50
:100540000094CDE901043246694604A8FFF7BAFFDA
:1005500006B070BD8D0C0008AB0C00082109000826
:100560000029A8BF7047401C490008BF20F00100C7
:10057000704710B4B0FA80FC00FA0CF050EA0104A5
:1005800004BF10BC704749B1CCF1200421FA04F437
:1005900011FA0CF118BF012121430843A3EB0C0110
:1005A000CB1D4FEA00614FEA102042BF002010BC73
:1005B000704700EBC35010440029A4BF10BC704723
:1005C000401C490008BF20F0010010BC7047F0B487
:1005D00000F0004221F0004120F00040CE0DC30D9C
:1005E000C1F3160141F40001C0F316004C42154658
:1005F00040F40000761E09E010EB440002D582F0C2
:10060000004240428842F7D840005B1EB342F9DA0C
:1006100018B1F0BC0021FFF7ACBF2846F0BC704712
:1006200010B5141E73F1000408DA401C41F10001FA
:1006300092185B411A4301D120F0010010BD2DE951
:10064000F04D92469B4611B1B1FA81F202E0B0FA48
:1006500080F220329046FFF703FF04460F4640EA3F
:100660000A0041EA0B0153465A46084313D011468B
:1006700053EA010019D0C8F140025046FFF7FFFECF
:1006800005460E46504659464246FFF7E9FE0843E6
:1006900005D0012004E020463946BDE8F08D002059
:1006A000054346EAE0762C4337430A986305E40A9B
:1006B000A0EB08000022FD0A44EA47540A3002D5A4
:1006C00000200146E9E7010510196941DDE9084507
:1006D00000196941BDE8F04DA2E72DE9FE4F81EA1E
:1006E000030404F0004421F0004100944FF0000B9B
:1006F00023F0004350EA01045ED052EA03045BD0C9
:10070000C3F30A54C1F30A552C44A4F2F334019400
:10071000A0FB0254C1F3130141F48011C3F313038E
:1007200043F4801301FB024400FB034E840A970A42
:1007300044EA815447EA8357A4FB076802958D0A6F
:1007400005FB07854FEA932C04FB0C542705029DFB
:100750004FEA065847EA1637B5EB08056EEB070C6B
:10076000870E920E47EA811742EA8312A7FB020125
:10077000B6EB0B0164EB00042B0D43EA0C335E185F
:1007800044EB1C50DA465146E7FB0201C5F3130463
:100790004FEA0B3343EA14534FEA0432019C43EA15
:1007A0000603A4F10C040294009CCDE900B4FFF709
:1007B00046FF03B0BDE8F08F00200146F9E72DE9C0
:1007C000F04D81EA030404F0004B21F0004514468B
:1007D0004FF0000A23F0004150EA050220D054EA0D
:1007E00001021DD0C5F30A570246C5F31303C1F336
:1007F0001300C1F30A5640F4801543F48013A7EBAD
:100800000608101BD64608F2FD3873EB050002D32C
:1008100008F1010801E092185B41B8F1000F03DA1A
:1008200000200146BDE8F08D00204FF480110646FF
:1008300084460EE0171B73EB050705D3121B63EB11
:10084000050306434CEA010C49084FEA30009218B0
:100850005B4150EA0107EDD152EA030012D082EA6F
:10086000040083EA0501084305D0101BAB4106D202
:100870000122002306E000224FF0004302E06FF067
:10088000010253101AEB06004CEB085110EB0A0062
:1008900041EB0B01BDE8F04DFFF7C2BEC1F30A52B8
:1008A000C1F3130140F2FF3341F480119A4202DA9E
:1008B00000200146704740F233439A42A2F233428D
:1008C00002DC5242FFF7DBBDFFF7CABD30B5041EA4
:1008D00071F1000404DB4FF00044404264EB01017D
:1008E000141E73F1000405DB1C464FF00043524216
:1008F00063EB0403994208BF904230BD064C074D9C
:1009000006E0E06840F0010394E8070098471034DF
:10091000AC42F6D3FFF73CFC6C3C00088C3C000872
:10092000C0B24FF4F05100F0D1B900002DE9FF4FF3
:10093000087883B09946FF2805D0491C2D2804D09B
:100940000024002008E000200BE00124F9E700EB80
:10095000800003EB4000491C0B78FF2BF7D104B15A
:10096000404200230293147819461D462D2C01D0D5
:100970002B2C04D1521C2D2C13D000240294AA46F7
:100980001478FF2C0FD00A25A3FB057801FB058105
:100990004FF0000C03FB0C11521CE3194AEB010150
:1009A000EEE70124EAE7814453EA010002D019F599
:1009B000C87F06DA03980021C0E9001107B0BDE83E
:1009C000F08F0025AE4E2F46DFF8B882184600F0B3
:1009D00091F9CDE90001B9F1000002DAC9F1000492
:1009E00000E004460023A74A1AEB030B42EB045A2B
:1009F00012E0E00707D02A46334638464146FFF763
:100A00006CFE074688462A46334610461946FFF7CD
:100A100064FE05460E466410002CEAD1DDE90001B3
:100A2000B9F1000F5A46534606DAFFF7C8FE3A46B8
:100A30004346FFF7C4FE05E0FFF74FFE3A46434644
:100A4000FFF74BFE029A0AB181F00041039AC2E916
:100A50000001B3E72DE9FF4F1F468DB0D7E90146EE
:100A60004FF0FF382E2045464FF000090B90B96932
:100A70006D1C0E988847396A824688470028F6D14F
:100A8000BAF1FF3F0AD024F4D064002E11DDBAF190
:100A90002B0F08D0BAF12D0F0BD102E0404611B058
:100AA0008DE744F48064B9696D1C0E9888478246CE
:100AB000761E6946600501D52D2000E02B208DF8BB
:100AC000000001F1010B0DF1200809E0B9696D1C6E
:100AD0000E98884782460F9844F40074761E05608D
:100AE000002E02DDBAF1300FF0D00B998A453ED1CD
:100AF00044F0800406E00F99681CA9F1010944F450
:100B000000740860B9696D1C761E0E98884782468D
:100B10003028F0D02BE00B998A4505D1200603D46C
:100B200044F08004761E18E0504601F067FF08B3D9
:100B30000DF11301761E44F400748B4508D2AAF11E
:100B400030000BF8010B200607D5A9F1010003E0E6
:100B5000200602D409F101008146A00502D50F99B3
:100B6000681C0860B9696D1C0E9888478246002E83
:100B7000D1DC53E0002E51DDBAF1650F02D0BAF19D
:100B8000450F4BD1A00549D5B9696D1C24F44074BB
:100B9000761E0E9888478246002E0CDD2B2804D046
:100BA000BAF12D0F07D144F48074B9696D1C0E9809
:100BB00088478246761EE00501D52D2100E02B21D5
:100BC00008F8011BCDF82C8021E00DF12901761EDB
:100BD00044F4007488450CD2AAF1300010F0FF00F4
:100BE00088F8000002D10B99884509D908F101085D
:100BF00006E0E00501D5244801E042F20F7081468D
:100C0000B9696D1C0E98884782460F980560002EC2
:100C100004DD504601F0F2FE0028D6D1F9690E98A5
:100C20008847FF208BF8000088F80000002006901D
:100C300007904B466A4608A906A8FFF777FEA0056D
:100C400002D46FF001002AE714F0240F0AD0E00765
:100C500014D1DDE906123868031D3B600068C0E965
:100C600000120BE0DDE90601FFF7C8FB0146E007D3
:100C700004D13868021D3A600068016028460EE71A
:100C8000000014400000F03FF1D8FFFF426842B17D
:100C9000016811F8013B23B1521EC0E90012184649
:100CA00070470121C160881E704742685AB1C3680D
:100CB000016843B983688B4205D0491E521CC0E9C4
:100CC0000012002070474FF0FF3070477F2801D995
:100CD000002208E0064A02EB5002C007127800D159
:100CE000120902F00F0201209040084070470000F6
:100CF0002C3C00080EB540F2334202920022CDE9AE
:100D000000221346FFF79BFC03B000BDFEE77047CF
:100D100072B6FEE72DE9F84FDFF8BCA100220125ED
:100D200003264FF00F090AF1040BAAF1040E00BFCD
:100D30000B6805FA02F42340A34270D10F7907F043
:100D40000307012F01D0022F16D187684FEA42080E
:100D500006FA08FC27EA0C07D1F80CC00CFA08FCCC
:100D60004CEA070CC0F808C04768A7430C79C4F3E5
:100D7000001494403C4344600C79E443A4070AD037
:100D8000C4684FEA420C06FA0CF7BC438F6807FAB6
:100D90000CF72743C7600C7904F00304022C12D12E
:100DA000D40800EB840CDCF820405707FF0E09FA4A
:100DB00007F824EA0804D1F8108008FA07F848EA8E
:100DC0000408CCF8208004684FEA420C06FA0CF7BD
:100DD000BC430F7907F0030707FA0CF727430760B6
:100DE0004C6814F4403F70D03C4C276847F480476F
:100DF0002760246822F0030704F480440094384CF0
:100E000007EB040CDCF8084897074FEA177809FA53
:100E100008F7BC43334FB84202D1002724E054E026
:100E2000314FB84201D101271EE0304FB84201D105
:100E3000022719E02E4FB84201D1032714E02D4FAD
:100E4000B84201D104270FE02B4FB84201D105274A
:100E50000AE02A4FB84201D1062705E0284FB842E0
:100E600001D1072700E0082707FA08F72743CCF845
:100E70000878DAF800405746D1F804C09C435FEA8E
:100E8000CC2C00D51C433C60DBF800405F46D1F819
:100E900004C09C435FEA8C2C00D51C433C60DEF808
:100EA00000407746D1F804C09C435FEA8C3C00D5F3
:100EB0001C433C60084F083F3C68D1F804C09C4389
:100EC0005FEACC3C00D51C433C60521C102AFFF466
:100ED0002FAFBDE8F88F0000083C014044380240C5
:100EE00000300140000002400004024000080240BF
:100EF000000C0240001002400014024000180240A2
:100F0000001C0240426921EA02030A4043EA02410E
:100F1000816170470AB1816170470904FBE70000F5
:100F200001488068704700001000002070B5040080
:100F300025D094F83D00002520B984F83C50204687
:100F400000F0B8F8242084F83D002068016821F002
:100F5000010101602068016841F4004101602068DE
:100F6000016821F40041016000F068FA4D4A6168AF
:100F7000914201D84C4900E04C49884201D20120FD
:100F800070BD4B492368B0FBF1F15E6826F03F0667
:100F90000E435E606368934206D94FF496735943DB
:100FA0004FF47A73B1FBF3F12368491C1E6A26F0F3
:100FB0003F06314319626168914210D84900401ED2
:100FC000B0FBF1F2521CC2F30B02042A01D204203E
:100FD00022E0B0FBF1F0401CC0F30B001CE0A26863
:100FE000F2B301EBC10303EB0116431EB3FBF6F3AF
:100FF0005B1C43F480431B0549D092B301EBC10253
:1010000002EB0111401EB0FBF1F0401CC0F30B00DD
:1010100040F4804040F400402168CA694CF6FF73F8
:101020009A431043C861D4E907100143206802685D
:1010300022F0C00211430160D4E90301014320689A
:10104000826848F2FF339A4311438160D4E9050175
:1010500008432168CA6822F0FF021043C86001E01B
:101060000EE016E02068016841F00101016025648E
:10107000202084F83D00256384F83E50002070BD98
:1010800001EB4106431EB3FBF6F35B1CB3E7012003
:10109000C2E701EB4101401EB0FBF1F0401CC0F380
:1010A0000B00B7E7A086010080841E0000093D0008
:1010B00040420F002DE9F04186B0044614216846F5
:1010C000FFF7B8F82268394C374B00213748122512
:1010D0000126042710349A4219D1026842F0020214
:1010E00002600068CDE9026100F002000590C020B6
:1010F000CDE90005049769462D48FFF70BFE2068EF
:1011000040F400102060206800F400101BE0294B20
:101110009A421CD1026842F0200202600068CDE9C8
:10112000026100F0200005900320CDE9000504973E
:1011300069462148FFF7EEFD206840F480002060FA
:10114000206800F48000059006B0BDE8F0811B4BDC
:101150009A42F9D18846016841F0040101600168B2
:1011600001F004010591016841F00101016000688E
:10117000049700F00100059050158DE86101694663
:101180000F48FFF7C7FD4FF4807004978DE86101A9
:1011900069460C48FFF7BEFD206840F4000020605F
:1011A000206800F40000CEE70054004030380240D0
:1011B000000402400058004000140240005C00405F
:1011C0000008024000000240024881680278114491
:1011D00081607047100000200B4810B5016841F491
:1011E00000710160016841F480610160016841F4AF
:1011F00080710160032000F06FF80F2000F006F806
:1012000000F024F8002010BD003C024070B50D4DE8
:1012100004464FF47A712878B1FBF0F00A49096866
:10122000B1FBF0F000F012FB48B9102C07D20022FD
:101230002146501E00F030F800206C6070BD012087
:1012400070BD0000100000201C0000200A4808B5F6
:10125000016841F480410160006800F48040009022
:101260000548001F016841F080510160006800F0EE
:101270008050009008BD000044380240002809DB7F
:1012800000F01F02012191404009800000F1E020A0
:10129000C0F8001170470000F0B40E4B1B680C46FC
:1012A000C3F30223C3F10705042D00D90425191D3A
:1012B000072901D2002300E0DB1E012606FA05F112
:1012C000491E214099409E40761E16403143F0BC95
:1012D00001F0BFB80CED00E0064900F00702086815
:1012E0004FF6FF03184040EA0220034A104308600B
:1012F000704700000CED00E00000FA052DE9F04712
:101300000E46050065D0DFF81481D8F80000F7B26A
:1013100000F00700B04207D288F80070D8F800004B
:1013200000F00700B04254D128683D4C810712D527
:10133000400703D5206840F4E0502060287800077B
:1013400003D5206840F4604020602068A96820F040
:10135000F000084320602878C0072DD03049686825
:101360000839012812D0022813D0032811D00968A7
:10137000890700292DDA216821F00301014321604A
:10138000FFF7CEFD814641F2883A0EE009688903F5
:10139000EFE709688901ECE7FFF7C2FDA0EB09015F
:1013A000514502D90320BDE8F0872068696800F044
:1013B0000C00B0EB810FEFD1D8F80010404601F0DF
:1013C0000701B14207D90770006800F00700B0427A
:1013D00001D00120E7E72878400705D52068E968B3
:1013E00020F4E050084320602878000706D52068E4
:1013F000296920F4604040EAC100206000F03EF816
:101400002168084AC1F30311515CC84006490860CD
:1014100006480068FFF7FAFE0020C4E7003C0240DF
:1014200008380240F43800081C0000201400002096
:1014300001480068704700001C000020044805496E
:1014400000680968044AC1F38221515CC8407047B2
:101450001C000020083802400439000804480549EF
:1014600000680968044AC1F34231515CC8407047C2
:101470001C0000200838024004390008154810B547
:10148000006810F00C02144813D01449042A0FD03D
:10149000082A0ED10F4C241F2268236802F03F0255
:1014A0005B0207D52068C0F38810A0FB010106E0AD
:1014B000084610BD2168C1F38811A1FB000100237B
:1014C000FEF780FE2168C1F30141491C4900B0FBD1
:1014D000F1F010BD083802400024F40040787D018E
:1014E0002DE9F84F04006ED02078DFF84C93C00748
:1014F000A9F104054AD009F104000168C1F3810192
:10150000012908D00068C0F3810002280AD1D9F867
:101510000000400206D52868800337D5606800289F
:10152000E1D033E06068B0F5803F10D0B0F5A02F77
:10153000286810D020F480302860286820F48020AB
:1015400028606068A8B1FFF7EBFC06460DE028684C
:1015500040F48030F4E740F480202860F7E700BFD3
:10156000FFF7DEFC801B642873D828688003F7D55A
:101570000CE0FFF7D5FC064605E000BFFFF7D0FC06
:10158000801B6428F0D828688003F7D42078DFF81F
:10159000AC8280074FF0000A3ED5A748001D0168C5
:1015A00011F00C0F08D00068C0F3810002280BD1A5
:1015B000D9F80000400207D42868800716D5E068F3
:1015C000012800D112E033E1E068B8B10120C8F889
:1015D0000000FFF7A5FC064605E000BFFFF7A0FCF2
:1015E000801B0228C0D828688007F7D528682169A1
:1015F00020F0F80040EAC10028600DE0C8F800A023
:10160000FFF78EFC064604E0FFF78AFC801B0228E9
:101610001FD828688007F7D42078000722D5864F86
:1016200087486169703771B101210160FFF778FC6B
:10163000064604E0FFF774FC801B022809D83868CE
:101640008007F7D50EE0C0F800A0FFF769FC06465A
:1016500005E082E0FFF764FC801B02287DD8386833
:101660008007F7D42078400768D5DFF8CCB1002791
:101670000BF13C0BDBF80000C0000BD4DBF80010D2
:1016800041F08051CBF80010DBF80000012700F09A
:10169000805000906B4E3068C00510D4306840F424
:1016A00080703060FFF73CFC009005E0FFF738FCED
:1016B0000099401A022850D83068C005F6D55E4E11
:1016C000A0686C3601280FD00528306810D020F0B3
:1016D00001003060306820F004003060A068B8B1CC
:1016E000FFF71EFC00900FE0306840F00100F4E7C7
:1016F00040F004003060F7E7FFF712FC0099411A50
:1017000041F28830814266D830688007F4D50EE017
:10171000FFF706FC009007E0FFF702FC0099411A72
:1017200041F28830814256D830688007F4D42FB116
:10173000DBF8001021F08051CBF80010A069C8B38D
:101740003D49091D0968C1F3810102294AD00228D7
:10175000504607D0C8F8600000E03CE0FFF7E0FB2F
:1017600004463BE04746C8F86000FFF7D9FB064651
:1017700005E000BFFFF7D4FB801B02282BD82868A8
:101780008001F7D4D4E907010843A16A2E4A490829
:1017900002EB0141626A41EA8211084394F82C107D
:1017A00040EA0161C9F8001001203866FFF7B8FB74
:1017B000044606E03EE000BFFFF7B2FB001B022834
:1017C00009D828688001F7D534E000BFFFF7A8FBEF
:1017D000001B022802D90320BDE8F88F2868800189
:1017E000F4D427E00128F7D0D9F80000E26900F42A
:1017F000800191421CD1226A00F03F01914217D131
:1018000047F6C071626A0140B1EB821F10D1A26A33
:101810004FF0FF3300F4403103EB5202B1EB024FC3
:1018200006D194F82C1000F07060B0EB016F01D07D
:101830000120D1E70020CFE70438024000004742F2
:10184000800E4742007000400000FFFF10B5401EB0
:10185000B0F1807F01D3012010BD4FF0E024606122
:101860000F21601700F0F5FD0020A0610720206126
:10187000002010BD10B590F83C20012A22D0012292
:1018800080F83C20CA688C6822F4407222434C687D
:1018900022F4806222430C6822F4006222430C6925
:1018A00022F4805222434C6922F400522243C96937
:1018B000002322F480420A4301684A6480F83C30E5
:1018C000002010BD022010BD70B590F83C20012A08
:1018D00032D0012480F83C40022280F83D20036889
:1018E0005A689D6822F070060A6832435A60134BAA
:1018F00002689A4214D0B2F1804F11D0104B9A4234
:101900000ED0104B9A420BD00F4B9A4208D00F4B7F
:101910009A4205D00E4B9A4202D00E4B9A4204D105
:10192000496825F080031943916080F83D4000210B
:1019300080F83C10084670BD022070BD00000140D8
:101940000004004000080040000C0040000401407A
:10195000004001400018004010B586B00446142134
:101960006846FEF767FC0F492068884217D10E4889
:101970000021026842F010020260006800F01000CE
:1019800005904FF4285000900220CDE9010103207A
:1019900003900120049069460448FFF7BBF906B0A4
:1019A00010BD00000000014030380240001002402D
:1019B00070B5044690F83C0000260D4601280FD073
:1019C000012084F83C006AB1042A1DD0082A2FD0D7
:1019D0000C2A3FD00126002084F83C00304670BD20
:1019E000022070BD206800F0AFFB2068816941F0E3
:1019F000080181612068816921F00401816120680A
:101A000081692A69114311E0206800F0CDFB20684C
:101A1000816941F4006181612068816921F48061FC
:101A20008161206881692A6941EA02218161D2E7E6
:101A3000206800F0EFFB2068C16941F00801C16136
:101A40002068C16921F00401C1612068C1692A6967
:101A5000114311E0206800F011FC2068C16941F4D5
:101A60000061C1612068C16921F48061C1612068A1
:101A7000C1692A6941EA0221C161ACE710B50400DD
:101A800003D094F83D0010B107E0012010BD002004
:101A900084F83C00204600F01FF8022084F83D0046
:101AA000211D206800F0DAFA012084F8460084F84D
:101AB0003E0084F83F0084F8400084F8410084F838
:101AC000420084F8430084F8440084F8450084F818
:101AD0003D00002010BD000008B50068064988429E
:101AE00008D10648016841F001010160006800F07A
:101AF0000100009008BD0000000001404438024091
:101B000010B50446022249B104290ED0082913D089
:101B100094F84100012816D0012010BD94F83E0031
:101B20000128F9D184F83E200FE094F83F00012805
:101B3000F2D184F83F2008E094F840000128EBD16E
:101B400084F8402001E084F841200122206800F060
:101B5000EDFA16492068164A884201D0904203D116
:101B6000436C43F4004343642068884213D0B0F1CF
:101B7000804F10D00F4988420DD00F4988420AD0BB
:101B80000E49884207D0904205D00D49884202D0C4
:101B90000C49884204D1816801F00701062903D06D
:101BA000016841F001010160002010BD000001400A
:101BB000000401400004004000080040000C004008
:101BC000004001400018004070B5040004D094F8B3
:101BD0003D00002510B106E0012070BD84F83C50A6
:101BE000204600F01BF8022084F83D00204600F05B
:101BF000A1FB2068016921F48041016120684169ED
:101C000021F02A0141612068C16841F40051C1609E
:101C10002564012084F83D00002070BD10B586B019
:101C2000044614216846FEF705FB134920688842E4
:101C300020D112480021026842F40032026000689C
:101C400000F4003005900D481038026842F0080298
:101C50000260006800F008000590E020009002207B
:101C6000CDE9010103200390072004906946044850
:101C7000FFF750F806B010BD004400404038024065
:101C8000000C0240FEE7000030B52E4887B000256A
:101C9000016841F020010160016801F02001059117
:101CA000016841F080010160016801F08001059147
:101CB000016841F010010160016801F01001059117
:101CC000016841F004010160016801F0040105911F
:101CD000016841F001010160016801F00101059115
:101CE000016841F008010160016801F008010591F7
:101CF000016841F002010160016801F002010591F3
:101D0000016841F0400101600068142100F04000CA
:101D100005906846FEF78EFA01240094CDE901454E
:101D20000395094D69462846FEF7F4FF002201217C
:101D30002846FFF7EFF8694604480094FEF7EAFFEB
:101D400007B030BD30380240000C0240001802409D
:101D50000D4810B50B4901600C49416000214FF45A
:101D600080428160C0E9031241618161C161016209
:101D7000FFF7DCF8002803D0BDE81040FEF7C8BF2D
:101D800010BD0000005400405C000020801A0600D6
:101D90000D4810B50B4901600C49416000214FF41A
:101DA00080428160C0E9031241618161C1610162C9
:101DB000FFF7BCF8002803D0BDE81040FEF7A8BF2D
:101DC00010BD000000580040B0000020801A06003E
:101DD0000D4810B50B4901600C49416000214FF4DA
:101DE00080428160C0E9031241618161C161016289
:101DF000FFF79CF8002803D0BDE81040FEF788BF2D
:101E000010BD0000005C004004010020801A0600A4
:101E100030B591B000240F941C2168461094FEF751
:101E200009FA202107A8FEF705FA31482F4D202195
:101E30000560C0E901414FF45261C0E903148021FB
:101E4000C0E90541FFF71AFE08B1FEF761FF0F94E4
:101E50000FA927481094FFF737FD08B1FEF758FF88
:101E60006020CDE9000402940394049405940022B8
:101E700069461F480694FFF79BFD08B1FEF748FF2F
:101E8000042269461A48FFF793FD08B1FEF740FFA8
:101E9000082269461648FFF78BFD08B1FEF738FFA8
:101EA0000794089409944FF400500A94CDE90B402C
:101EB00007A90F480E94FFF7DDFC08B1FEF728FFD5
:101EC0000B48FFF749FD00210948FFF719FE0421DF
:101ED0000748FFF715FE08210548FFF711FE686C5B
:101EE00040F40040686411B030BD000000000140C3
:101EF000580100200E4810B50C4901604FF4E13143
:101F00004160002181600C22C160C0E9041281613E
:101F1000C1610162FFF758FE08B1FEF7F9FE034800
:101F20000C30016841F02001016010BD0044004008
:101F3000A0020020FEE7FEE770477047FFF744B9B4
:101F400030B593B030216846FEF774F914210CA81F
:101F5000FEF770F91E480025016841F080510160CC
:101F6000006800F0805011901A48016841F48041E7
:101F700001600068022400F480401190012000906C
:101F8000000401908001CDE90640192008904FF42B
:101F9000A870CDE9090404200B906846FFF7A0FA69
:101FA00008B172B6FEE70CA90F2081E831004FF4AA
:101FB000A0500F904FF48050109005210CA8FFF70F
:101FC0009DF9002801D072B6FEE713B030BD0000C5
:101FD00040380240007000400248016841F470013E
:101FE0000160704788ED00E038B5124800240168B0
:101FF00041F0100101600068224600F010000090DE
:1020000001213620FFF748F93620FFF737F90A4853
:1020100004605321816240F2E731C1620121C16055
:10202000416941F001014161016841F00101016034
:1020300038BD0000403802400010004005480169EA
:10204000C90706D06FF00101016103480168491C0E
:1020500001607047001000400C000020F0B50268DD
:10206000274B284D284E294F294C4FF0804C984241
:1020700009D0604507D0A84205D0B04203D0B8428D
:1020800001D0A04204D122F0700E4A6842EA0E024A
:1020900098421BD0604519D0A84217D0B04215D045
:1020A000B84213D0A04211D01A4DA8420ED01A4DFA
:1020B000A8420BD0194DA84208D0194DA84205D00E
:1020C000184DA84202D0184DA84203D122F4407501
:1020D000CA682A434D6922F080022A438D68C5628E
:1020E0000D688562984201D0A04201D1096901635F
:1020F000016841F004010160012141610260F0BD0D
:10210000000001400004004000080040000C0040B6
:1021100000040140004001400044014000480140EB
:1021200000180040001C00400020004010B501F0E5
:102130001F030121046A99408C430462016A9A409A
:102140001143016210BD0000F0B5036A026A22F07B
:102150000102026242688469124E24F073050C6821
:102160002C4323F002058B682B430D4DA84201D070
:10217000B04205D123F00807CB683B4323F00403AA
:10218000A84201D0B04205D14D6922F440721543F6
:102190008A692A4342608461496841630362F0BDF1
:1021A0000000014000040140F0B5026A036A23F018
:1021B00010030362436884690D6824F4E64444EA2A
:1021C00005248D6822F0200242EA05120F4D104EC0
:1021D000A84201D0B04206D1CF6822F0800242EA84
:1021E000071222F04002A84201D0B04207D14D6947
:1021F00023F4406343EA85038D6943EA8503436022
:102200008461496881630262F0BD00000000014002
:1022100000040140F0B5026A036A23F4807303628C
:102220004368C46922F4007224F073050C68124EEE
:102230002C438D6842EA05220E4DA84201D0B042DF
:1022400006D1CF6822F4006242EA072222F48062BB
:10225000A84201D0B04207D14D6923F4405343EA6C
:1022600005138D6943EA05134360C4614968C1637E
:102270000262F0BD000001400004014030B5046A74
:10228000026A22F4805202624268C3690D6823F434
:10229000E64343EA05238D6824F4005444EA0534F8
:1022A000084DA84202D0084DA84204D14D6922F43D
:1022B000804242EA85124260C36149680164046257
:1022C00030BD00000000014000040140AFF3008079
:1022D00030B51548006880060FD51348001D00680A
:1022E000C2B2124801880B0407D4114C4D044FF0C0
:1022F00000030AD50A2A01D0038030BD41F4004111
:102300000180C1F30D00235430BD0D2A08D0C1F364
:102310000D05491C89B262550180FF29ECD830BDFA
:1023200041F48041018030BD00440040080000209D
:10233000A00100202DE9F04104460068C16821F0A9
:102340000C01C16021680869E56820F47C52D4E979
:1023500006031843236A2B431843104340F40060DC
:1023600008612068C16849F20C6291432369A26840
:102370001A4363690B431A4342F40041C160206869
:10238000416921F4407141611D49206800271926E7
:1023900064254FF03208884202D01A49884202D19F
:1023A000FFF75CF801E0FFF749F861684A18A0FB05
:1023B000060147EB0703FDF705FF0146B0FBF5F00B
:1023C0000301B1FBF5F06FF01802504301EB800000
:1023D00008EBC000B0FBF5F000F0F80003EB4003A1
:1023E000B1FBF5F0504301EB800008EBC000B0FBFF
:1023F000F5F0216800F0070018448860BDE8F0811E
:102400000010014000140140FEE700000FB4054B2E
:1024100010B503A9044A029800F00EFB10BC5DF849
:1024200014FB00006534000854000020410008023D
:1024300018BF04200A0E18BF40F001004FF07F4281
:1024400032EA010108BF40F00200012808BF052060
:1024500070470907090E002804DB00F1E02080F82E
:102460000014704700F00F0000F1E02080F8141D08
:102470007047000070B54FF068422DED048BF0EE10
:10248000408A18EE900AB0EE608A18EE101A02EB3D
:102490004003B3F1654F3CBF02EB4102B2F1654F1F
:1024A0007DD200BFC0F3C753C1F3C7529A1A1B2A8B
:1024B00009DD10F0004F14BF9FED830A9FED830AE2
:1024C000BDEC048B70BD12F11A0F36DA11F0004F1B
:1024D00009D010F0004F0CBF9FED7D0A9FED7D0AE3
:1024E000BDEC048B70BD88EE889A19EE100AFFF7D8
:1024F0009DFF042808BF00F093F918EE900AFFF73B
:1025000095FF054618EE100AFFF790FF044619EEF6
:10251000100AFFF78BFF042D18BF052D08D1042CDE
:1025200018BF052C04D1002804BF022000F096F942
:10253000B0EE490ABDEC048B70BD4200B2EB410F16
:102540003AD910F0004F19BFDFED630A9FED630A1F
:10255000DFED630A9FED630AB0EE481A0A46B1EE5A
:10256000688A80F00041F0EE418A10460A1A520053
:10257000B2F1807F34D2484010F0004FDFED5A1A9C
:102580009FED5A2A1DBFBEEE001A70EEE10A30EE32
:10259000420AB6EE001A08BF70EEA10A00E040E061
:1025A00008BF30EE020AB0EE682A01EE482A08EEB3
:1025B000818AC2EE081A15E011F0004F04BF9FEDAA
:1025C0004C0AF0EE400AD1D010F0004F19BFDFEDF9
:1025D000490A9FED490ADFED490A9FED490AC5E71F
:1025E000C8EE881A21EEA11A9FED462ADFED462A91
:1025F00041EE022A9FED452A01EE222ADFED442A10
:1026000041EE022A9FED432ABDEC048B01EE222A03
:1026100021EE811A01EE020A30EE210A30EE200A84
:1026200070BD4FF07F42B2EB400F28BFB2EB410FBD
:1026300009D2F0EE480AB0EE680ABDEC048BBDE8A2
:10264000704000F0E1B840EA01035B0008BF41F0D0
:10265000FF410BD0B2EB400F08BFB2EB410F08D1E6
:1026600020F0804008EE900A21F0804108EE101A18
:1026700018E7B2EB400F12BF5FEA410340F0FF40A2
:1026800001F000413FF40EAFB2EB410F12BF5FEA21
:10269000400200F0004041F0FF413FF403AF4A0028
:1026A00092EA40033FF5FEAE002AACBF9FED1A0A46
:1026B0009FED1A0A68EE808A28EE008A18EE900ACA
:1026C00018EE101AEEE60000DB0FC9BFDB0FC93FA2
:1026D000DB0F4940DB0F49C00000C9BF22AAFDB98A
:1026E0000000C93F22AAFD390060ED3EC30ACE3783
:1026F00000000000000049C022AA7DBA0000494045
:1027000022AA7D3A2DAD65BD8FB8D53D0FB511BE5E
:1027100061C84C3EA8AAAABE0000804F0000802FCE
:1027200030B583B0044600F083F89FED090B0546F1
:102730008DED000B002221466846FDF7DEFE28469F
:1027400000F08CF89DED000B03B030BD00000000E0
:10275000000000000000000010B52DED028BF0EE2F
:10276000408A18EE900AB0EE608A20F00040C0F176
:10277000FF40C00F07D118EE100A20F00040C0F152
:10278000FF40C00F2BD018EE101A18EE900AFDF77C
:102790001EFF00EE100A10EE100A6FEAD05010F083
:1027A000FF0F04BFBDEC028B10BD18EE900A00F0C5
:1027B000004110EE100A00F00040814204BFBDEC61
:1027C000028B10BD18EE101A10EE100ABDEC028B31
:1027D00061F31E0000EE900A30EE600A10BD18EEA4
:1027E000900A4FF07F41B1EB400F1CBF18EE100A6A
:1027F0005FEA4000C7D1012000F030F8BDEC028B49
:10280000BDE8104000F004B830EE200A7047000028
:10281000DFED020A80EEA00A704700000000000011
:102820009FED020A20EE000A704700000000001031
:1028300001480068704700005800002002E008C806
:10284000121F08C1002AFAD170477047002001E02A
:1028500001C1121F002AFBD1704700000149086026
:10286000704700005800002000EE900AF8EEE00AE1
:1028700020EE200A704700002DE9FF5F82B00021A2
:10288000DDE90430020DDDF840B0034318D044F612
:102890001050A2F2FF3242431514119801281FD0A4
:1028A000A5EB0B00401C5FEA000A4FF000064E4FFC
:1028B000DFF83891B046504615D5CAF1000413E050
:1028C000119801244AA3012801D16FEA0B01029853
:1028D000119AC0E90031C0E9024206B0BDE8F09F9C
:1028E000CBF10000DFE704460021404A491842EBE3
:1028F0000450CDE9001012E0E00707D032463B4615
:1029000040464946FDF7E9FE8046894632463B4649
:1029100010461946FDF7E1FE06460F466410002CEE
:10292000EAD1DDE90401DDE90023BAF1000F06DA9E
:10293000FDF7D3FE42464B46FDF7CFFE05E0FDF71F
:102940003EFF42464B46FDF73AFF04460E46002244
:10295000284BFDF7BBFF03D84FF0FF30014607E0DF
:102960000022254B20463146FDF76FFCFDF796FF10
:10297000102409E0002C0ADB0A220023FDF722FCC8
:10298000039B30321A55641E50EA0102F2D1641CD6
:10299000039AC4F111031444119A012A03D00122AD
:1029A00008430DD10AE0084304D000204FF0110B7A
:1029B000119072E7A3EB0B056D1E0DE05B4504DD86
:1029C0004FF0000205F1010504E003DA4FF00002C8
:1029D000A5F10105002AECD002981199C0E9023155
:1029E000C0E9004579E70000000014400000F03F16
:1029F000300000000000F0430000E03F30380A28BB
:102A000001D20120704700207047000010B52DED65
:102A1000028B9FED088AF0EE480AFFF79DFEB5EEA7
:102A2000C00AF1EE10FA01DA30EE080ABDEC028BB2
:102A300010BD0000DB0FC9402DE9FF4F95B09A464D
:102A4000884606460025EEE1252877D10024274652
:102A5000F94A0121039400E0044316F8013F203BAA
:102A600001FA03F01042F7D130782A2811D06FF024
:102A70002F033078A0F13002092A16D8039A44F0C7
:102A8000020402EB820203EB42021044761C039024
:102A9000EFE758F8042B0392002A03DA504244F47B
:102AA0000054039044F00204761C30782E2816D18E
:102AB00016F8010F44F004042A280DD06FF02F02FD
:102AC0003078A0F13003092B09D807EB870302EB1C
:102AD0004303C718761CF3E758F8047B761C30785C
:102AE0006C280FD006DC4C2817D068280DD06A2837
:102AF00014D104E0742810D07A280FD10DE044F4EA
:102B000000140AE044F4801401E044F440147278A4
:102B1000824202D104F58014761C761C3078662837
:102B20000BD013DC582877D009DC002875D0452855
:102B3000F6D04628F4D047281AD193E118E063284C
:102B400035D0642879D0652812D18BE1702873D0F4
:102B500008DC6728F1D069286FD06E280DD06F2867
:102B600006D1ACE073282CD0752874D0782853D0C7
:102B70005246179990476D1C54E1C4F30250022845
:102B800009D003280DD0D8F8001004280DD00D600E
:102B900008F1040846E1D8F80010EA17C1E900522C
:102BA000F6E7D8F800100D80F2E70D70F0E718F89E
:102BB000041B8DF8001000208DF80100EB46012069
:102BC00003E058F804BB4FF0FF3061074FF00001FD
:102BD00002D40DE009F101018946B9420FDA8145BD
:102BE000F8DB1BF809100029F4D108E009F1010114
:102BF00089468142FADB1BF809100029F6D10398B7
:102C00005346A0EB090721463846179A00F080FA90
:102C1000284400EB090507E044E008E10DE01BF85B
:102C2000010B524617999047B9F10109F7D2534663
:102C300021463846179AF2E039E00A21C4F30252DD
:102C40004FF0000B0091022A06D058F8040BC11770
:102C5000032A09D00AE023E008F1070020F0070268
:102C6000F2E80201904605E000B2C117042A01D142
:102C700040B2C117002906DA0A460021404261EB42
:102C800002012D2202E0220504D52B228DF804201A
:102C9000012203E0E20701D02022F7E7914657E046
:102CA0000A2100E010214FF0000B00910BE01021F1
:102CB0004FF0000B44F004040827009103E00820C3
:102CC0004FF0000B0090C4F30252022A05D058F8CE
:102CD000040B0021032A08D008E008F1070020F0C7
:102CE0000702F2E80201904603E080B2042A00D114
:102CF000C0B24FF0000922072AD53278702A07D0D7
:102D0000DDF800C08CF0100C5CEA0B0C05D00EE076
:102D100040228DF80420012208E050EA010306D089
:102D200030238DF804308DF8052002229146009B57
:102D300083F0080353EA0B030AD150EA010201D1E0
:102D4000620705D530228DF804204FF001097F1E5F
:102D50003278582A04D039A20C920CAA02920BE0C5
:102D60003BA2F9E75B46009AFDF72CFA0C9B9B5CB3
:102D7000029A521E0292137050EA0102F2D1029896
:102D800004A9081A00F1200B600702D524F480344E
:102D900000E001275F4502DDA7EB0B0000E000200B
:102DA00000EB0B01009003984944401A0390E003A4
:102DB00006D453462146179A039800F0A9F9054412
:102DC000002706E001A85246C05D179990476D1C88
:102DD0007F1C4F45F6DBE0030CD553462146179A7E
:102DE000039800F095F9054404E030205246179905
:102DF00090476D1C0099481E00900029F5DC08E002
:102E00000298029952460078491C029117999047FE
:102E10006D1CBBF10001ABF1010BF1DC5BE100F0DB
:102E200065F90544761C307800287FF40DAE19B0A2
:102E30002846BDE8F08F0000092801003031323308
:102E400034353637383961626364656600000000E6
:102E500030313233343536373839414243444546D0
:102E600000000000600700D4062708F1070020F0EA
:102E70000700F0E80223804603F0004C5FEA0C00F4
:102E800001D097A009E0200501D596A005E0E00754
:102E900001D095A001E0AFF24C001390307823F000
:102EA000004365280CD006DC452809D046281DD0F3
:102EB00047287FD13BE0662818D067287AD136E0D2
:102EC0000021112F01DB112000E0781CCDE9000169
:102ED00004A90CA8FFF7D0FCDDE90D010C9A4FF016
:102EE000000B07F10109109200914EE04FF00040F5
:102EF0000097CDE9011004A90CA8FFF7BDFCDDE99E
:102F00000D020C9B0F994FF0000B9146109300920D
:102F100011B9791C00EB0109B7EB090003D4C0F12A
:102F2000FF3B07F10109A9EB0700019042E0012FE7
:102F300000DA01270021112F01DD112000E03846C1
:102F4000CDE9000104A90CA8FFF796FCDDE90D010D
:102F50000C9A00914FF0000BB946109221070FD444
:102F6000009A4A4503DA914601E0A9F10109B9F155
:102F7000010F05DD109AA9F10101515C3029F4D04F
:102F8000B84202DA10F1040F03DA0121CDE9011091
:102F900010E0002803DC8344A9EB000102E0411C9F
:102FA000494500DD8946A0EB0B00401C01904FF025
:102FB00000400290200705D40198484502DB4FF0FD
:102FC000FF30019000208DF84B0002980DF14B0767
:102FD000B0F1004F25D002200C902B200D900298CC
:102FE00000280CDA404202902D200D9007E00A21C3
:102FF0000298FDF71FFA3031029007F8011D0C9975
:10300000481E0C900029F2DC02980028EFD1791EAE
:103010000D980870307800F0200040F0450007F867
:10302000020D11A8C01BC01D02901398007800B1BA
:10303000012000EB0901019801EBE07102980144C5
:103040000398401A401E0390E00306D453462146DD
:10305000179A039800F05CF805441398007818B1AB
:103060005246179990476D1CE00323D553462146DD
:10307000179A039800F04CF805441BE0BBF1000FD1
:1030800007DB0098584504DD1098179910F80B00DD
:1030900001E0179930205246904701980BF1010B3F
:1030A000401E05F10105019004D12E2052461799CA
:1030B00090476D1CB9F10001A9F10109DEDC05E0C2
:1030C00017F8010B5246179990476D1C0299481E3C
:1030D00002900029F4DC53462146179A03989EE695
:1030E0002D0000002B000000200000002DE9F04121
:1030F000044600251E461746880404D405E03946D8
:103100002020B0476D1C641EF9D52846BDE8F0812B
:103110002DE9F041044600251E469046C80301D51E
:10312000302700E02027880404D505E041463846D2
:10313000B0476D1C641EF9D52846BDE8F08100003B
:1031400010B510EE100A2DED048B44499FED449A02
:103150009FED448B454CDFED460A884260EE200A25
:1031600019DAF5EEC00A10EE900AF1EE10FA06DB5D
:10317000FDF731F953EC182BFDF767F805E0FDF783
:103180002AF953EC182BFDF701F9FDF705F900BFFB
:1031900054F8200040E010EE100A3649884218DA50
:1031A000F5EEC00A10EE900AF1EE10FA06DBFDF71C
:1031B00012F953EC182BFDF748F805E0FDF70BF971
:1031C00053EC182BFDF7E2F8FDF7E6F8C0F5C770F1
:1031D000DEE710EE100A28499FED289A884224DA8B
:1031E000F5EEC00A10EE900AF1EE10FA06DBFDF7DC
:1031F000F2F853EC182BFDF728F805E0FDF7EBF893
:1032000053EC182BFDF7C2F8FDF7C6F804EB80006D
:10321000A0F58050D0F8C80900EE100AB8EEC00A38
:1032200020EE090ABDEC048B10BDF5EEC00A10EECD
:10323000900AF1EE10FA06DBFDF7CDF853EC182BEF
:10324000FDF703F805E0FDF7C6F853EC182BFDF782
:103250009DF8FDF7A1F8C0F5477099E7DB0FC93F6E
:1032600017B7D138000000000000E03F0C3900081B
:10327000E65FFD42DB0F4940E4CB964017B7D1B87B
:1032800010EE100A0349A1EB600000EE900A20EE58
:10329000200A7047865A375F10B54FF0E0202DEDB9
:1032A000028B8069314ADFED320AB3EE051AD1682C
:1032B000884201D2091A03E06FF07F431B1A1944B8
:1032C00001EE901AD060F8EE611A61EEA01AC1EE1C
:1032D000810AF5EEC00AF1EE10FA04D010EE900A61
:1032E000B0F17C5F01DDDFED230A234992ED042A72
:1032F000D1ED001A22EE203A30EE611AF0EEC12A2A
:10330000F4EEC32AF1EE10FA1ADDB5EEC01AF1EEB2
:1033100010FA02D24FF0FF3007E0B5EEC01AF1EE1E
:1033200010FA01DD012000E0002000EE100AB8EEE6
:10333000C00A20EE020A40EE201AC1ED001A01E098
:1033400081ED000A92ED018A906891ED000AFFF785
:103350008BFAB0EE401ADFED090AB0EE480A00F031
:103360009FF9B0EE480ABDEC028B10BD4000002072
:10337000BD3786356F12833A24000020000000001C
:1033800010B51B4C2088000431D51A480178482913
:1033900004D0542917D0552927D103E016A0FFF7F0
:1033A00035F822E0401CFFF7BBF951EC100BFDF79C
:1033B00025F815490860FDF70EF841EC100B13A035
:1033C00053EC102B0FE0401CFFF7AAF951EC100B47
:1033D000FDF714F813490860FCF7FDFF41EC100BF2
:1033E00011A053EC102BFFF711F80020208010BD26
:1033F00008000020A001002048656C6C6F20576F0A
:10340000726C64210D0A000044000020766F6C7419
:103410006167655F6C696D69743D252E34660D0AC0
:10342000000000000000002052583D252E34660D9B
:103430000A00000045F2082148434FF0E0214861AE
:1034400000228A61086940F0010008610869C30729
:1034500001D0C003FAD5086920F0010008618A6133
:103460007047000004490A681206FCD5024AC1B23E
:10347000121D116070470000004400400EB5FDF7BA
:10348000ABFEFEF75DFDFEF7FFFBFEF781FCFEF7EE
:103490005FFCFEF72FFDFEF79BFCFEF7B9FCFDF786
:1034A000C7FF014632A0FEF7B1FFFDF7C7FF41009D
:1034B0003AA0FEF7ABFFFDF7D1FF410040A0FEF7B9
:1034C000A5FFFEF791FD4FF47A70FFF7B3FF454873
:1034D000B2EE080A464980ED000A4348B0EE040AFD
:1034E000012280ED000A4148B3EE040A80ED000A93
:1034F000032008703F490720086011463E48FDF749
:1035000009FD3EA0FEF782FF00F098F93F4CB7EEB0
:10351000000A3F4EDFF8FC90DFF8FC803F4D84ED61
:10352000000A00273068C8281AD3012148463760AE
:10353000FDF7E8FC6068401C6060052810D36760F8
:10354000D8F80000FCF747FF41EC100BEA6BA96BC1
:10355000686B8DE8070053EC102B31A0FEF756FF87
:1035600094ED000A00F072F8FFF70AFFDAE70000B6
:103570000D0A2D2D2D2053544D3332463430372033
:1035800053797374656D20436C6F636B3A20256CBF
:103590006420487A202D2D2D0D0A00002D2D2D2080
:1035A000415042312054696D657220436C6F636BEA
:1035B0003A20256C6420487A202D2D2D0D0A00001C
:1035C0002D2D2D20415042322054696D65722043CB
:1035D0006C6F636B3A20256C6420487A202D2D2D6A
:1035E0000D0A000040000020440000205000002090
:1035F0003C00002048000020000C02404D6F746F1A
:10360000722072656164792E0D0A000000000020AE
:103610000C0000200018024024000020000001409F
:10362000616E676C653D252E336620204343523121
:103630003D256C7520434352323D256C7520434334
:1036400052333D256C750D0A0000000010B50F487F
:103650000F4C2DED028B00789FED0E8A03280ED0C3
:10366000042809D10C4880ED000AFFF715FE00BFC1
:1036700084ED010A84ED008ABDEC028B10BD074881
:1036800080ED000A00F0E6F8F2E700003C000020C0
:103690003400002000000000300000202C0000203A
:1036A00010B55F4C2DED068BF0EE608AF0EE419A7E
:1036B000F5EEC08AB0EE408AF1EE10FA12D028EE94
:1036C000A80A08EE080AFFF7DBFDD4ED000A80EE39
:1036D000209AF0EE680AB0EE480AFEF7CBFE30EE14
:1036E000290A07E094ED000A88EE009A9FED4D0A42
:1036F00039EE800AFFF78AF9F0EE408A9FED4AAA78
:10370000F7EE009AF0EE680A88EE8A0A30EE290A8F
:10371000BCEEC00A10EE104A00EE104AB8EE400AA5
:1037200050EE0A0AB0EE600AFFF70AFDDFED3FAA8D
:1037300020EE2A0A20EE098A00EE104AB8EE400A6E
:1037400070EE690AB0EE680A00EECA0AFFF7F8FCEC
:1037500020EE2A0AF6EE001A072C20EE092A39EE8E
:10376000C80A30EE421A3AD2DFE804F039040B16E8
:103770001D27300078EE020AB0EE420A41EE210A1F
:1037800005E0F0EE480A38EE020A41EE210A21EE89
:10379000212A01EE210A28E038EE020A61EE210A10
:1037A00001EE210A06E0B0EE480A61EE210A01EEC0
:1037B000210A08E001EE212A17E0F0EE420A21EE8C
:1037C000210A41EE210A38EE022AF3E778EE020AD6
:1037D00021EE210AB0EE482A41EE210AEAE79FEDE8
:1037E000140AF0EE400AB0EE402A9FED121A124879
:1037F00060EE810AFCEEE00A10EE901A416320EEC2
:10380000010ABCEEC00A10EE101A816322EE010A12
:10381000BCEEC00A10EE101AC163BDEC068B10BDE1
:1038200040000020DB0FC93F920A863FD7B3DD3F3F
:103830000000000000005245000001404FF0E02071
:10384000034941610021816101210161704700004C
:10385000FEFFFF0070B54FF0E0202DED028BB0EEC3
:10386000401A80691E4CDFED1F0AB3EE050AE168BD
:10387000884201D2091A03E06FF07F42121A114404
:1038800001EE901AE060F8EE611A61EEA01AC1EE46
:10389000800AF5EEC00AF1EE10FA04D010EE900A9C
:1038A000B0F17C5F01DDDFED100A104D95ED000AEF
:1038B00001EE200AFFF7AAF885ED000A94ED018ACF
:1038C000A068FEF7D1FFB0EE401ADFED090AB0EEB6
:1038D000480AFFF7E5FEB0EE480ABDEC028B70BD6A
:1038E00040000020BD3786356F12833A2400002047
:1038F00000000000000000000000000001020304BE
:10390000060708090000000001020304000000008F
:103910004F0000009E000000ED0000003C01000090
:103920008B010000D901000028020000770200008E
:10393000C60200001503000063030000B20300008C
:10394000000400004F0400009D040000EC0400008F
:103950003A05000088050000D60500002406000096
:1039600072060000C00600000E0700005B070000A2
:10397000A9070000F60700004308000090080000B7
:10398000DD0800002A09000077090000C3090000D3
:103990000F0A00005C0A0000A80A0000F40A0000F8
:1039A0003F0B00008B0B0000D60B0000210C000029
:1039B0006C0C0000B70C0000010D00004C0D000065
:1039C000960D0000E00D0000290E0000730E0000AF
:1039D000BC0E0000050F00004E0F0000960F000007
:1039E000DF0F0000271000006E100000B61000006E
:1039F000FD100000441100008B110000D1110000E7
:103A0000171200005D120000A2120000E812000070
:103A10002D13000071130000B6130000F91300000D
:103A20003D14000081140000C414000006150000BD
:103A3000491500008B150000CC1500000E16000083
:103A40004F1600008F160000CF1600000F17000061
:103A50004F1700008E170000CD1700000B18000054
:103A60004918000087180000C41800000119000060
:103A70003D19000079190000B5190000F019000087
:103A80002B1A0000661A00009F1A0000D91A0000C5
:103A9000121B00004B1B0000831B0000BB1B00001F
:103AA000F21B0000291C0000601C0000961C000096
:103AB000CB1C0000001D0000351D0000691D00002A
:103AC0009D1D0000D01D0000031E0000351E0000DB
:103AD000671E0000981E0000C91E0000FA1E0000AC
:103AE000291F0000591F0000881F0000B61F00009A
:103AF000E41F0000112000003E2000006A200000AA
:103B000096200000C1200000EC20000016210000DB
:103B1000402100006921000092210000BA2100002C
:103B2000E1210000082200002F22000055220000A1
:103B30007A2200009F220000C3220000E72200003A
:103B40000A2300002D2300004F23000070230000F3
:103B500091230000B2230000D1230000F1230000D4
:103B60000F2400002D2400004B24000068240000D6
:103B700084240000A0240000BB240000D524000001
:103B8000EF24000009250000222500003A2500004E
:103B900052250000692500007F25000095250000C2
:103BA000AA250000BF250000D3250000E62500005F
:103BB000F92500000B2600001D2600002E2600001F
:103BC0003E2600004E2600005D2600006C26000008
:103BD0007A2600008726000094260000A026000018
:103BE000AB260000B6260000C0260000CA26000052
:103BF000D3260000DB260000E3260000EA260000B2
:103C0000F1260000F7260000FC2600000127000036
:103C100005270000082700000B2700000D270000E3
:103C20000F2700001027000010270000DDDDDDDD7C
:103C3000DCBBBBDDDDDDDDDDDDDDDDDD988888883D
:103C400088888888777777777788888885555556E4
:103C5000666666666666666666688888833333323B
:103C600022222222222222222228888D8C3C000815
:103C7000000000205C0000003C280008E83C000830
:103C80005C0000208C0600004C28000800000000AA
:103C90000000000000000000000000000100000023
:103CA00010000000000000000024F40000000000EC
:103CB0000000000000000000000000000000000004
:103CC00000000000000000000000000000000000F4
:103CD00000000000000000000000000000000000E4
:083CE0000000000000000000DC
:040000050800018965
:00000001FF
