:020000040800F2
:10000000B0070020A10100087B240008652000083B
:1000100079240008D10C0008B52A0008000000006F
:100020000000000000000000000000007F24000825
:10003000D30C0008000000007D2400088124000883
:10004000BB010008BB010008BB010008BB010008A0
:10005000BB010008BB010008BB010008BB01000890
:10006000BB010008BB010008BB010008BB01000880
:10007000BB010008BB010008BB010008BB01000870
:10008000BB010008BB010008BB010008BB01000860
:10009000BB010008BB010008BB010008BB01000850
:1000A000BB010008BB010008BB010008BB01000840
:1000B000BB010008BB010008BB010008BB01000830
:1000C000BB010008BB010008BB010008BB01000820
:1000D000BB010008BB0100083D2A0008BB01000865
:1000E000BB010008BB010008BB010008BB01000800
:1000F000BB010008BB010008BB010008BB010008F0
:10010000BB010008BB010008BB010008BB010008DF
:10011000BB010008BB01000881250008BB010008E5
:10012000BB010008BB010008BB010008BB010008BF
:10013000BB010008BB010008BB010008BB010008AF
:10014000BB010008BB010008BB010008BB0100089F
:10015000BB010008BB010008BB010008BB0100088F
:10016000BB010008BB010008BB010008BB0100087F
:10017000BB010008BB010008BB0100080000000033
:10018000BB010008BB010008DFF810D000F028FB1D
:1001900000480047013C0008AFF30080B007002092
:1001A0000648804706480047FEE7FEE7FEE7FEE711
:1001B000FEE7FEE7FEE7FEE7FEE7FEE71D25000897
:1001C000890100082DE9F05F0546002092469B4614
:1001D00088460646814640241BE02846414647465D
:1001E000224600F086F853465A46C01A914110D371
:1001F00011461846224600F06DF82D1A67EB0108EB
:100200004F4622460120002100F064F817EB000958
:100210004E41201EA4F10104DFDC484631462A4647
:100220004346BDE8F09FD2B201E000F8012B491E21
:10023000FBD270470022F6E710B513460A46044683
:100240001946FFF7F0FF204610BD00F0004230F0E5
:1002500000400AD0C10D01F56071C0F3160042EAFA
:100260000151C20840071143704700200146704702
:1002700001F0004330B421F0004150EA010206D001
:100280000A0DA2F56072C1F31301002A02DC30BC32
:1002900000207047440F44EAC104C100E01830BC9C
:1002A00000EBC25000F084B830B50B460146002088
:1002B0002022012409E021FA02F59D4205D303FA28
:1002C00002F5491B04FA02F52844151EA2F10102A9
:1002D000F1DC30BD202A04DB203A00FA02F10020D4
:1002E00070479140C2F1200320FA03F31943904074
:1002F0007047202A04DB203A21FA02F000217047DF
:1003000021FA02F3D040C2F120029140084319467D
:10031000704700000FB4002300B589B00CA900910C
:100320000B996FF00042CB601E4B06931E4B079358
:100330000423CDE901321D4A089202466B46002093
:1003400000F00CFB09B05DF814FB70B586B00646F2
:100350004FF0FF300091CDE90101002015460C4619
:1003600004903246694604A8FFF7D4FF0246049879
:10037000211825B108B1084600E0204628600498FD
:1003800000280DD0002A02DD0098884208D0081B02
:100390000094CDE901043246694604A8FFF7BAFF8C
:1003A00006B070BD950B0008B30B000829080008C3
:1003B0000029A8BF7047401C490008BF20F0010079
:1003C000704710B4B0FA80FC00FA0CF050EA010457
:1003D00004BF10BC704749B1CCF1200421FA04F4E9
:1003E00011FA0CF118BF012121430843A3EB0C01C2
:1003F000CB1D4FEA00614FEA102042BF002010BC25
:10040000704700EBC35010440029A4BF10BC7047D4
:10041000401C490008BF20F0010010BC7047F0B438
:1004200000F0004221F0004120F00040CE0DC30D4D
:10043000C1F3160141F40001C0F316004C42154609
:1004400040F40000761E09E010EB440002D582F073
:10045000004240428842F7D840005B1EB342F9DABE
:1004600018B1F0BC0021FFF7ACBF2846F0BC7047C4
:100470002DE9FE4F804681EA0300C00F0C46009034
:1004800021F0004123F00045B8EB0200A94105D25C
:100490004046214690461C460B46024623F000404B
:1004A000104347D0270DC7F30A00C3F30A51029047
:1004B000401A019040286BDAC3F3130040F4801B0C
:1004C0000098924620B10023D2EB030A63EB0B0B9A
:1004D00001985946C0F140025046FFF7FBFE064620
:1004E0000D4650465946019A00F08CF910EB080071
:1004F0006141002487EA115284EAE7731A4340D02D
:10050000009A62B3019A012A4FEA075215DC001BD8
:1005100061EB02014FF0004202EA0752CDE90042CE
:10052000001C41F5801132462B4600F062FB03B0FF
:10053000BDE8F08F40462146F9E7001B61EB020160
:10054000001C41F5801300185B412018A2F500172C
:1005500047EB030140EAD570B6196D4111E06D0813
:100560004FEA360645EAC0754FEA0752001B61EBB9
:100570000201001C41F5801149084FEA30000019C2
:10058000514132462B4603B0BDE8F04F00F022BB8C
:100590000098012240000023D0EB020263EBE073DD
:1005A000009821464FEAE074B8EB000061EB0401CB
:1005B000E9E783F000435BE781F0004158E72DE96C
:1005C000FE4F81EA030404F0004421F0004100944E
:1005D0004FF0000B23F0004350EA01045ED052EAD2
:1005E00003045BD0C3F30A54C1F30A552C44A4F2AC
:1005F000F3340194A0FB0254C1F3130141F48011C0
:10060000C3F3130343F4801301FB024400FB034EC6
:10061000840A970A44EA815447EA8357A4FB07688F
:1006200002958D0A05FB07854FEA932C04FB0C54B9
:100630002705029D4FEA065847EA1637B5EB08052D
:100640006EEB070C870E920E47EA811742EA83127F
:10065000A7FB0201B6EB0B0164EB00042B0D43EA90
:100660000C335E1844EB1C50DA465146E7FB02019E
:10067000C5F313044FEA0B3343EA14534FEA043231
:10068000019C43EA0603A4F10C040294009CCDE90A
:1006900000B400F0AEFA03B0BDE8F08F00200146D0
:1006A000F9E72DE9F04D81EA030404F0004B21F055
:1006B000004514464FF0000A23F0004150EA0502BD
:1006C00020D054EA01021DD0C5F30A570246C5F3F3
:1006D0001303C1F31300C1F30A5640F4801543F429
:1006E0008013A7EB0608101BD64608F2FD3873EB03
:1006F000050002D308F1010801E092185B41B8F14E
:10070000000F03DA00200146BDE8F08D00204FF411
:100710008011064684460EE0171B73EB050705D3D0
:10072000121B63EB050306434CEA010C49084FEA30
:10073000300092185B4150EA0107EDD152EA030004
:1007400012D082EA040083EA0501084305D0101B99
:10075000AB4106D20122002306E000224FF0004305
:1007600002E06FF0010253101AEB06004CEB085147
:1007700010EB0A0041EB0B01BDE8F04D00F02ABA86
:10078000C1F30A52C1F3130140F2FF3341F4801167
:100790009A4202DA00200146704740F233439A42FF
:1007A000A2F2334202DC5242FFF7A3BDFFF792BD33
:1007B00030B5041E71F1000404DB4FF000444042E8
:1007C00064EB0101141E73F1000405DB1C464FF0BD
:1007D0000043524263EB0403994208BF904230BD8C
:1007E000064C074D06E0E06840F0010394E807007E
:1007F00098471034AC42F6D3FFF7CAFCF84600081D
:1008000018470008202A06DBCB17203A41FA02F0ED
:1008100043EAE07306E041FA02F3D040C2F120025D
:100820009140084319467047C0B24FF4F05100F0B0
:100830002FBA00002DE9FF4F087883B09946FF28B2
:1008400005D0491C2D2804D00024002008E00020F9
:100850000BE00124F9E700EB800003EB4000491CAA
:100860000B78FF2BF7D104B1404200230293147898
:1008700019461D462D2C01D02B2C04D1521C2D2C99
:1008800013D000240294AA461478FF2C0FD00A2516
:10089000A3FB057801FB05814FF0000C03FB0C1155
:1008A000521CE3194AEB0101EEE70124EAE7814417
:1008B00053EA010002D019F5C87F06DA0398002137
:1008C000C0E9001107B0BDE8F08F0025AE4E2F46FD
:1008D000DFF8B882184600F0EFF9CDE90001B9F170
:1008E000000002DAC9F1000400E004460023A74A30
:1008F0001AEB030B42EB045A12E0E00707D02A463A
:10090000334638464146FFF75AFE074688462A4690
:10091000334610461946FFF752FE05460E46641050
:10092000002CEAD1DDE90001B9F1000F5A46534627
:1009300006DAFFF7B6FE3A464346FFF7B2FE05E099
:10094000FFF73DFE3A464346FFF739FE029A0AB1E9
:1009500081F00041039AC2E90001B3E72DE9FF4F9E
:100960001F468DB0D7E901464FF0FF382E2045468F
:100970004FF000090B90B9696D1C0E988847396AD1
:10098000824688470028F6D1BAF1FF3F0AD024F406
:10099000D064002E11DDBAF12B0F08D0BAF12D0F63
:1009A0000BD102E0404611B08DE744F48064B96990
:1009B0006D1C0E9888478246761E6946600501D5F3
:1009C0002D2000E02B208DF8000001F1010B0DF12E
:1009D000200809E0B9696D1C0E98884782460F9877
:1009E00044F40074761E0560002E02DDBAF1300F6B
:1009F000F0D00B998A453ED144F0800406E00F996F
:100A0000681CA9F1010944F400740860B9696D1CFF
:100A1000761E0E98884782463028F0D02BE00B993E
:100A20008A4505D1200603D444F08004761E18E0E0
:100A3000504602F03BFB08B30DF11301761E44F45F
:100A400000748B4508D2AAF130000BF8010B200688
:100A500007D5A9F1010003E0200602D409F1010045
:100A60008146A00502D50F99681C0860B9696D1C04
:100A70000E9888478246002ED1DC53E0002E51DDCF
:100A8000BAF1650F02D0BAF1450F4BD1A00549D597
:100A9000B9696D1C24F44074761E0E98884782460E
:100AA000002E0CDD2B2804D0BAF12D0F07D144F411
:100AB0008074B9696D1C0E9888478246761EE005E1
:100AC00001D52D2100E02B2108F8011BCDF82C8049
:100AD00021E00DF12901761E44F4007488450CD202
:100AE000AAF1300010F0FF0088F8000002D10B9945
:100AF000884509D908F1010806E0E00501D5244838
:100B000001E042F20F708146B9696D1C0E9888476A
:100B100082460F980560002E04DD504602F0C6FAAA
:100B20000028D6D1F9690E988847FF208BF800007D
:100B300088F800000020069007904B466A4608A9F6
:100B400006A8FFF777FEA00502D46FF001002AE7A0
:100B500014F0240F0AD0E00714D1DDE9061238683A
:100B6000031D3B600068C0E900120BE0DDE90601EF
:100B7000FFF77EFB0146E00704D13868021D3A60AA
:100B80000068016028460EE7000014400000F03FB6
:100B9000F1D8FFFF426842B1016811F8013B23B16F
:100BA000521EC0E90012184670470121C160881E1C
:100BB000704742685AB1C368016843B983688B4281
:100BC00005D0491E521CC0E90012002070474FF0AA
:100BD000FF30704710B5141E73F1000408DA401C92
:100BE00041F1000192185B411A4301D120F001004C
:100BF00010BD2DE9F04D92469B4611B1B1FA81F23C
:100C000002E0B0FA80F220329046FFF763FB044620
:100C10000F4640EA0A0041EA0B0153465A46084390
:100C200013D0114653EA010019D0C8F140025046D2
:100C3000FFF75FFB05460E46504659464246FFF712
:100C400049FB084305D0012004E020463946BDE8B1
:100C5000F08D0020054346EAE0762C4337430A989E
:100C60006305E40AA0EB08000022FD0A44EA4754A9
:100C70000A3002D500200146E9E701051019694153
:100C8000DDE9084500196941BDE8F04DA2E7000023
:100C90007F2801D9002208E0064A02EB5002C00773
:100CA000127800D1120902F00F0201209040084092
:100CB00070470000044500080EB540F2334202922E
:100CC0000022CDE900221346FFF793FF03B000BDD9
:100CD000FEE7704772B6FEE72DE9F0410446876DE6
:100CE00000F05CF9064694F835000025022806D08D
:100CF0008020606584F834500120BDE8F0812068D0
:100D0000016821F0160101602068416921F080012D
:100D10004161206C08B9A06C20B12068016821F005
:100D2000080101602068016821F0010101600CE008
:100D300000F034F9801B052807D9202060650320C6
:100D400084F8350084F83450D7E720680068C0077D
:100D5000EED194F85C103F208840B860012084F800
:100D6000350084F834500020C7E790F83510022988
:100D700003D08021416501207047052180F835109E
:100D80000068016821F00101016000207047000047
:100D90002DE9F84FDFF8BCA10022012503264FF012
:100DA0000F090AF1040BAAF1040E00BF0B6805FA43
:100DB00002F42340A34270D10F7907F00307012FFB
:100DC00001D0022F16D187684FEA420806FA08FCC4
:100DD00027EA0C07D1F80CC00CFA08FC4CEA070C07
:100DE000C0F808C04768A7430C79C4F300149440C6
:100DF0003C4344600C79E443A4070AD0C4684FEA3A
:100E0000420C06FA0CF7BC438F6807FA0CF727432D
:100E1000C7600C7904F00304022C12D1D40800EB53
:100E2000840CDCF820405707FF0E09FA07F824EA83
:100E30000804D1F8108008FA07F848EA0408CCF84A
:100E4000208004684FEA420C06FA0CF7BC430F7985
:100E500007F0030707FA0CF7274307604C6814F400
:100E6000403F70D03C4C276847F480472760246897
:100E700022F0030704F480440094384C07EB040C80
:100E8000DCF8084897074FEA177809FA08F7BC43D7
:100E9000334FB84202D1002724E054E0314FB8422A
:100EA00001D101271EE0304FB84201D1022719E0DD
:100EB0002E4FB84201D1032714E02D4FB84201D183
:100EC00004270FE02B4FB84201D105270AE02A4F33
:100ED000B84201D1062705E0284FB84201D10727C3
:100EE00000E0082707FA08F72743CCF80878DAF873
:100EF00000405746D1F804C09C435FEACC2C00D593
:100F00001C433C60DBF800405F46D1F804C09C43C2
:100F10005FEA8C2C00D51C433C60DEF8004077462D
:100F2000D1F804C09C435FEA8C3C00D51C433C6074
:100F3000084F083F3C68D1F804C09C435FEACC3CB2
:100F400000D51C433C60521C102AFFF42FAFBDE8B3
:100F5000F88F0000083C0140443802400030014056
:100F6000000002400004024000080240000C024061
:100F7000001002400014024000180240001C024011
:100F8000426921EA02030A4043EA02418161704753
:100F90000AB1816170470904FBE7000001488068DD
:100FA000704700001C00002070B5040025D094F8A4
:100FB0003D00002520B984F83C50204600F0B8F8E8
:100FC000242084F83D002068016821F001010160BF
:100FD0002068016841F4004101602068016821F443
:100FE0000041016000F068FA4D4A6168914201D801
:100FF0004C4900E04C49884201D2012070BD4B4968
:101000002368B0FBF1F15E6826F03F060E435E6098
:101010006368934206D94FF4967359434FF47A7339
:10102000B1FBF3F12368491C1E6A26F03F063143E9
:1010300019626168914210D84900401EB0FBF1F27C
:10104000521CC2F30B02042A01D2042022E0B0FB9E
:10105000F1F0401CC0F30B001CE0A268F2B301EBFE
:10106000C10303EB0116431EB3FBF6F35B1C43F411
:1010700080431B0549D092B301EBC10202EB011181
:10108000401EB0FBF1F0401CC0F30B0040F4804068
:1010900040F400402168CA694CF6FF739A4310433C
:1010A000C861D4E9071001432068026822F0C00239
:1010B00011430160D4E9030101432068826848F2CA
:1010C000FF339A4311438160D4E905010843216845
:1010D000CA6822F0FF021043C86001E00EE016E08B
:1010E0002068016841F0010101602564202084F836
:1010F0003D00256384F83E50002070BD01EB4106A1
:10110000431EB3FBF6F35B1CB3E70120C2E701EB20
:101110004101401EB0FBF1F0401CC0F30B00B7E7EB
:10112000A086010080841E0000093D0040420F009F
:101130002DE9F04186B0044614216846FFF77AF89D
:101140002268394C374B00213748122501260427E5
:1011500010349A4219D1026842F00202026000681B
:10116000CDE9026100F002000590C020CDE9000544
:10117000049769462D48FFF70BFE206840F40010E5
:101180002060206800F400101BE0294B9A421CD11B
:10119000026842F0200202600068CDE9026100F0BE
:1011A000200005900320CDE90005049769462148F9
:1011B000FFF7EEFD206840F480002060206800F416
:1011C0008000059006B0BDE8F0811B4B9A42F9D132
:1011D0008846016841F004010160016801F00401E2
:1011E0000591016841F0010101600068049700F079
:1011F0000100059050158DE8610169460F48FFF721
:10120000C7FD4FF4807004978DE8610169460C4872
:10121000FFF7BEFD206840F400002060206800F465
:101220000000CEE700540040303802400004024085
:101230000058004000140240005C004000080240DA
:1012400000000240024881680278114481607047C2
:101250001C0000200B4810B5016841F400710160CA
:10126000016841F480610160016841F480710160AE
:10127000032000F06FF80F2000F006F800F024F8CB
:10128000002010BD003C024070B50D4D04464FF4E7
:101290007A712878B1FBF0F00A490968B1FBF0F0E7
:1012A00000F012FB48B9102C07D200222146501E34
:1012B00000F030F800206C6070BD012070BD0000AF
:1012C0001C000020280000200A4808B5016841F4ED
:1012D00080410160006800F4804000900548001FD4
:1012E000016841F080510160006800F0805000907A
:1012F00008BD000044380240002809DB00F01F024E
:10130000012191404009800000F1E020C0F8001167
:1013100070470000F0B40E4B1B680C46C3F3022369
:10132000C3F10705042D00D90425191D072901D291
:10133000002300E0DB1E012606FA05F1491E2140CC
:1013400099409E40761E16403143F0BC01F0D7BB59
:101350000CED00E0064900F0070208684FF6FF03B5
:10136000184040EA0220034A10430860704700001A
:101370000CED00E00000FA052DE9F0470E460500EF
:1013800065D0DFF81481D8F80000F7B200F007004C
:10139000B04207D288F80070D8F8000000F00700CB
:1013A000B04254D128683D4C810712D5400703D57F
:1013B000206840F4E05020602878000703D52068BA
:1013C00040F4604020602068A96820F0F0000843E5
:1013D00020602878C0072DD0304968680839012876
:1013E00012D0022813D0032811D0096889070029D8
:1013F0002DDA216821F0030101432160FFF7CEFDC2
:10140000814641F2883A0EE009688903EFE70968EE
:101410008901ECE7FFF7C2FDA0EB0901514502D9B4
:101420000320BDE8F0872068696800F00C00B0EB8D
:10143000810FEFD1D8F80010404601F00701B1420A
:1014400007D90770006800F00700B04201D0012002
:10145000E7E72878400705D52068E96820F4E050E0
:10146000084320602878000706D52068296920F401
:10147000604040EAC100206000F03EF82168084A60
:10148000C1F30311515CC840064908600648006872
:10149000FFF7FAFE0020C4E7003C02400838024093
:1014A000CC410008280000202000002001480068EE
:1014B00070470000280000200448054900680968BA
:1014C000044AC1F38221515CC840704728000020C3
:1014D00008380240DC4100080448054900680968F2
:1014E000044AC1F34231515CC840704728000020D3
:1014F00008380240DC410008154810B5006810F0BB
:101500000C02144813D01449042A0FD0082A0ED113
:101510000F4C241F2268236802F03F025B0207D5AC
:101520002068C0F38810A0FB010106E0084610BD4A
:101530002168C1F38811A1FB00010023FEF742FEE0
:101540002168C1F30141491C4900B0FBF1F010BD15
:10155000083802400024F40040787D012DE9F84F5E
:1015600004006ED02078DFF84C93C007A9F1040581
:101570004AD009F104000168C1F38101012908D0B2
:101580000068C0F3810002280AD1D9F800004002A7
:1015900006D52868800337D560680028E1D033E09D
:1015A0006068B0F5803F10D0B0F5A02F286810D04B
:1015B00020F480302860286820F48020286060684B
:1015C000A8B1FFF7EBFC06460DE0286840F4803038
:1015D000F4E740F480202860F7E700BFFFF7DEFC67
:1015E000801B642873D828688003F7D50CE0FFF7C8
:1015F000D5FC064605E000BFFFF7D0FC801B642841
:10160000F0D828688003F7D42078DFF8AC82800710
:101610004FF0000A3ED5A748001D016811F00C0FDD
:1016200008D00068C0F3810002280BD1D9F800006F
:10163000400207D42868800716D5E068012800D149
:1016400012E033E1E068B8B10120C8F80000FFF70C
:10165000A5FC064605E000BFFFF7A0FC801B0228A2
:10166000C0D828688007F7D52868216920F0F800DD
:1016700040EAC10028600DE0C8F800A0FFF78EFC2A
:10168000064604E0FFF78AFC801B02281FD8286862
:101690008007F7D42078000722D5864F87486169F4
:1016A000703771B101210160FFF778FC064604E054
:1016B000FFF774FC801B022809D838688007F7D52B
:1016C0000EE0C0F800A0FFF769FC064605E082E0E6
:1016D000FFF764FC801B02287DD838688007F7D4A8
:1016E0002078400768D5DFF8CCB100270BF13C0B20
:1016F000DBF80000C0000BD4DBF8001041F0805193
:10170000CBF80010DBF80000012700F080500090BB
:101710006B4E3068C00510D4306840F48070306083
:10172000FFF73CFC009005E0FFF738FC0099401AF9
:10173000022850D83068C005F6D55E4EA0686C36D9
:1017400001280FD00528306810D020F0010030604B
:10175000306820F004003060A068B8B1FFF71EFCCC
:1017600000900FE0306840F00100F4E740F0040022
:101770003060F7E7FFF712FC0099411A41F2883018
:10178000814266D830688007F4D50EE0FFF706FC8A
:10179000009007E0FFF702FC0099411A41F28830FF
:1017A000814256D830688007F4D42FB1DBF800109E
:1017B00021F08051CBF80010A069C8B33D49091D44
:1017C0000968C1F3810102294AD00228504607D096
:1017D000C8F8600000E03CE0FFF7E0FB04463BE0B7
:1017E0004746C8F86000FFF7D9FB064605E000BF92
:1017F000FFF7D4FB801B02282BD828688001F7D480
:10180000D4E907010843A16A2E4A490802EB0141C5
:10181000626A41EA8211084394F82C1040EA01619F
:10182000C9F8001001203866FFF7B8FB044606E04F
:101830003EE000BFFFF7B2FB001B022809D8286872
:101840008001F7D534E000BFFFF7A8FB001B02289A
:1018500002D90320BDE8F88F28688001F4D427E07E
:101860000128F7D0D9F80000E26900F48001914224
:101870001CD1226A00F03F01914217D147F6C07196
:10188000626A0140B1EB821F10D1A26A4FF0FF33B0
:1018900000F4403103EB5202B1EB024F06D194F851
:1018A0002C1000F07060B0EB016F01D00120D1E787
:1018B0000020CFE70438024000004742800E474234
:1018C000007000400000FFFF10B5401EB0F1807FA7
:1018D00001D3012010BD4FF0E02460610F2160179B
:1018E00001F00DF90020A06107202061002010BD4B
:1018F00010B590F83C20012A22D0012280F83C202B
:10190000CA688C6822F4407222434C6822F48062D8
:1019100022430C6822F4006222430C6922F48052B4
:1019200022434C6922F400522243C969002322F465
:1019300080420A4301684A6480F83C30002010BDB0
:10194000022010BD70B590F83C20012A32D001244D
:1019500080F83C40022280F83D2003685A689D6868
:1019600022F070060A6832435A60134B02689A42AA
:1019700014D0B2F1804F11D0104B9A420ED0104BC0
:101980009A420BD00F4B9A4208D00F4B9A4205D087
:101990000E4B9A4202D00E4B9A4204D1496825F070
:1019A00080031943916080F83D40002180F83C108D
:1019B000084670BD022070BD0000014000040040D8
:1019C00000080040000C00400004014000400140BD
:1019D0000018004070B586B0044614216846FEF732
:1019E00029FC2B4A216800242A480225012691421D
:1019F00011D1016841F0100101600068694600F0F2
:101A0000100005904FF428500090CDE90154CDE925
:101A10000346214822E0214A914223D1016841F046
:101A200001010160016801F001010591016841F0C7
:101A3000020101600068694600F002000590C020C4
:101A40000090CDE901541648CDE90345FFF7A0F910
:101A50000096CDE901546946124815E0FFF798F960
:101A600006B070BD104A9142FAD1016841F00801F8
:101A700001600068694600F0080005904FF4E040FE
:101A80000090CDE901540948CDE90345E6E700009F
:101A900000000140303802400010024000040040C5
:101AA000000002400004024000080040000C024018
:101AB00070B5044690F83C0000260D4601280FD072
:101AC000012084F83C006AB1042A1DD0082A2FD0D6
:101AD0000C2A3FD00126002084F83C00304670BD1F
:101AE000022070BD206800F0D1FD2068816941F0BE
:101AF000080181612068816921F004018161206809
:101B000081692A69114311E0206800F0EFFD206827
:101B1000816941F4006181612068816921F48061FB
:101B20008161206881692A6941EA02218161D2E7E5
:101B3000206800F011FE2068C16941F00801C16110
:101B40002068C16921F00401C1612068C1692A6966
:101B5000114311E0206800F033FE2068C16941F4B0
:101B60000061C1612068C16921F48061C1612068A0
:101B7000C1692A6941EA0221C161ACE710B50400DC
:101B800003D094F83D0010B107E0012010BD002003
:101B900084F83C00204600F01FF8022084F83D0045
:101BA000211D206800F0FCFC012084F8460084F828
:101BB0003E0084F83F0084F8400084F8410084F837
:101BC000420084F8430084F8440084F8450084F817
:101BD0003D00002010BD000008B501681248814298
:101BE00008D11248016841F001010160006800F06D
:101BF00001000BE00D480E4A001F914208D1016818
:101C000041F002010160006800F00200009008BD90
:101C1000084A9142FBD1016841F00401016000686B
:101C200000F00400F2E700000000014044380240E8
:101C3000000400400008004010B50446022249B1EB
:101C400004290ED0082913D094F84100012816D099
:101C5000012010BD94F83E000128F9D184F83E20FF
:101C60000FE094F83F000128F2D184F83F2008E00B
:101C700094F840000128EBD184F8402001E084F87A
:101C800041200122206800F0F3FC16492068164A22
:101C9000884201D0904203D1436C43F40043436433
:101CA0002068884213D0B0F1804F10D00F4988428D
:101CB0000DD00F4988420AD00E49884207D0904281
:101CC00005D00D49884202D00C49884204D1816870
:101CD00001F00701062903D0016841F0010101600C
:101CE000002010BD0000014000040140000400403D
:101CF00000080040000C0040004001400018004077
:101D000070477047F8B5016804460868CA684B69AF
:101D100010F00F0F4FF0000559D003F0010602F448
:101D20009077374365D0C10705D0D10503D5616CE5
:101D300041F001016164410705D5D90703D0616C09
:101D400041F002016164810705D5D90703D0616CB8
:101D500041F004016164010707D502F0200131431D
:101D600003D0616C41F008016164616C00293AD0D4
:101D7000800604D5900602D5204600F077FD206845
:101D80004069616CC0F38010090700D460B320463D
:101D900000F045FD20684069400621D520681430D8
:101DA00050E8001F21F0400140E80012002AF5D160
:101DB000E06BA8B172490165E06BFEF7D6FF002821
:101DC00011D0E06B016D01B0BDE8F040084783061B
:101DD0000FD593060DD52046BDE8F84000F046BD6E
:101DE0002046FFF78EFFF8BD2046FFF78AFF6564A7
:101DF000F8BD266B2023012E7ED1C6067CD5D606E3
:101E00007AD508684868009048694FF00206400695
:101E10004DD5E26B106840684FF480770004000CE9
:101E20003AD0A18D814237D9E085D069B8422DD012
:101E300020680C3050E8001F21F4807140E8001247
:101E4000002AF5D12068143050E8001F21F001016C
:101E500040E80012002AF5D12068143050E8001F35
:101E600021F0400140E80012002AF5D184F8423008
:101E7000256320680C3050E8001F21F0100140E875
:101E80000012002AF5D1E06BFEF726FF6663A08DF5
:101E9000E18D401A81B206E0A18D8142A8D1D069BE
:101EA000B842A5D166632046FFF72AFFF8BDA08D92
:101EB000E18D401A81B2E08D0028F7D00029F5D0DD
:101EC00020680C3050E8002F22F4907240E8002780
:101ED000002FF5D12068143050E8002F22F00102C5
:101EE00040E80027002FF5D184F8423025632068B0
:101EF0000C3050E8002F00E006E022F0100240E82D
:101F00000023002BF3D1CDE705062BD5150629D5E7
:101F100094F841002128C9D1A068B0F5805F01D1B3
:101F20002069B0B1206A411C2162216800784860B4
:101F3000E08C401E0004000CE084B7D12068C1682A
:101F400021F08001C1602068C16841F04001C1609A
:101F5000F8BD206A0088C0F308004860206A801C31
:101F60002062E5E74006F3D55006F1D5CA68204661
:101F700022F04002CA6084F8413000F072F8F8BDE7
:101F80001128000870B5040004D094F84100002521
:101F900010B106E0012070BD84F84050204600F0EA
:101FA00023F8242084F841002068C16821F40051FE
:101FB000C160204600F0BCFC2068016921F490411A
:101FC00001612068416921F02A0141612068C168EE
:101FD00041F40051C1606564202084F8410084F818
:101FE00042006563002070BD10B586B00446142120
:101FF0006846FEF71FF917492068884228D116481D
:102000000021026842F400320260006800F40030EF
:10201000059011481038026842F00802026000681A
:1020200000F008000590602000900220CDE9010139
:10203000032003900720049069460848FEF7A8FE95
:10204000002211462620FFF765F92620FFF754F9F4
:1020500006B010BD0044004040380240000C024071
:1020600070477047FEE70000F0B587B0142168465E
:10207000FEF7E0F839480024016841F020010160D2
:10208000016801F020010591016841F080010160C3
:10209000016801F080010591016841F001010160D2
:1020A000016801F001010591016841F00201016040
:1020B000016801F002010591016841F040010160F1
:1020C000016801F040010591016841F010010160D3
:1020D000016801F010010591016841F008010160FB
:1020E000016801F008010591016841F004010160F7
:1020F00000681B4E00F0040040F2FF15059000221E
:1021000029463046FEF744FF164F00220721384685
:10211000FEF73EFF00950125CDE9015469463046A2
:102120000394FEF735FE0095CDE901546946384623
:102130000394FEF72DFE06200090CDE90154694678
:1021400038460394FEF724FE8020CDE9000469465A
:1021500038460294FEF71CFE07B0F0BD303802404E
:1021600000180240000C02400D4810B50B490160F8
:102170000C49416000214FF480428160C0E90312A4
:1021800041618161C1610162FEF70EFF002803D049
:10219000BDE81040FEF79EBD10BD00000054004099
:1021A00048000020801A06000D4810B50B49016058
:1021B0000C49416000214FF480428160C0E9031264
:1021C00041618161C1610162FEF7EEFE002803D02A
:1021D000BDE81040FEF77EBD10BD00000058004075
:1021E0009C000020801A06000D4810B50B490160C4
:1021F0000C49416000214FF480428160C0E9031224
:1022000041618161C1610162FEF7CEFE002803D009
:10221000BDE81040FEF75EBD10BD0000005C004050
:10222000F0000020801A060030B591B000240F9411
:102230001C2168461094FDF7FDFF202107A8FDF73B
:10224000F9FF3248304D20210560C0E901414FF4CB
:102250005261C0E903148021C0E90541FFF78EFCFB
:1022600008B1FEF737FD0F940FA928481094FFF727
:1022700069FB08B1FEF72EFD6020CDE90004029451
:102280000394049405940022694620480694FFF7BD
:102290000FFC08B1FEF71EFD042269461B48FFF73C
:1022A00007FC08B1FEF716FD082269461748FFF73C
:1022B000FFFB08B1FEF70EFD0794089409944FF454
:1022C00000500A94CDE90B4007A910480E94FFF77F
:1022D0000FFB08B1FEF7FEFC0C48FFF77BFB00216B
:1022E0000A48FFF7A9FC04210848FFF7A5FC0821CC
:1022F0000648FFF7A1FC686C40F40040686403489E
:10230000FFF768FB11B030BD000001404401002020
:1023100010B58AB0002407941C2168460894FDF784
:1023200089FF1F481D49C0E900142021816040F247
:102330008F61C0E9031480218161FFF71FFC08B1A0
:10234000FEF7C8FC079407A915480894FFF7FAFAA6
:1023500008B1FEF7BFFC6020CDE900040294002222
:1023600069460F480494FFF7A3FB08B1FEF7B2FCDF
:10237000042269460A48FFF79BFB08B1FEF7AAFC56
:10238000082269460648FFF793FB08B1FEF7A2FC56
:102390000348FFF71FFB0AB010BD00000004004017
:1023A0008C01002010B58AB0002407941C216846D7
:1023B0000894FDF73FFF1F481D49C0E90014202184
:1023C000816040F28F61C0E9031480218161FFF7D1
:1023D000D5FB08B1FEF77EFC079407A915480894C1
:1023E000FFF7B0FA08B1FEF775FC6020CDE90004F4
:1023F0000294002269460F480494FFF759FB08B184
:10240000FEF768FC042269460A48FFF751FB08B151
:10241000FEF760FC082269460648FFF749FB08B151
:10242000FEF758FC0348FFF7D5FA0AB010BD0000CC
:1024300000080040D40100200E4810B50C4901608E
:102440004FF4E1314160002181600C22C160C0E99C
:1024500004128161C161FFF795FD08B1FEF73AFCF6
:1024600003480C30016841F02001016010BD0000FC
:10247000004400401C030020FEE7FEE77047704761
:10248000FEF7E0BE30B593B030216846FDF7D2FECE
:1024900014210CA8FDF7CEFE1E480025016841F06E
:1024A00080510160006800F0805011901A48016866
:1024B00041F4804101600068022400F480401190E2
:1024C00001200090000401908001CDE90640192010
:1024D00008904FF4A870CDE9090404200B906846D9
:1024E000FFF73CF808B172B6FEE70CA90F2081E8AF
:1024F00031004FF4A0500F904FF480501090052100
:102500000CA8FEF739FF002801D072B6FEE713B021
:1025100030BD0000403802400070004002480168B1
:1025200041F470010160704788ED00E038B5124851
:102530000024016841F0100101600068224600F0AB
:102540001000009001213620FEF7E4FE3620FEF751
:10255000D3FE0A4804605321816240F2E731C16230
:102560000121C160416941F001014161016841F00F
:102570000101016038BD00004038024000100040F9
:1025800005480169C90706D06FF0010101610348E0
:102590000168491C016070470010004018000020CD
:1025A000F0B50268274B284D284E294F294C4FF093
:1025B000804C984209D0604507D0A84205D0B0426F
:1025C00003D0B84201D0A04204D122F0700E4A6874
:1025D00042EA0E0298421BD0604519D0A84217D09B
:1025E000B04215D0B84213D0A04211D01A4DA84223
:1025F0000ED01A4DA8420BD0194DA84208D0194D43
:10260000A84205D0184DA84202D0184DA84203D1C7
:1026100022F44075CA682A434D6922F080022A4399
:102620008D68C5620D688562984201D0A04201D1D3
:1026300009690163016841F0040101600121416100
:102640000260F0BD000001400004004000080040AE
:10265000000C0040000401400040014000440140E3
:102660000048014000180040001C004000200040CD
:1026700010B501F01F030121046A99408C430462E4
:10268000016A9A401143016210BD0000F0B5036A6F
:10269000026A22F00102026242688469124E24F04A
:1026A00073050C682C4323F002058B682B430D4DFA
:1026B000A84201D0B04205D123F00807CB683B43C4
:1026C00023F00403A84201D0B04205D14D6922F4A1
:1026D000407215438A692A434260846149684163B4
:1026E0000362F0BD0000014000040140F0B5026A41
:1026F000036A23F010030362436884690D6824F4BD
:10270000E64444EA05248D6822F0200242EA0512DC
:102710000F4D104EA84201D0B04206D1CF6822F032
:10272000800242EA071222F04002A84201D0B042E1
:1027300007D14D6923F4406343EA85038D6943EA79
:10274000850343608461496881630262F0BD0000D3
:102750000000014000040140F0B5026A036A23F45E
:10276000807303624368C46922F4007224F0730525
:102770000C68124E2C438D6842EA05220E4DA84289
:1027800001D0B04206D1CF6822F4006242EA0722AB
:1027900022F48062A84201D0B04207D14D6923F4EF
:1027A000405343EA05138D6943EA05134360C4614E
:1027B0004968C1630262F0BD0000014000040140AD
:1027C00030B5046A026A22F4805202624268C36928
:1027D0000D6823F4E64343EA05238D6824F400548E
:1027E00044EA0534084DA84202D0084DA84204D15D
:1027F0004D6922F4804242EA85124260C361496811
:102800000164046230BD000000000140000401408A
:1028100010B5806B0021C185FFF773FA10BD016808
:102820000C3151E8002F22F4907241E80023002B74
:10283000F5D10168143151E8002F22F0010241E87E
:102840000023002BF5D1016B012909D101680C315E
:1028500051E8002F22F0100241E80023002BF5D1AF
:10286000202180F8421000210163704708B590F8DC
:102870004210222901D0022008BD82684FF4805303
:102880009A4201D1016921B1816A9A421BD04AB1B1
:102890000AE00268816A5268C2F308020A80816A0B
:1028A000891C08E0026972B10268526802F07F0276
:1028B0000A70816A491C8162C18D491E0904090C94
:1028C000C18503D01BE002685268F1E70168CA685D
:1028D00022F02002CA600168CA6822F48072CA60CD
:1028E00001684A6922F001024A61202180F8421001
:1028F00000214163026B012A03D0FFF7B1FB0020E6
:1029000008BD016301680C3151E8002F22F010026C
:1029100041E80023002BF5D101680A68D20602D5F0
:102920000A6849680091818DFFF7EAF9E7E700003E
:1029300070B5044600680169E26821F44051114312
:1029400001612169A068E269084361691143084394
:102950002168CA6849F20C639A430243CA6020683E
:102960004169A26921F440711143416131492068F4
:10297000884202D03049884202D1FEF7ADFD01E025
:10298000FEF79AFDE2690023192164253226B2F58B
:10299000004F626828D0A0FB0101930F9200FDF761
:1029A00011FC0146B0FBF5F06FF01802504301EB4B
:1029B000800006EB0010B0FBF5F000F0F002B1FB78
:1029C000F5F002EB0012B1FBF5F06FF0180358437D
:1029D00001EB800006EB0010B0FBF5F000F00F00FB
:1029E00021681044886070BDA0FB010192185B4112
:1029F000FDF7E8FB0146B0FBF5F00201B1FBF5F095
:102A00006FF01803584301EB800006EBC000B0FBE9
:102A1000F5F000F0F80002EB4002B1FBF5F058438E
:102A200001EB800006EBC000B0FBF5F000F0070002
:102A3000D6E70000001001400014014010B500F07E
:102A400007F8BDE810400148FFF75CB91C030020FF
:102A500030B51548006880060FD51348001D006882
:102A6000C2B2124801880B0407D4114C4D044FF038
:102A700000030AD50A2A01D0038030BD41F4004189
:102A80000180C1F30D00235430BD0D2A08D0C1F3DD
:102A90000D05491C89B262550180FF29ECD830BD73
:102AA00041F48041018030BD00440040140000200A
:102AB0001C020020FEE700000FB4054B10B503A96F
:102AC000044A029800F010FB10BC5DF814FB0000F3
:102AD000E93B0008400000204100080218BF042024
:102AE0000A0E18BF40F001004FF07F4232EA0101A8
:102AF00008BF40F00200012808BF05207047090701
:102B0000090E002804DB00F1E02080F80014704773
:102B100000F00F0000F1E02080F8141D7047000065
:102B200070B54FF068422DED048BF0EE408A18EE40
:102B3000900AB0EE608A18EE101A02EB4003B3F16F
:102B4000654F3CBF02EB4102B2F1654F7DD200BF41
:102B5000C0F3C753C1F3C7529A1A1B2A09DD10F0FC
:102B6000004F14BF9FED830A9FED830ABDEC048BD9
:102B700070BD12F11A0F36DA11F0004F09D010F0C3
:102B8000004F0CBF9FED7D0A9FED7D0ABDEC048BCD
:102B900070BD88EE889A19EE100AFFF79DFF042891
:102BA00008BF00F095F918EE900AFFF795FF05466B
:102BB00018EE100AFFF790FF044619EE100AFFF70F
:102BC0008BFF042D18BF052D08D1042C18BF052C30
:102BD00004D1002804BF022000F098F9B0EE490AA1
:102BE000BDEC048B70BD4200B2EB410F3AD910F03E
:102BF000004F19BFDFED630A9FED630ADFED630A43
:102C00009FED630AB0EE481A0A46B1EE688A80F07A
:102C10000041F0EE418A10460A1A5200B2F1807F5C
:102C200034D2484010F0004FDFED5A1A9FED5A2A77
:102C30001DBFBEEE001A70EEE10A30EE420AB6EE9B
:102C4000001A08BF70EEA10A00E040E008BF30EEB5
:102C5000020AB0EE682A01EE482A08EE818AC2EE26
:102C6000081A15E011F0004F04BF9FED4C0AF0EE7A
:102C7000400AD1D010F0004F19BFDFED490A9FED97
:102C8000490ADFED490A9FED490AC5E7C8EE881AEF
:102C900021EEA11A9FED462ADFED462A41EE022AD7
:102CA0009FED452A01EE222ADFED442A41EE022A59
:102CB0009FED432ABDEC048B01EE222A21EE811AFE
:102CC00001EE020A30EE210A30EE200A70BD4FF00C
:102CD0007F42B2EB400F28BFB2EB410F09D2F0EEBA
:102CE000480AB0EE680ABDEC048BBDE8704000F005
:102CF000E3B840EA01035B0008BF41F0FF410BD09D
:102D0000B2EB400F08BFB2EB410F08D120F080407A
:102D100008EE900A21F0804108EE101A18E7B2EB95
:102D2000400F12BF5FEA410340F0FF4001F0004155
:102D30003FF40EAFB2EB410F12BF5FEA400200F06A
:102D4000004041F0FF413FF403AF4A0092EA4003E4
:102D50003FF5FEAE002AACBF9FED1A0A9FED1A0A9E
:102D600068EE808A28EE008A18EE900A18EE101A93
:102D7000EEE60000DB0FC9BFDB0FC93FDB0F4940A8
:102D8000DB0F49C00000C9BF22AAFDB90000C93F3E
:102D900022AAFD390060ED3EC30ACE3700000000D4
:102DA000000049C022AA7DBA0000494022AA7D3A0B
:102DB0002DAD65BD8FB8D53D0FB511BE61C84C3E78
:102DC000A8AAAABE0000804F0000802F00000000CB
:102DD00030B583B0044600F083F89FED090B05463B
:102DE0008DED000B002221466846FDF7AEFA28461D
:102DF00000F08CF89DED000B03B030BD000000002A
:102E0000000000000000000010B52DED028BF0EE78
:102E1000408A18EE900AB0EE608A20F00040C0F1BF
:102E2000FF40C00F07D118EE100A20F00040C0F19B
:102E3000FF40C00F2BD018EE101A18EE900AFDF7C5
:102E4000EEFA00EE100A10EE100A6FEAD05010F001
:102E5000FF0F04BFBDEC028B10BD18EE900A00F00E
:102E6000004110EE100A00F00040814204BFBDECAA
:102E7000028B10BD18EE101A10EE100ABDEC028B7A
:102E800061F31E0000EE900A30EE600A10BD18EEED
:102E9000900A4FF07F41B1EB400F1CBF18EE100AB3
:102EA0005FEA4000C7D1012000F030F8BDEC028B92
:102EB000BDE8104000F004B830EE200A7047000072
:102EC000DFED020A80EEA00A70470000000000005B
:102ED0009FED020A20EE000A70470000000000107B
:102EE00001480068704700004400002002E008C864
:102EF000121F08C1002AFAD170477047002001E074
:102F000001C1121F002AFBD170470000014908606F
:102F1000704700004400002000EE900AF8EEE00A3E
:102F200020EE200A704700002DE9FF5F82B00021EB
:102F3000DDE90430020DDDF840B0034318D044F65B
:102F40001050A2F2FF3242431514119801281FD0ED
:102F5000A5EB0B00401C5FEA000A4FF000064E4F45
:102F6000DFF83891B046504615D5CAF1000413E099
:102F7000119801244AA3012801D16FEA0B0102989C
:102F8000119AC0E90031C0E9024206B0BDE8F09FE5
:102F9000CBF10000DFE704460021404A491842EB2C
:102FA0000450CDE9001012E0E00707D032463B465E
:102FB00040464946FDF703FB8046894632463B467C
:102FC00010461946FDF7FBFA06460F466410002C22
:102FD000EAD1DDE90401DDE90023BAF1000F06DAE8
:102FE000FDF7EDFA42464B46FDF7E9FA05E0FDF73D
:102FF00058FB42464B46FDF754FB04460E46002262
:10300000284BFDF7D5FB03D84FF0FF30014607E012
:103010000022254B20463146FDF72AFAFDF7B0FB8A
:10302000102409E0002C0ADB0A220023FDF7CAF86D
:10303000039B30321A55641E50EA0102F2D1641C1F
:10304000039AC4F111031444119A012A03D00122F6
:1030500008430DD10AE0084304D000204FF0110BC3
:10306000119072E7A3EB0B056D1E0DE05B4504DDCF
:103070004FF0000205F1010504E003DA4FF0000211
:10308000A5F10105002AECD002981199C0E902319E
:10309000C0E9004579E70000000014400000F03F5F
:1030A000300000000000F0430000E03F30380A2804
:1030B00001D20120704700207047000010B52DEDAF
:1030C000028B9FED088AF0EE480AFFF79DFEB5EEF1
:1030D000C00AF1EE10FA01DA30EE080ABDEC028BFC
:1030E00010BD0000DB0FC9402DE9FF4F95B09A4697
:1030F000884606460025EEE1252877D1002427469C
:10310000F94A0121039400E0044316F8013F203BF3
:1031100001FA03F01042F7D130782A2811D06FF06D
:103120002F033078A0F13002092A16D8039A44F010
:10313000020402EB820203EB42021044761C03906D
:10314000EFE758F8042B0392002A03DA504244F4C4
:103150000054039044F00204761C30782E2816D1D7
:1031600016F8010F44F004042A280DD06FF02F0246
:103170003078A0F13003092B09D807EB870302EB65
:103180004303C718761CF3E758F8047B761C3078A5
:103190006C280FD006DC4C2817D068280DD06A2880
:1031A00014D104E0742810D07A280FD10DE044F433
:1031B00000140AE044F4801401E044F440147278EE
:1031C000824202D104F58014761C761C3078662881
:1031D0000BD013DC582877D009DC002875D045289F
:1031E000F6D04628F4D047281AD193E118E0632896
:1031F00035D0642879D0652812D18BE1702873D03E
:1032000008DC6728F1D069286FD06E280DD06F28B0
:1032100006D1ACE073282CD0752874D0782853D010
:103220005246179990476D1C54E1C4F3025002288E
:1032300009D003280DD0D8F8001004280DD00D6057
:1032400008F1040846E1D8F80010EA17C1E9005275
:10325000F6E7D8F800100D80F2E70D70F0E718F8E7
:10326000041B8DF8001000208DF80100EB460120B2
:1032700003E058F804BB4FF0FF3061074FF0000146
:1032800002D40DE009F101018946B9420FDA814506
:10329000F8DB1BF809100029F4D108E009F101015D
:1032A00089468142FADB1BF809100029F6D1039800
:1032B0005346A0EB090721463846179A00F080FADA
:1032C000284400EB090507E044E008E10DE01BF8A5
:1032D000010B524617999047B9F10109F7D25346AD
:1032E00021463846179AF2E039E00A21C4F3025227
:1032F0004FF0000B0091022A06D058F8040BC117BA
:10330000032A09D00AE023E008F1070020F00702B1
:10331000F2E80201904605E000B2C117042A01D18B
:1033200040B2C117002906DA0A460021404261EB8B
:1033300002012D2202E0220504D52B228DF8042063
:10334000012203E0E20701D02022F7E7914657E08F
:103350000A2100E010214FF0000B00910BE010213A
:103360004FF0000B44F004040827009103E008200C
:103370004FF0000B0090C4F30252022A05D058F817
:10338000040B0021032A08D008E008F1070020F010
:103390000702F2E80201904603E080B2042A00D15D
:1033A000C0B24FF0000922072AD53278702A07D020
:1033B000DDF800C08CF0100C5CEA0B0C05D00EE0C0
:1033C00040228DF80420012208E050EA010306D0D3
:1033D00030238DF804308DF8052002229146009BA1
:1033E00083F0080353EA0B030AD150EA010201D12A
:1033F000620705D530228DF804204FF001097F1EA9
:103400003278582A04D039A20C920CAA02920BE00E
:103410003BA2F9E75B46009AFCF7D4FE0C9B9B5C51
:10342000029A521E0292137050EA0102F2D10298DF
:1034300004A9081A00F1200B600702D524F4803497
:1034400000E001275F4502DDA7EB0B0000E0002054
:1034500000EB0B01009003984944401A0390E003ED
:1034600006D453462146179A039800F0A9F905445B
:10347000002706E001A85246C05D179990476D1CD1
:103480007F1C4F45F6DBE0030CD553462146179AC7
:10349000039800F095F9054404E03020524617994E
:1034A00090476D1C0099481E00900029F5DC08E04B
:1034B0000298029952460078491C02911799904748
:1034C0006D1CBBF10001ABF1010BF1DC5BE100F025
:1034D00065F90544761C307800287FF40DAE19B0EC
:1034E0002846BDE8F08F0000092801003031323352
:1034F0003435363738396162636465660000000030
:103500003031323334353637383941424344454619
:1035100000000000600700D4062708F1070020F033
:103520000700F0E80223804603F0004C5FEA0C003D
:1035300001D097A009E0200501D596A005E0E0079D
:1035400001D095A001E0AFF24C001390307823F049
:10355000004365280CD006DC452809D046281DD03C
:1035600047287FD13BE0662818D067287AD136E01B
:103570000021112F01DB112000E0781CCDE90001B2
:1035800004A90CA8FFF7D0FCDDE90D010C9A4FF05F
:10359000000B07F10109109200914EE04FF000403E
:1035A0000097CDE9011004A90CA8FFF7BDFCDDE9E7
:1035B0000D020C9B0F994FF0000B91461093009257
:1035C00011B9791C00EB0109B7EB090003D4C0F174
:1035D000FF3B07F10109A9EB0700019042E0012F31
:1035E00000DA01270021112F01DD112000E038460B
:1035F000CDE9000104A90CA8FFF796FCDDE90D0157
:103600000C9A00914FF0000BB946109221070FD48D
:10361000009A4A4503DA914601E0A9F10109B9F19E
:10362000010F05DD109AA9F10101515C3029F4D098
:10363000B84202DA10F1040F03DA0121CDE90110DA
:1036400010E0002803DC8344A9EB000102E0411CE8
:10365000494500DD8946A0EB0B00401C01904FF06E
:1036600000400290200705D40198484502DB4FF046
:10367000FF30019000208DF84B0002980DF14B07B0
:10368000B0F1004F25D002200C902B200D90029815
:1036900000280CDA404202902D200D9007E00A210C
:1036A0000298FCF701FE3031029007F8011D0C99D9
:1036B000481E0C900029F2DC02980028EFD1791EF8
:1036C0000D980870307800F0200040F0450007F8B1
:1036D000020D11A8C01BC01D02901398007800B104
:1036E000012000EB0901019801EBE071029801440F
:1036F0000398401A401E0390E00306D45346214627
:10370000179A039800F05CF805441398007818B1F4
:103710005246179990476D1CE00323D55346214626
:10372000179A039800F04CF805441BE0BBF1000F1A
:1037300007DB0098584504DD1098179910F80B0026
:1037400001E0179930205246904701980BF1010B88
:10375000401E05F10105019004D12E205246179913
:1037600090476D1CB9F10001A9F10109DEDC05E00B
:1037700017F8010B5246179990476D1C0299481E85
:1037800002900029F4DC53462146179A03989EE6DE
:103790002D0000002B000000200000002DE9F0416A
:1037A000044600251E461746880404D405E0394621
:1037B0002020B0476D1C641EF9D52846BDE8F08175
:1037C0002DE9F041044600251E469046C80301D568
:1037D000302700E02027880404D505E0414638461C
:1037E000B0476D1C641EF9D52846BDE8F081000085
:1037F000F6EE000ADFED341AB0EE601A10EE100A91
:1038000000EE211A50EE210A2E4A60EE211A9FED99
:103810002F2A2F49BDEEC11AFDEEE00A904212DABE
:10382000F5EEC01AF1EE10FA02DB11EE100A01E01B
:1038300010EE900A51F8200000EE100AB8EEC00A0F
:1038400020EE020A704710EE100A224A90420CDA6B
:10385000F5EEC01AF1EE10FA02DB11EE100A01E0EB
:1038600010EE900AC0F5C770E4E710EE100A1A4A8D
:103870009FED1A0A904210DAF5EEC01AF1EE10FA36
:1038800002DB11EE100A01E010EE900A01EB80005D
:10389000A0F58050D0F8C8090DE0F5EEC01AF1EEA1
:1038A00010FA02DB11EE100A01E010EE900AC0F5EA
:1038B000477051F8200000EE900AF8EEE00A20EE82
:1038C000800A7047DB0FC93FE65FFD4217B7D1386A
:1038D000E4410008DB0F4940E4CB964017B7D1B86C
:1038E00010EE100A0349A1EB600000EE900A20EEF2
:1038F000200A7047865A375F10B504464FF0E02023
:103900002DED028B8169354ADFED350AB3EE051ADC
:1039100052F82400884201D9401A03E06FF07F4337
:103920005B1A184401EE900A42F82410F8EE611A6E
:1039300061EEA01AC1EE810AF5EEC00AF1EE10FAAE
:1039400004D010EE900AB0F17C5F01DDDFED250AB6
:103950002548264900EB840090ED002AD1ED031A9A
:1039600030EE421A21EEA03AF0EEC12AF4EEC32A5C
:10397000F1EE10FA1ADDB5EEC01AF1EE10FA02D22D
:103980004FF0FF3207E0B5EEC01AF1EE10FA01DD9C
:10399000012200E0002200EE102AB8EEC00A20EE5C
:1039A000210A00EE202A80ED002A01E080ED000AC5
:1039B00090ED000A91ED018A8868FFF7ADFAB0EE4C
:1039C000401A2046DFED0A0AB0EE480A00F08AFAF3
:1039D000B0EE480ABDEC028B10BD0000A003002031
:1039E000BD3786356F12833A640300203000002013
:1039F000000000002DE9F04F4D4889B00088000418
:103A000062D54C484C4C017848290CD006DC312951
:103A10005DD032296BD0332953D178E054293CD082
:103A200055294ED128E0A046E068FCF70EFC06467A
:103A30000F46D8F80800FCF708FC04460D46D8F8F5
:103A40000400FCF702FC82468B46D8F80000FCF725
:103A5000FCFB8046394889460068FCF7F6FB41ECE0
:103A6000100B04A953EC102B81E8F0008DE8000F37
:103A70003348FFF721F824E0401CFFF7A9F951EC87
:103A8000100BFCF7F5FB2D490860FCF7DEFB41EC61
:103A9000100B2CA053EC102B11E0401CFFF798F9F1
:103AA00051EC100BFCF7E4FB20606060A060E0606C
:103AB000FCF7CBFB41EC100B28A053EC102BFEF7CE
:103AC000FBFF1B480021018009B0BDE8F08F401CBE
:103AD000FFF77EF951EC100BFCF7CAFB6060FCF7B6
:103AE000B4FB41EC100B25A053EC102BE7E7401C76
:103AF000FFF76EF951EC100BFCF7BAFBA060FCF776
:103B0000A4FB41EC100B22A053EC102BD7E7401C78
:103B1000FFF75EF951EC100BFCF7AAFBE060FCF735
:103B200094FB41EC100B1FA053EC102BC7E70000D7
:103B3000140000201C02002000000020340000209F
:103B400044450008766F6C746167655F6C696D69E8
:103B5000743D252E34660D0A00000000414C4C20B7
:103B60007461726765743D252E34662020284D31BE
:103B70002F4D322F4D33290D0A0000004D31207496
:103B800061726765743D252E34660D0A00000000E1
:103B90004D32207461726765743D252E34660D0ABE
:103BA000000000004D33207461726765743D252E5E
:103BB00034660D0A0000000045F2082148434FF02A
:103BC000E021486100228A61086940F00100086133
:103BD0000869C30701D0C003FAD5086920F00100C5
:103BE00008618A617047000004490A681206FCD522
:103BF000024AC1B2121D116070470000004400402B
:103C000092B0FDF727FBFEF73DFCFEF72DFAFEF71D
:103C100013FCFEF7C9FAFEF7A7FAFEF7E5FAFEF77E
:103C200077FBFEF7BFFBFEF7FFFAFDF73FFC01460F
:103C300062A0FEF741FFFDF73FFC41006AA0FEF7DE
:103C40003BFFFDF749FC410070A0FEF735FFFEF792
:103C50006DFC4FF47A70FFF7AFFF7548B2EE080ABB
:103C6000764980ED000A7348B0EE040A754C80ED89
:103C7000000A7148B3EE040A012280ED000A032015
:103C800008706F490720086011462046FDF780F94B
:103C9000012202212046FDF77BF901220421204662
:103CA000FDF776F968A0FEF707FF00F029FA6B4CE4
:103CB000B7EE000A002184ED000A84ED010A84EDCC
:103CC000020A84ED030A6648FDF7B6FF0421644842
:103CD000FDF7B2FF08216248FDF7AEFF0021614801
:103CE000FDF7AAFF04215F48FDF7A6FF08215D4804
:103CF000FDF7A2FFDFF870B1DBF80000C8284BD356
:103D0000002501215948CBF80050FDF739F9206909
:103D1000401C206105283FD3464825610068FCF718
:103D200094FA0746524888468068FCF78EFA814626
:103D30004F488A464068FCF788FA05464C480E46CC
:103D40000068FCF782FA41EC100B4A48CDE9107884
:103D500000684849091F0A68091F0968CDF82890BA
:103D6000CDE90D204448CDE90BA10168001F006892
:103D7000414A083A12680495CDE907013F48CDE968
:103D80000562C16B826B406BCDE90002029153EC7E
:103D9000102B3B48FEF790FE002094ED010A00F046
:103DA00071F8012094ED020A00F06CF8022094ED05
:103DB000030A00F067F8FFF71DFE9DE70D0A2D2DA1
:103DC0002D2053544D333246343037205379737499
:103DD000656D20436C6F636B3A20256C6420487AD4
:103DE000202D2D2D0D0A00002D2D2D20415042316A
:103DF0002054696D657220436C6F636B3A20256CAB
:103E00006420487A202D2D2D0D0A00002D2D2D2007
:103E1000415042322054696D657220436C6F636B70
:103E20003A20256C6420487A202D2D2D0D0A0000A3
:103E300030000020340000203C0000202C00002036
:103E400038000020000C024033206D6F746F7273D5
:103E50002072656164792E0D0A00000000000020C8
:103E60008C010020D401002018000020001802401E
:103E7000640300203C0800403C0400400000014076
:103E8000AC46000810B512492DED028B0A78114995
:103E90009FED118A01EBC004032A10D0042A0BD134
:103EA0000E4901EB800181ED000AFFF725FD00BFFF
:103EB00084ED010A84ED008ABDEC028B10BD084937
:103EC00001EB800181ED000A00F026F9F0E7000027
:103ED0002C00002088030020000000007C0300204C
:103EE0007003002070B57C4C05462DED068BF0EE7E
:103EF000608AF0EE419AF5EEC08AB0EE408AF1EEAB
:103F000010FA12D028EEA80A08EE080AFFF7E8FC1B
:103F1000D4ED000A80EE209AF0EE680AB0EE480A6E
:103F2000FEF7FEFD30EE290A07E094ED000A88EE68
:103F3000009A9FED6A0A39EE800AFFF7BFF8F0EEAB
:103F4000408ADFED679AB7EE00AAF0EE680A88EEC5
:103F5000A90A30EE0A0ABCEEC00A10EE104A00EEC2
:103F6000104AB8EE400A50EE290AB0EE600AFFF798
:103F70003FFCDFED5CAA20EE2A0A20EE098A00EE63
:103F8000104AB8EE400A70EE4A0AB0EE680A00EE37
:103F9000E90AFFF72DFC20EE2A0AB6EE001A072CDC
:103FA00060EE091A3AEE480A30EE612A3AD2DFE8AA
:103FB00004F039040B161D27300078EE210AB0EE0C
:103FC000610A42EE010A05E0F0EE480A38EE210AE5
:103FD00042EE010A62EE011A02EE010A28E038EE12
:103FE000210A62EE010A02EE010A06E0B0EE480A7A
:103FF00062EE010A02EE010A08E042EE011A17E041
:10400000F0EE610A22EE010A42EE010A78EE211A70
:10401000F3E778EE210A22EE010AF0EE481A42EEAA
:10402000010AEAE79FED300AF0EE400AF0EE401A8E
:1040300005B39FED2E1A012D35D0022D17D160EE5C
:10404000810A2B49FCEEE00A10EE900A086020EE8F
:10405000010A091DBCEEC00A10EE100A086021EE2C
:10406000810A091DBCEEC00A10EE100A0860BDEC02
:10407000068B70BD9FED1F1A1F4860EE810AFCEE93
:10408000E00A10EE901A416320EE010ABCEEC00A6D
:1040900010EE101A816321EE810ABCEEC00A10EE08
:1040A000101AC163E3E760EE810A1449FCEEE00AEE
:1040B00010EE900A086020EE010A091DBCEEC00A4D
:1040C00010EE100A086021EE810A091DBCEEC00A3C
:1040D00010EE100ACAE7000030000020DB0FC93FD5
:1040E000920A863FD7B3DD3F000000000000D244B3
:1040F00034080040000052450000014034040040F4
:104100004FF0E020034941610021816101210161FB
:1041100070470000FEFFFF0070B504464FF0E0203E
:104120002DED028BB0EE401A8169224ADFED220AA2
:10413000B3EE050A52F82400884201D9401A03E080
:104140006FF07F435B1A184401EE900A42F8241086
:10415000F8EE611A61EEA01AC1EE800AF5EEC00A0F
:10416000F1EE10FA04D010EE900AB0F17C5F01DDA0
:10417000DFED120A124800EB840595ED000A01EE0E
:10418000200AFEF79BFF0F4885ED000A90ED018A9B
:104190008068FEF7C1FEB0EE401A2046DFED0A0A45
:1041A000B0EE480AFFF79EFEB0EE480ABDEC028B67
:1041B00070BD0000A0030020BD3786356F12833A22
:1041C0006403002030000020000000000000000018
:1041D00000000000010203040607080900000000B7
:1041E00001020304000000004F0000009E000000D8
:1041F000ED0000003C0100008B010000D90100002F
:104200002802000077020000C6020000150300002B
:1042100063030000B2030000000400004F0400002C
:104220009D040000EC0400003A0500008805000031
:10423000D60500002406000072060000C00600003B
:104240000E0700005B070000A9070000F60700004A
:104250004308000090080000DD0800002A09000063
:1042600077090000C30900000F0A00005C0A000083
:10427000A80A0000F40A00003F0B00008B0B0000AE
:10428000D60B0000210C00006C0C0000B70C0000E5
:10429000010D00004C0D0000960D0000E00D000027
:1042A000290E0000730E0000BC0E0000050F000078
:1042B0004E0F0000960F0000DF0F000027100000D7
:1042C0006E100000B6100000FD1000004411000048
:1042D0008B110000D1110000171200005D120000C8
:1042E000A2120000E81200002D130000711300005C
:1042F000B6130000F91300003D1400008114000003
:10430000C414000006150000491500008B150000BC
:10431000CC1500000E1600004F1600008F1600008E
:10432000CF1600000F1700004F1700008E17000077
:10433000CD1700000B180000491800008718000076
:10434000C4180000011900003D190000791900008F
:10435000B5190000F01900002B1A0000661A0000C1
:104360009F1A0000D91A0000121B00004B1B00000E
:10437000831B0000BB1B0000F21B0000291C000077
:10438000601C0000961C0000CB1C0000001D0000FB
:10439000351D0000691D00009D1D0000D01D00009E
:1043A000031E0000351E0000671E0000981E00005E
:1043B000C91E0000FA1E0000291F0000591F00003E
:1043C000881F0000B61F0000E41F0000112000003D
:1043D0003E2000006A20000096200000C12000005E
:1043E000EC2000001621000040210000692100009F
:1043F00092210000BA210000E12100000822000003
:104400002F220000552200007A2200009F22000087
:10441000C3220000E72200000A2300002D23000031
:104420004F2300007023000091230000B2230000FE
:10443000D1230000F12300000F2400002D240000F0
:104440004B2400006824000084240000A024000005
:10445000BB240000D5240000EF2400000925000043
:10446000222500003A2500005225000069250000A1
:104470007F25000095250000AA250000BF2500002B
:10448000D3250000E6250000F92500000B260000DA
:104490001D2600002E2600003E2600004E260000AD
:1044A0005D2600006C2600007A26000087260000AA
:1044B00094260000A0260000AB260000B6260000CF
:1044C000C0260000CA260000D3260000DB2600001C
:1044D000E3260000EA260000F1260000F72600008F
:1044E000FC26000001270000052700000827000027
:1044F0000B2700000D2700000F27000010270000E9
:1045000010270000DDDDDDDDDCBBBBDDDDDDDDDD5D
:10451000DDDDDDDD988888888888888877777777FB
:1045200077888888855555566666666666666666C7
:104530006668888883333332222222222222222272
:104540002228888D2D2D2D2053696D706C65464F66
:104550004320332D4D6F746F7220436F6E74726FF2
:104560006C202D2D2D0D0A482020202020202020D9
:10457000202048656C700D0A553C76616C3E202009
:1045800020202053657420766F6C746167655F6CC2
:10459000696D69742028616C6C206D6F746F727323
:1045A00029205B637572723D252E32665D0D0A54BB
:1045B0003C76616C3E20202020205365742074617D
:1045C0007267657420666F7220414C4C206D6F7469
:1045D0006F7273202020205B637572723D252E322E
:1045E000665D0D0A313C76616C3E20202020205310
:1045F00065742074617267657420666F72204D3136
:104600002020202020202020202020205B63757285
:10461000723D252E32665D0D0A323C76616C3E207D
:1046200020202020536574207461726765742066B1
:104630006F72204D3220202020202020202020209A
:10464000205B637572723D252E32665D0D0A333C28
:1046500076616C3E202020202053657420746172A6
:1046600067657420666F72204D3320202020202043
:104670002020202020205B637572723D252E32663B
:104680005D0D0A4578616D706C653A2054362E32A6
:104690003820206F72202031322E3520206F72207A
:1046A00020332D332E31340D0A0000004D313A25D0
:1046B0002E33665B256C7520256C7520256C755D29
:1046C00020204D323A252E33665B256C7520256CF3
:1046D0007520256C755D20204D333A252E33665BA1
:1046E000256C7520256C7520256C755D2020567114
:1046F0003D252E32660D0A001847000800000020F4
:1047000048000000EC2E0008604700084800002028
:1047100068070000FC2E00080000000000000000F8
:104720000000000000000000000000000000000089
:104730000000000001000000100000000000000068
:104740000024F40000000000000000000000000051
:104750000000000000000000000000000000000059
:040000050800018965
:00000001FF
