:020000040800F2
:10000000A80E0020A1010008AD530008692A0008CD
:10001000D1400008F5120008195E00080000000039
:10002000000000000000000000000000B1560008C1
:10003000F712000800000000555500082957000875
:10004000BB010008BB010008BB010008BB010008A0
:10005000BB010008BB010008BB010008BB01000890
:10006000BB010008BB010008BB010008BB01000880
:10007000BB010008BB010008BB010008BB01000870
:10008000BB010008BB010008BB010008BB01000860
:10009000BB010008BB010008BB010008BB01000850
:1000A000BB010008BB010008BB010008BB01000840
:1000B000BB010008BB010008BB010008BB01000830
:1000C000BB010008BB010008BB010008BB01000820
:1000D000BB010008555D0008695D0008BB01000810
:1000E000BB010008BB010008BB010008BB01000800
:1000F000BB010008BB010008BB010008BB010008F0
:10010000BB010008BB010008BB010008BB010008DF
:10011000BB010008BB010008755800089958000889
:10012000BB010008BB010008BB010008BB010008BF
:10013000BB010008BB010008BB010008BB010008AF
:10014000BB010008BB010008BB010008BB0100089F
:10015000BB010008BB010008BB010008BB0100088F
:10016000BB010008BB010008BB010008BB0100087F
:10017000BB010008BB010008BB0100080000000033
:10018000BB010008BB010008DFF810D000F03CFE06
:1001900000480047D58D0008AFF30080A80E00206E
:1001A0000648804706480047FEE7FEE7FEE7FEE711
:1001B000FEE7FEE7FEE7FEE7FEE7FEE7C5570008BD
:1001C000890100082DE9F05F0546002092469B4614
:1001D00088460646814640241BE02846414647465D
:1001E000224600F014FB53465A46C01A914110D3E0
:1001F00011461846224600F0FBFA2D1A67EB01085B
:100200004F4622460120002100F0F2FA17EB0009C8
:100210004E41201EA4F10104DFDC484631462A4647
:100220004346BDE8F09FD2B201E000F8012B491E21
:10023000FBD270470022F6E710B513460A46044683
:100240001946FFF7F0FF204610BD30B505460020E7
:10025000034600E05B1C934205D2EC5CC85C201AAC
:1002600001D1002CF6D130BD0FB400B58DB010A96E
:1002700009900B9000914FF0FF300A9000200C90F5
:1002800005480690054807906A4609A80F9900F0AE
:10029000E3FA0DB05DF814FB750800089308000838
:1002A0002DE9FF5F1D464FF0FF3BD5E90146914622
:1002B0005F464FF00008A9697F1C01988847296AAA
:1002C000824688470028F6D1BAF1FF3F0CD024F4CB
:1002D000C064002E19DD600614D5BAF12B0F09D0C9
:1002E000BAF12D0F0ED103E0584604B0BDE8F09FDF
:1002F00044F48064A9697F1C01988847761E824671
:10030000002E02DDBAF1300F03D0B9F1000F26D074
:1003100032E0A969761E44F400747F1C0198884776
:100320008246002E05DDBAF1780F06D0BAF1580FDB
:1003300003D0B9F1000F10D01EE0B9F1000F02D0C8
:10034000B9F1100F18D1A969761E24F400747F1C2E
:10035000019888478246102002E0082000E00A2029
:10036000814609E008FB0908A969761E44F4007477
:100370007F1C019888478246002E05DD494650467D
:1003800000F055FA0028EDDAE96901988847A005E0
:1003900002D46FF00100A8E7E00725D1600613D56D
:1003A000600502D5C8F1000000E0404629680A1D3A
:1003B0002A600968220501D5087015E0220701D5D9
:1003C000088011E008600FE02868011D29600068BE
:1003D000210502D580F8008006E0210702D5A0F8AB
:1003E000008001E0C0F8008038467EE72DE9FF4F2D
:1003F000087883B09946FF2805D0491C2D2804D0E1
:100400000024002008E000200BE00124F9E700EBC5
:10041000800003EB4000491C0B78FF2BF7D104B19F
:10042000404200230293147819461D462D2C01D01A
:100430002B2C04D1521C2D2C13D000240294AA463C
:100440001478FF2C0FD00A25A3FB057801FB05814A
:100450004FF0000C03FB0C11521CE3194AEB010195
:10046000EEE70124EAE7814453EA010002D019F5DE
:10047000C87F06DA03980021C0E9001107B0BDE883
:10048000F08F0025AE4E2F46DFF8B882184600F0F8
:100490007FFCCDE90001B9F1000002DAC9F10004E6
:1004A00000E004460023A74A1AEB030B42EB045A70
:1004B00012E0E00707D02A4633463846414600F0AE
:1004C00086FB074688462A4633461046194600F002
:1004D0007EFB05460E466410002CEAD1DDE90001E2
:1004E000B9F1000F5A46534606DA00F0E2FB3A46ED
:1004F000434600F0DEFB05E000F069FB3A46434668
:1005000000F065FB029A0AB181F00041039AC2E94A
:100510000001B3E72DE9FF4F1F468DB0D7E9014633
:100520004FF0FF382E2045464FF000090B90B96977
:100530006D1C0E988847396A824688470028F6D194
:10054000BAF1FF3F0AD024F4D064002E11DDBAF1D5
:100550002B0F08D0BAF12D0F0BD102E0404611B09D
:100560008DE744F48064B9696D1C0E988847824613
:10057000761E6946600501D52D2000E02B208DF800
:10058000000001F1010B0DF1200809E0B9696D1CB3
:100590000E98884782460F9844F40074761E0560D2
:1005A000002E02DDBAF1300FF0D00B998A453ED112
:1005B00044F0800406E00F99681CA9F1010944F495
:1005C00000740860B9696D1C761E0E9888478246D3
:1005D0003028F0D02BE00B998A4505D1200603D4B2
:1005E00044F08004761E18E0504606F04DF908B33A
:1005F0000DF11301761E44F400748B4508D2AAF164
:1006000030000BF8010B200607D5A9F1010003E02B
:10061000200602D409F101008146A00502D50F99F8
:10062000681C0860B9696D1C0E9888478246002EC8
:10063000D1DC53E0002E51DDBAF1650F02D0BAF1E2
:10064000450F4BD1A00549D5B9696D1C24F4407400
:10065000761E0E9888478246002E0CDD2B2804D08B
:10066000BAF12D0F07D144F48074B9696D1C0E984E
:1006700088478246761EE00501D52D2100E02B211A
:1006800008F8011BCDF82C8021E00DF12901761E20
:1006900044F4007488450CD2AAF1300010F0FF0039
:1006A00088F8000002D10B99884509D908F10108A2
:1006B00006E0E00501D5244801E042F20F708146D2
:1006C000B9696D1C0E98884782460F980560002E08
:1006D00004DD504606F0D8F80028D6D1F9690E9806
:1006E0008847FF208BF8000088F800000020069063
:1006F00007904B466A4608A906A8FFF777FEA005B3
:1007000002D46FF001002AE714F0240F0AD0E007AA
:1007100014D1DDE906123868031D3B600068C0E9AA
:1007200000120BE0DDE9060100F030F80146E007B9
:1007300004D13868021D3A600068016028460EE75F
:10074000000014400000F03FF1D8FFFF70B50646EE
:1007500005F098FB046805460A220021304600F0A7
:10076000F7F82C6070BD00F0004230F000400AD075
:10077000C10D01F56071C0F3160042EA0151C208D3
:1007800040071143704700200146704701F00043C5
:1007900030B421F0004150EA010206D00A0DA2F562
:1007A0006072C1F31301002A02DC30BC00207047E4
:1007B000440F44EAC104C100E01830BC00EBC25051
:1007C00000F0FEB830B50B4601460020202201247F
:1007D00009E021FA02F59D4205D303FA02F5491B0F
:1007E00004FA02F52844151EA2F10102F1DC30BD25
:1007F000202A04DB203A00FA02F1002070479140E1
:10080000C2F1200320FA03F3194390407047202AD5
:1008100004DB203A21FA02F00021704721FA02F3AA
:10082000D040C2F1200291400843194670473A284F
:1008300000D2303820F02002412A01D3A2F1370043
:10084000884201D34FF0FF30704700000268114426
:100850001378016018467047D1600449516104491A
:10086000116200211161114600F000BB4D08000823
:10087000590E0008426842B1016811F8013B23B1EA
:10088000521EC0E90012184670470121C160881E3F
:10089000704742685AB1C368016843B983688B42A4
:1008A00005D0491E521CC0E90012002070474FF0CD
:1008B000FF3070470FB4002300B589B00CA9009138
:1008C0000B996FF00042CB601E4B06931E4B0793B3
:1008D0000423CDE901321D4A089202466B460020EE
:1008E000FFF718FE09B05DF814FB70B586B0064638
:1008F0004FF0FF300091CDE90101002015460C4674
:1009000004903246694604A8FFF7D4FF02460498D3
:10091000211825B108B1084600E020462860049857
:1009200000280DD0002A02DD0098884208D0081B5C
:100930000094CDE901043246694604A8FFF7BAFFE6
:1009400006B070BD7508000893080008590E00082D
:100950002DE9F04791460F4680460446002614F8DC
:10096000015B2DB100F074FA0068405DC007F6D15C
:100970002B2D02D02D2D18D0641E4A463946204614
:1009800000F00CFC27B13968A14201D1C7F8008002
:1009900071054FF002040BD54042002803DD05F03D
:1009A00071FA0460A007BDE8F08746F48066E4E7CA
:1009B0000028F8DA05F066FA04606FF00040F2E70C
:1009C0000029A8BF7047401C490008BF20F0010063
:1009D000704710B4B0FA80FC00FA0CF050EA010441
:1009E00004BF10BC704749B1CCF1200421FA04F4D3
:1009F00011FA0CF118BF012121430843A3EB0C01AC
:100A0000CB1D4FEA00614FEA102042BF002010BC0E
:100A1000704700EBC35010440029A4BF10BC7047BE
:100A2000401C490008BF20F0010010BC7047F0B422
:100A300000F0004221F0004120F00040CE0DC30D37
:100A4000C1F3160141F40001C0F316004C421546F3
:100A500040F40000761E09E010EB440002D582F05D
:100A6000004240428842F7D840005B1EB342F9DAA8
:100A700018B1F0BC0021FFF7ACBF2846F0BC7047AE
:100A80002DE9FE4F804681EA0300C00F0C4600901E
:100A900021F0004123F00045B8EB0200A94105D246
:100AA0004046214690461C460B46024623F0004035
:100AB000104347D0270DC7F30A00C3F30A51029031
:100AC000401A019040286BDAC3F3130040F4801BF6
:100AD0000098924620B10023D2EB030A63EB0B0B84
:100AE00001985946C0F140025046FFF781FE064684
:100AF0000D4650465946019A00F098F910EB08004F
:100B00006141002487EA115284EAE7731A4340D016
:100B1000009A62B3019A012A4FEA075215DC001BC2
:100B200061EB02014FF0004202EA0752CDE90042B8
:100B3000001C41F5801132462B4600F08DFB03B0BE
:100B4000BDE8F08F40462146F9E7001B61EB02014A
:100B5000001C41F5801300185B412018A2F5001716
:100B600047EB030140EAD570B6196D4111E06D08FD
:100B70004FEA360645EAC0754FEA0752001B61EBA3
:100B80000201001C41F5801149084FEA30000019AC
:100B9000514132462B4603B0BDE8F04F00F04DBB4B
:100BA0000098012240000023D0EB020263EBE073C7
:100BB000009821464FEAE074B8EB000061EB0401B5
:100BC000E9E783F000435BE781F0004158E72DE956
:100BD000FE4F81EA030404F0004421F00041009438
:100BE0004FF0000B23F0004350EA01045ED052EABC
:100BF00003045BD0C3F30A54C1F30A552C44A4F296
:100C0000F3340194A0FB0254C1F3130141F48011A9
:100C1000C3F3130343F4801301FB024400FB034EB0
:100C2000840A970A44EA815447EA8357A4FB076879
:100C300002958D0A05FB07854FEA932C04FB0C54A3
:100C40002705029D4FEA065847EA1637B5EB080517
:100C50006EEB070C870E920E47EA811742EA831269
:100C6000A7FB0201B6EB0B0164EB00042B0D43EA7A
:100C70000C335E1844EB1C50DA465146E7FB020188
:100C8000C5F313044FEA0B3343EA14534FEA04321B
:100C9000019C43EA0603A4F10C040294009CCDE9F4
:100CA00000B400F0D9FA03B0BDE8F08F002001468F
:100CB000F9E72DE9F04D81EA030404F0004B21F03F
:100CC000004514464FF0000A23F0004150EA0502A7
:100CD00020D054EA01021DD0C5F30A570246C5F3DD
:100CE0001303C1F31300C1F30A5640F4801543F413
:100CF0008013A7EB0608101BD64608F2FD3873EBED
:100D0000050002D308F1010801E092185B41B8F137
:100D1000000F03DA00200146BDE8F08D00204FF4FB
:100D20008011064684460EE0171B73EB050705D3BA
:100D3000121B63EB050306434CEA010C49084FEA1A
:100D4000300092185B4150EA0107EDD152EA0300EE
:100D500012D082EA040083EA0501084305D0101B83
:100D6000AB4106D20122002306E000224FF00043EF
:100D700002E06FF0010253101AEB06004CEB085131
:100D800010EB0A0041EB0B01BDE8F04D00F055BA45
:100D90000EB540F2334202920022CDE90022134602
:100DA00000F05AFA03B000BDC1F30A52C1F31301B7
:100DB00040F2FF3341F480119A4202DA00200146EA
:100DC000704740F233439A42A2F2334202DC52426D
:100DD000FFF71DBDFFF70CBD30B5041E71F1000417
:100DE00004DB4FF00044404264EB0101141E73F138
:100DF000000405DB1C464FF00043524263EB040342
:100E0000994208BF904230BD064C074D06E0E068AD
:100E100040F0010394E8070098471034AC42F6D341
:100E2000FFF7B6F930B2000850B20008202A06DBFE
:100E3000CB17203A41FA02F043EAE07306E041FAA8
:100E400002F3D040C2F12002914008431946704796
:100E500000487047EC9F000810B50446FFF7F8FF04
:100E60000068005D00F0010010BD00002DE9F34FA7
:100E70008BB04FF0000801F10C000C464FF0010B55
:100E800046460DF1080A01906269012101989047D8
:100E9000051E2DD0252D2CD0216A8847C0B162694E
:100EA000012101989047216A88470028F7D1411E07
:100EB00062690198904700E0761CA1690B98884709
:100EC000216A88470028F7D1E1690B988847DBE75A
:100ED000A1690B9888470746A84201D1761CD3E741
:100EE000E1690B9888477F1C02D1B8F1000F6FD0E1
:100EF00047E1002762693D463946019890472A2814
:100F000004D162690121019890470125DFF8889298
:100F10006269012101989047A0F130010A290AD2A3
:100F20004F45E5DC07EB870100EB4107303FDFD49D
:100F300045F01005ECE7E90601D46FF000476C2896
:100F40000AD04C2814D0682815D06A280DD07428EF
:100F50001CD07A281AD01DE06269012101989047BF
:100F60006C2802D045F0040514E045F002050DE0C0
:100F700045F020050AE06269012101989047682840
:100F800002D045F0080505E045F4006562690121DD
:100F900001989047C4E9015765283DD019DC5828CD
:100FA0007AD00CDC452837D004DC252826D041280F
:100FB00031D131E046282FD047282CD12CE05B28B6
:100FC00077D0612828D063287CD0642823D15AE0C8
:100FD000D1E06F2848D008DC66281DD067281BD0D8
:100FE000692821D06E2816D127E0702845D07328B3
:100FF00068D0752847D078280DD14DE0A1690B98AD
:101000008847054625283FF469AFE1690B98884772
:101010006D1C3FF46AAFB4E023466A466FF00100EE
:101020000B99FFF777FA9FE045F040006060A80752
:1010300023464FF0000236D43EE0E8077FF447AF86
:101040002068011D21600068290501D506701BE795
:10105000290701D5068017E7A90703D5F117C0E9CD
:10106000006111E706600FE745F040006060A807E7
:1010700023464FF0080216D41EE040F60E0125EA82
:101080000100606016E045F040006060A80723465C
:101090004FF00A0207D40FE045F040006060A80757
:1010A00008D5234610226FF001000B99AFF30080A2
:1010B0005AE007E0234610226FF001000B99FFF77A
:1010C000EFF851E04FF000094F464B46632802D03D
:1010D0005B2807D041E02079C00601D40120A06040
:1010E00001273AE062690121019890475E2805D105
:1010F0004FF001096269494601989047216939B961
:1011000000210A46534643F82120491C0829FADBEE
:10111000B0B3216969B9C11700EBD16253110AEB71
:10112000830122F01F02821A01200B6890400343C2
:101130000B6062690121019890475D28E8D1B9F1FF
:10114000000F09D00020514651F82020D24341F829
:101150002020401C0828F7DB02AB224600976FF0E6
:1011600001000B99AFF3008000280CDA401C08D175
:10117000BBF1000F05D04FF0FF300DB0BDE8F08F90
:10118000FFE74046F9E7E90701D108F10108064405
:101190004FF0000B78E60000CCCCCC0C2DE9F05FD2
:1011A00082460078002715468B460AF10104B946AD
:1011B000302801D09DB113E014F8010B01277828E5
:1011C00003D0582801D045B10AE00DB1102D07D148
:1011D0000027102514F8010B02E0082500E00A257D
:1011E0000026B0460EE005FB080005FB06F10127CE
:1011F00001EB10461FFA80F8B6F5803F00D3B946E0
:1012000014F8010B2946FFF712FB0028EBDABBF1BB
:10121000000F05D00FB1641E00E05446CBF800402B
:10122000B9F1000F06D004F02DFE02210160C81EA6
:10123000BDE8F09F48EA0640FAE710B5141E73F1C6
:10124000000408DA401C41F1000192185B411A4386
:1012500001D120F0010010BD2DE9F04D92469B46D2
:1012600011B1B1FA81F202E0B0FA80F22032904678
:10127000FFF7BEFA04460F4640EA0A0041EA0B01B6
:1012800053465A46084313D0114653EA010019D079
:10129000C8F140025046FFF7BAFA05460E465046DE
:1012A00059464246FFF7A4FA084305D0012004E05E
:1012B00020463946BDE8F08D0020054346EAE07639
:1012C0002C4337430A986305E40AA0EB0800002288
:1012D000FD0A44EA47540A3002D500200146E9E7F6
:1012E000010510196941DDE9084500196941BDE8AA
:1012F000F04DA2E7FEE77047AFF300800B4628B140
:10130000012807D0022809D001207047114618464D
:1013100007F0DEBB1146184607F022BC11461846FE
:1013200007F060BC72B6FEE72DE9F0410446876D18
:1013300000F050F9054694F835000026022806D042
:101340008020606584F834600120BDE8F081206869
:10135000016821F0160101602068416921F08001D7
:101360004161206C08B9A06C20B12068016821F0AF
:10137000080101602068016821F0010101600CE0B2
:1013800000F028F9401B052807D9202060650320BC
:1013900084F8350084F83460D7E720680068C00717
:1013A000EED194F85C103F208840B860012084F8AA
:1013B000350084F834600020C7E790F83510022922
:1013C00003D08021416501207047052180F8351048
:1013D0000068016821F001010160002070470000F1
:1013E0002DE9F84FDFF89C910022A9F1040B0327A7
:1013F0004FF00F0C09F1040AABF1040E01250B6844
:1014000095402B40AB426ED10C7904F00304012CC3
:1014100001D0022C15D18668540007FA04F826EA98
:101420000806D1F80C8008FA04F848EA0608C0F863
:1014300008804468AC430D79C5F3001595402543F9
:1014400045600C79E443A40708D0C568540007FA46
:1014500004F6B5438E68A6402E43C6600C7904F0AE
:101460000304022C11D1D40800EB8406356A54071A
:10147000E40E0CFA04F825EA0805D1F8108008FA01
:1014800004F848EA0508C6F820800568540007FA01
:1014900004F6B5430E7906F00306A6402E43066017
:1014A0004C6814F4403F66D0374C256845F48045BD
:1014B0002560246822F0030504F480440094334C32
:1014C00005EB0408D8F808589407260F0CFA06F420
:1014D000A5432F4CA04201D1002424E02D4CA04272
:1014E00002D101241FE046E02B4CA04201D102248E
:1014F00019E02A4CA04201D1032414E0284CA04258
:1015000001D104240FE0274CA04201D105240AE0B8
:10151000254CA04201D1062405E0244CA04201D173
:10152000072400E00824B4402C43C8F80848D9F840
:1015300000404D464E689C43F60200D51C432C608B
:10154000DAF8004055464E689C43B60200D51C436D
:101550002C60DBF800405D464E689C43B60300D526
:101560001C432C60DEF8004075464E689C43F60331
:1015700000D51C432C60521C102AFFF43FAFBDE87D
:10158000F88F0000083C0140443802400030014020
:10159000000002400004024000080240000C02402B
:1015A000001002400014024000180240001C0240DB
:1015B0000069084000D001207047426921EA020317
:1015C0000A4043EA0241816170470AB18161704774
:1015D0000904FBE7014880687047000040000020D4
:1015E00070B5040025D094F83D00002520B984F89A
:1015F0003C50204600F070FA242084F83D0020681A
:10160000016821F0010101602068016841F4004196
:1016100001602068016821F40041016000F022FCB3
:101620004D4B6168994201D84C4900E04C498842D1
:1016300001D2012070BD4B492268B0FBF1F1566820
:1016400026F03F060E43566062689A4206D94FF470
:10165000967251434FF47A72B1FBF2F12268491C41
:10166000166A26F03F06314311626168994210D82C
:101670004900401EB0FBF1F2521CC2F30B02042AD7
:1016800001D2042022E0B0FBF1F0401CC0F30B00BB
:101690001CE0A268F2B301EBC10303EB0116431E89
:1016A000B3FBF6F35B1C43F480431B0549D092B3B4
:1016B00001EBC10202EB0111401EB0FBF1F0401C36
:1016C000C0F30B0040F4804040F400402168CA6938
:1016D0004CF6FF739A431043C861D4E907100143E5
:1016E0002068026822F0C00211430160D4E90301BE
:1016F00001432068826848F2FF339A4311438160B6
:10170000D4E9051001432068C26822F0FF021143AA
:10171000C16001E00EE016E02068016841F00101BF
:1017200001602564202084F83D00256384F83E5044
:10173000002070BD01EB4106431EB3FBF6F35B1CBA
:10174000B3E70120C2E701EB4101401EB0FBF1F01D
:10175000401CC0F30B00B7E7A086010080841E0088
:1017600000093D0040420F002DE9FF4F81B01F46A8
:1017700093460446FFF72EFF054694F83D000026E9
:1017800020287DD11923012250492046009501F0DF
:1017900001FA002874D194F83C00012870D001208F
:1017A00084F83C0020680168C90703D1016841F052
:1017B000010101602068016821F4006101602420BA
:1017C00084F83D004FF0000AC4F840A04048E062B1
:1017D0004FF020092068016841F4807101603B46A8
:1017E00000224FF001112046009501F0D3F950B1CD
:1017F00020680068C00502D54FF400702064032003
:1018000005B0BDE8F08F0298216800F0FE00086185
:10181000FFF7E0FE0546206841694069C1F34001D9
:10182000C0F380204FF0A0080EE0FFF7D3FE401B6E
:10183000B84200D80FB984F83D80206841694069FA
:10184000C1F34001C0F3802094F83D20A02A02D0CB
:1018500009B90028E9D084F83D9020684169C9435E
:10186000890717D4016841F4007101602068564669
:10187000416980691923012214492046009500E03E
:1018800022E001F087F9A8B984F83D9084F83C6023
:101890000020B5E7016841F40071016021686FF430
:1018A000806048611923012208492046009501F013
:1018B00071F908B10120A3E7761C5E458AD384F84C
:1018C0003D9084F83CA0F5E7022099E70200100063
:1018D0000000FFFF2DE9FF4F83B09A46DDE9118735
:1018E00093460446DDF84090FFF774FE054694F8F1
:1018F0003D00202870D1192301227449204600950B
:1019000001F048F90028F5D194F83C00012863D093
:10191000012084F83C0020680168C90703D10168F0
:1019200041F0010101602068016821F4006101605B
:10193000222084F83D00402084F83E0000262664E2
:10194000C4F82490A4F82A80608D20856048E06265
:10195000CDE9007553465A462046049901F09CF89B
:10196000002879D1208DD0B1012821D0022820680B
:1019700024D0416980690090208D032866D8012811
:101980002BD0544902283B464FF00002009557D017
:101990008846204601F0FEF800285DD13AE0206834
:1019A000416981690091016841F4007101607DE045
:1019B0002068016821F480610160F0E7016821F48A
:1019C000806101602068016841F400610160206865
:1019D00041698069009069E075E02A4639462046F1
:1019E00001F079F988BB54E02068016841F4007186
:1019F000016020680069616A0870606A401C60626A
:101A0000218D491E2185618D491E618521680969E5
:101A1000017042E02068016821F480610160206863
:101A20000069616A0870606A401C6062208D401E17
:101A30002085608D401E60853B4600224146009512
:101A4000204601F0A7F800B9CEE705E02A4639465E
:101A5000204601F040F918B1012007B0BDE8F08F31
:101A600020680069616A0870606A401C6062208DAD
:101A7000401E81B22185608D401E608520684269CC
:101A8000D243520712D4032903D1016821F48061A3
:101A9000016020680069616A0870606A401C6062C9
:101AA000208D401E2085608D401E6085208D002881
:101AB0007FF462AF202084F83D0084F83E6084F813
:101AC0003C600020C9E70220C7E7000002001000C8
:101AD0000000FFFF040001002DE9F04186B004463C
:101AE00014216846FEF7A6FB21683A4C384B39486A
:101AF00012220126032504271034994218D10168C7
:101B000041F0020101600068694600F002000590A2
:101B1000C0208DE84500CDE903572F48FFF760FC52
:101B2000206840F400102060206800F400101AE0E3
:101B30002A4B99421BD1016841F0200101600068E5
:101B4000CDE9005200F02000CDE90470CDE9026536
:101B500069462348FFF744FC206840F48000206079
:101B6000206800F48000059006B0BDE8F0811D4BB0
:101B70009942F9D1016841F004010160016801F066
:101B800004010591016841F0010101600068CDE99F
:101B9000026500F0010005905815CDE9000290465D
:101BA000694604971048FFF71BFC4FF48070CDE99D
:101BB0000008CDE90265694604970C48FFF710FC60
:101BC000206840F400002060206800F40000CAE7AC
:101BD00000540040303802400004024000580040E9
:101BE00000140240005C0040000802400000024077
:101BF00002488168027811448160704740000020EB
:101C00000B4810B5016841F400710160016841F4AE
:101C100080610160016841F480710160032000F07F
:101C20006FF80F2000F006F800F024F8002010BD37
:101C3000003C024070B50D4D04464FF47A7128788F
:101C4000B1FBF0F00A490968B1FBF0F000F008FBC5
:101C500048B9102C07D200222146501E00F030F85F
:101C600000206C6070BD012070BD000040000020AD
:101C70004C0000200A4808B5016841F48041016029
:101C8000006800F4804000900548001F016841F0A2
:101C900080510160006800F08050009008BD000095
:101CA00044380240002809DB00F01F020121914066
:101CB0004009800000F1E020C0F8001170470000EA
:101CC000F0B40E4B1B68C3F30223C3F10704042CCA
:101CD00000D904241D1D072D01D2002300E0DB1EC6
:101CE000012606FA04F56D1E0D409D409E40761EAD
:101CF000164045EA0601F0BC04F0B3B80CED00E074
:101D0000064A00F0070110684FF6FF03184040EA4A
:101D10000120034908431060704700000CED00E00B
:101D20000000FA052DE9F0470D46040065D0DFF804
:101D30001491D9F80000EFB200F00700A84207D2D2
:101D400089F80070D9F8000000F00700A84254D1CB
:101D500020683D4E810712D5400703D5306840F416
:101D6000E05030602078000703D5306840F46040D0
:101D700030603068A16820F0F000084330602078BF
:101D8000C0072DD0304960680839012812D00228D8
:101D900013D0032811D00968890700292DDA31688A
:101DA00021F0030101433160FFF714FC804641F24A
:101DB000883A0EE009688903EFE709688901ECE7D2
:101DC000FFF708FCA0EB0801514502D90320BDE84C
:101DD000F0873068616800F00C00B0EB810FEFD144
:101DE000D9F80010484601F00701A94207D9077049
:101DF000006800F00700A84201D00120E7E7207842
:101E0000400705D53068E16820F4E05008433060B1
:101E10002078000706D53068216920F4604040EA48
:101E2000C100306000F03EF83168084AC1F3031188
:101E3000515CC8400649086006480068FFF7FAFE92
:101E40000020C4E7003C024008380240309F0008F0
:101E50004C0000204400002001480068704700004A
:101E60004C0000200448054900680968044AC1F391
:101E70008221515CC84070474C0000200838024065
:101E8000409F00080448054900680968044AC1F3F6
:101E90004231515CC84070474C0000200838024075
:101EA000409F0008154810B5006810F00C01144858
:101EB00013D0144B04290FD008290ED10F4C241F26
:101EC000216801F03F022168490207D52068C0F36C
:101ED0008810A0FB030106E0184610BD2168C1F37D
:101EE0008811A1FB00010023FEF76CF92168C1F302
:101EF0000141491C4900B0FBF1F010BD0838024017
:101F00000024F40040787D012DE9F84F040075D0DD
:101F10002078DFF838A3C007AAF1040548D00AF1F9
:101F200004000168C1F38101012908D00068C0F3F1
:101F3000810002280AD1DAF80000400206D528689C
:101F4000800335D560680028E1D031E06068B0F5E5
:101F5000803F10D0B0F5A02F286810D020F480303A
:101F60002860286820F4802028606068A0B1FFF70E
:101F700031FB06460CE0286840F48030F4E740F47A
:101F800080202860F7E7FFF725FB801B642871D8C5
:101F900028688003F7D50BE0FFF71CFB064604E03A
:101FA000FFF718FB801B6428F1D828688003F7D45A
:101FB0002078DFF89C9280074FF0000B3DD5A348B6
:101FC000001D016811F00C0F08D00068C0F38100FB
:101FD00002280AD1DAF80000400206D428688007F7
:101FE00015D5E068012809D111E0E068B8B10120F9
:101FF000C9F80000FFF7EEFA064605E022E1FFF718
:10200000E9FA801B0228C2D828688007F7D528681B
:10201000216920F0F80040EAC10028600DE0C9F80D
:1020200000B0FFF7D7FA064604E0FFF7D3FA801BAB
:1020300002281FD828688007F7D42078000722D507
:10204000824F84486169703771B101210160FFF7E7
:10205000C1FA064604E0FFF7BDFA801B022809D842
:1020600038688007F7D50EE0C0F800B0FFF7B2FA85
:10207000064605E082E0FFF7ADFA801B02287DD816
:1020800038688007F7D42078400765D56F484FF04F
:1020900000083C300068C0000BD46C483C3001683C
:1020A00041F08051016000684FF0010800F080505D
:1020B0000090694F3868C0050FD4386840F48070CC
:1020C0003860FFF787FA064604E0FFF783FA801BC3
:1020D000022853D83868C005F7D55C4FA0686C3724
:1020E00001280FD00528386810D020F00100386092
:1020F000386820F004003860A068B0B1FFF76AFAD1
:1021000006460EE0386840F00100F4E740F00400B5
:102110003860F7E7FFF75EFA811B41F288308142B1
:1021200063D838688007F5D50DE0FFF753FA064607
:1021300006E0FFF74FFA811B41F28830814254D804
:1021400038688007F5D4B8F1000F05D03F483C301F
:10215000016821F080510160A069B8B33B49091DB5
:102160000968C1F38101022946D00228584606D0E9
:10217000C9F86000FFF72EFA044639E035E04F4613
:10218000C9F86000FFF726FA064604E0FFF722FAD6
:10219000801B022829D828688001F7D4D4E90701D8
:1021A0000843A16A2D4A490802EB0141626A41EAEB
:1021B0008211084394F82C1040EA0161CAF800101B
:1021C00001203866FFF706FA044605E03CE0FFF719
:1021D00001FA001B022808D828688001F7D533E0EF
:1021E000FFF7F8F9001B022802D90320BDE8F88F99
:1021F00028688001F4D427E00128F7D0DAF800003D
:10220000E26900F4800191421CD1226A00F03F0192
:10221000914217D147F6C071626A0140B1EB821F4B
:1022200010D1A26A4FF0FF3300F4403103EB5202A9
:10223000B1EB024F06D194F82C1000F07060B0EBB7
:10224000016F01D00120D1E70020CFE70438024020
:1022500000004742800E4742007000400000FFFF30
:1022600010B5401EB0F1807F01D3012010BD4FF0AA
:10227000E02460610F21601703F0F3FD0020A061EE
:1022800007202061002010BD10B590F83C20012AE5
:1022900022D0012280F83C20CA688C6822F4407267
:1022A00022434C6822F4806222430C6822F40062CC
:1022B00022430C6922F4805222434C6922F40052DA
:1022C0002243C969002322F480420A4301684A6418
:1022D00080F83C30002010BD022010BD70B590F891
:1022E0003C20012A32D0012580F83C50022280F89F
:1022F0003D2002685368946823F070060B683343EE
:102300005360134B02689A4214D0B2F1804F11D03F
:10231000104B9A420ED0104B9A420BD00F4B9A4260
:1023200008D00F4B9A4205D00E4B9A4202D00E4B6A
:102330009A4204D1496824F080031943916080F8DF
:102340003D50002180F83C10084670BD022070BD51
:10235000000001400004004000080040000C004064
:1023600000040140004001400018004070B586B0F4
:10237000044614216846FDF75DFF2B4A21680024BE
:102380002A4802250126914211D1016841F010012D
:1023900001600068694600F0100005904FF4285075
:1023A0000090CDE90154CDE90346214822E0214ABD
:1023B000914223D1016841F001010160016801F0FF
:1023C00001010591016841F0020101600068694660
:1023D00000F002000590C0200090CDE9015416489D
:1023E000CDE90345FEF7FCFF0096CDE901546946AF
:1023F000124815E0FEF7F4FF06B070BD104A914296
:10240000FAD1016841F0080101600068694600F0F6
:10241000080005904FF4E0400090CDE901540948D0
:10242000CDE90345E6E700000000014030380240F6
:10243000001002400004004000000240000402407E
:1024400000080040000C024070B5044690F83C00C3
:1024500000260D4601280FD0012084F83C006AB107
:10246000042A1DD0082A2FD00C2A3FD00126002094
:1024700084F83C00304670BD022070BD206803F037
:1024800091FA2068816941F00801816120688169C1
:1024900021F004018161206881692A69114311E0FA
:1024A000206803F0AFFA2068816941F4006181611E
:1024B0002068816921F480618161206881692A69CD
:1024C00041EA02218161D2E7206803F0D1FA206855
:1024D000C16941F00801C1612068C16921F00401AE
:1024E000C1612068C1692A69114311E0206803F0C5
:1024F000F3FA2068C16941F40061C1612068C169D3
:1025000021F48061C1612068C1692A6941EA022120
:10251000C161ACE710B5040003D094F83D0010B1E0
:1025200007E0012010BD002084F83C00204600F0A8
:102530001FF8022084F83D00211D206803F0BCF93B
:10254000012084F8460084F83E0084F83F0084F8B7
:10255000400084F8410084F8420084F8430084F885
:10256000440084F8450084F83D00002010BD0000C0
:1025700008B500681249884208D11248016841F044
:1025800001010160006800F001000BE00D490E4AF6
:10259000091F904208D1086840F0020008600868EE
:1025A00000F00200009008BD084A9042FBD1086884
:1025B00040F004000860086800F00400F2E7000042
:1025C0000000014044380240000400400008004080
:1025D00010B5044649B104290AD008290BD094F853
:1025E000410001280AD0012010BD94F83E00F8E710
:1025F00094F83F00F5E794F84000F2E70220B1B309
:10260000042938D0082939D084F8410001222068F3
:1026100003F0BAF91B4920681B4A884201D0904256
:1026200003D1436C43F4004343642068884213D0D1
:10263000B0F1804F10D0154988420DD0144988421E
:102640000AD01449884207D0904205D012498842E6
:1026500002D01249884204D1816801F0070106299D
:1026600003D0016841F001010160002010BDFFE7C7
:1026700084F83E00CAE784F83F00C7E784F84000CA
:10268000C4E70000000001400004014000040040D5
:1026900000080040000C00400040014000180040CD
:1026A00070477047F8B5016804460868CA684B6906
:1026B00010F00F0F4FF0000559D003F0010602F49F
:1026C0009077374365D0C10705D0D10503D5616C3C
:1026D00041F001016164410705D5D90703D0616C60
:1026E00041F002016164810705D5D90703D0616C0F
:1026F00041F004016164010707D502F02001314374
:1027000003D0616C41F008016164616C00293AD02A
:10271000800604D5900602D5204603F033FA2068DF
:102720004069616CC0F38010090700D460B3204693
:1027300003F001FA20684069400621D52068143072
:1027400050E8001F21F0400140E80012002AF5D1B6
:10275000E06BA8B172490165E06BFEF72EFE002820
:1027600011D0E06B016D01B0BDE8F0400847830671
:102770000FD593060DD52046BDE8F84003F002BA08
:102780002046FFF78EFFF8BD2046FFF78AFF6564FD
:10279000F8BD266B2023012E7ED1C6067CD5D60639
:1027A0007AD508684868009048694FF002064006EC
:1027B0004DD5E26B106840684FF480770004000C40
:1027C0003AD0A18D814237D9E085D069B8422DD069
:1027D00020680C3050E8001F21F4807140E800129E
:1027E000002AF5D12068143050E8001F21F00101C3
:1027F00040E80012002AF5D12068143050E8001F8C
:1028000021F0400140E80012002AF5D184F842305E
:10281000256320680C3050E8001F21F0100140E8CB
:102820000012002AF5D1E06BFEF77EFD6663A08DF5
:10283000E18D401A81B206E0A18D8142A8D1D06914
:10284000B842A5D166632046FFF72AFFF8BDA08DE8
:10285000E18D401A81B2E08D0028F7D00029F5D033
:1028600020680C3050E8002F22F4907240E80027D6
:10287000002FF5D12068143050E8002F22F001021B
:1028800040E80027002FF5D184F842302563206806
:102890000C3050E8002F00E006E022F0100240E883
:1028A0000023002BF3D1CDE705062BD5150629D53E
:1028B00094F841002128C9D1A068B0F5805F01D10A
:1028C0002069B0B1206A411C21622168007848600B
:1028D000E08C401E0004000CE084B7D12068C16881
:1028E00021F08001C1602068C16841F04001C160F1
:1028F000F8BD206A0088C0F308004860206A801C88
:102900002062E5E74006F3D55006F1D5CA682046B7
:1029100022F04002CA6084F8413000F0A4F8F8BD0B
:10292000295B000870B5040004D094F8410000252C
:1029300010B106E0012070BD84F84050204600F040
:1029400023F8242084F841002068C16821F4005154
:10295000C160204603F078F92068016921F49041B4
:1029600001612068416921F02A0141612068C16844
:1029700041F40051C1606564202084F8410084F86E
:1029800042006563002070BD2DE9F04186B0054628
:1029900014216846FDF74EFC2D4A286800212D4C75
:1029A000022603274FF00708904223D12948103010
:1029B000026842F400320260006800F400300590C2
:1029C000206840F008002060206802AA00F008009B
:1029D000059082E882016020CDE9000669461E4824
:1029E000FEF7FEFC002211462620FFF769F926209B
:1029F000FFF758F919492868884225D1154814303D
:102A0000016841F010010160006800F010000590BD
:102A1000206840F001002060206802AA00F0010058
:102A200005904FF4C060CDE90006012082E88101E5
:102A300069460B48FEF7D4FC002211462520FFF71B
:102A40003FF92520FFF72EF906B0BDE8F081000020
:102A50000044004030380240000C024000100140A9
:102A60000000024070477047FEE701684A69D243A0
:102A700052050FD46FF480624A61002140F8301F84
:102A8000202242738173026942F0040202610173E1
:102A900001207047002070472DE9F84F0446006878
:102AA00089460B9E01689846174641F48061016093
:102AB0002068016841F48071016000964FF0011BAD
:102AC0000022594620460A9B00F064F84FF4007A31
:102AD00040B120680068C00501D5C4F840A00320BB
:102AE000BDE8F88F216809F0FE00086133462849E7
:102AF00020460A9A00F092F8F0BB2068416980698C
:102B00000090324620460A9900F01FF940B1206C2F
:102B100004283AD12068016841F40071016034E072
:102B2000FDB2B8F1010F09D02168380A08613246B8
:102B300020460A9900F009F90028E8D120680561CB
:102B4000324620460A9900F000F90028DFD12068BB
:102B5000016841F4807101600096002259462046C8
:102B60000A9B00F017F80028B3D1216809F0FF0094
:102B700040F00100086100E007E0334604492046C8
:102B80000A9A00F04BF80028AAD00120A8E700001C
:102B9000020001002DE9F0471E4690460D4604460E
:102BA000C1F30747DDF8209026E0701C24D0FEF723
:102BB00011FDA0EB0900B04200D8EEB92068012F4A
:102BC00016D0806925EA00000004000C12D0002015
:102BD000404511D1002044F8300F20216173A073CB
:102BE000216941F02001216120730120BDE8F087B7
:102BF0004069E7E70120EBE72068012F0AD08069F0
:102C000025EA00000004000C06D000204045CCD08E
:102C10000020EBE74069F3E70120F7E72DE9F047F3
:102C2000984616460D4604464FF000094FF0200A1C
:102C3000C1F3074723E020684069C043400515D42D
:102C40002068016841F40071016021686FF48060C0
:102C50004861C4F8309084F83DA084F83E90216C1F
:102C600041F00401216484F83C9020E0701C06D0FF
:102C7000FEF7B0FCA0EB0800B04203D816B1012F5C
:102C80001ED020E02068012F14D0806925EA0000C2
:102C90000004000C17D044F8309F84F80DA084F88D
:102CA0000E90216941F02001216184F80C900120EF
:102CB000BDE8F087406925EA00000004000CEAD175
:102CC0002068406901E02068806925EA000000046E
:102CD000000CB0D1ECE72DE9F04116460D46044654
:102CE00000274FF0200829E04069C043C0060DD4FA
:102CF00054F8301B6FF01000486144F80D7B04F865
:102D00001D89A777206A2062277714E0FEF762FC0E
:102D1000801BA84200D88DB920684069C043400696
:102D20000CD544F8307F84F80D80A773206940F0FB
:102D30002000206127730120BDE8F08120684169EF
:102D4000C9434906D0D40020F6E770B516460D46B3
:102D500004461EE02046FFF788FE08B1012070BD42
:102D6000681C16D0FEF736FC801BA84200D885B937
:102D700020684069C04300060BD5002044F8300F9E
:102D800020216173A073216941F02001216120732A
:102D9000E4E720684069C0430006DBD4002070BD32
:102DA0009FED0E0AF7EE000A80ED000A80ED010AA1
:102DB000C0ED020A80ED030A80ED040A9FED080AC7
:102DC000C0ED050A80ED060A9FED060A80ED070AB0
:102DD0009FED050A80ED080A704700000000000022
:102DE0006F12833AA69B443B8FC2F53CB5EEC01AE6
:102DF000F1EE10FA04D911EE101AB1F17C5F01DD89
:102E00009FED271AD0ED014A90ED003AD0ED032A4C
:102E100070EEE40AD0ED051AD0ED043A90ED062AE2
:102E200001EE203AF0EE620A41EE612A51EE210AEB
:102E300070EEE30A41EE613A30EE822AD0ED020AEA
:102E400041EE020A90ED072A42EE011A90ED081AAF
:102E500030EE814A80EE842A83EE841A30EE434AB3
:102E6000B0EE430AB0EE603A02EE040A02EE603AB7
:102E700080ED000A41EE044A41EE603A41EE621AEA
:102E8000C0ED014A80ED023AB0EE623A02EE623ADB
:102E900080ED033AC0ED043AC0ED051A704700001A
:102EA0000AD7A33B10B504462DED028BB0EE408A45
:102EB00006F0AEFB9FED1D1AA16809B3411A00EEA2
:102EC000901A9FED1B0AF8EE600A60EE800AF5EE9C
:102ED000C00AF1EE10FA04D910EE901AB1F17C5F3D
:102EE00001DDF0EE410AA06094ED001AB5EEC01AC3
:102EF000F1EE10FA07D8B0EE480ABDEC028B10BD17
:102F0000F0EE410AE3E731EE200AC1EE000A94ED4B
:102F1000010A20EE201AB7EE000A70EE600AB0EE49
:102F2000410A00EE880A84ED010AE6E70AD7A33BCE
:102F3000BD378635F0B52DED048BF0EE408A85B0B7
:102F4000F5EEC08AF1EE10FA04D918EE902AB2F12B
:102F50007C5F01DDDFED688A684C2278DFED681A5E
:102F600091ED000A012A7CD0D4ED2B0A50EE210A03
:102F7000C4ED250A94ED2C0AD1ED010A10EEA10A48
:102F800084ED260A94ED2D0AD1ED020A10EEA10A75
:102F900084ED270A9FED5B0AD0ED000A94ED289A94
:102FA00070EEC90A00EE809A84ED289AD0ED010AED
:102FB000D4ED299A70EEE90A40EE809AC4ED299A80
:102FC000D0ED020A94ED2A8A70EEC80A00EE808ADB
:102FD00029EE090A84ED2A8A08EE080A03F090FA1D
:102FE000F0EE400AB0EE690A02F050FFF0EE409AAF
:102FF000F0EE480AB1EE490A02F048FFB0EE408A0E
:10300000D4ED250AB0EE681AB0EE690A04F1F000BA
:10301000FFF7ECFE84ED200AD4ED260AB0EE681A24
:10302000B0EE480A04F58A70FFF7E0FE84ED210A4D
:10303000D4ED220A94ED271A41EE280AC4ED220AA3
:1030400094ED201ADFED300A21EE201A20EE200A3E
:1030500084ED231A84ED240A05B0BDEC048BF0BD89
:10306000FFE7D4ED390A40EE210AC4ED390A94EDA8
:103070003A1A91ED010A00EE211A84ED3A1A94ED04
:103080003B0A91ED022A02EE210A84ED3B0AD4F8B4
:10309000E000401CC4F8E000C828DDD30120DFEDCB
:1030A0001B1A80EEA18AC1EE218A84ED2B8AC0EE24
:1030B000210AC4ED2C8AC4ED2D0A84F8B800022040
:1030C000207010EE900AFDF74EFB06460F4618EEF4
:1030D000900AFDF748FB04460D4618EE100AFDF76E
:1030E00042FB8DE8F00041EC100B094853EC102B2B
:1030F00002F094FEB0E700000AD7A33B6C09002061
:1031000035FA8E3CCDCC4C3EE02E65420000484363
:103110009CB1000810B521492DED028B90B191F8BA
:10312000B80048B10220087049781DA0BDEC028BA0
:10313000BDE8104002F072BEBDEC028BBDE810404D
:1031400000F080BB9FED268A0020087081ED328A56
:1031500081ED338A81ED348AB0EE481AF0EE480AE8
:10316000B0EE480A06F02AFC0120B0EE481AF0EE54
:10317000480AB0EE480A06F021FC0220B0EE481AD8
:10318000F0EE480AB0EE480A06F018FCBDEC028BDF
:1031900014A0BDE8104002F041BE00006C09002000
:1031A0005B4C51525D2042616C616E636520456EDF
:1031B00061626C656420284D6F64653A202564293E
:1031C0002C2077616974696E672063617074757211
:1031D000652077696E646F772E2E2E0D0A00000031
:1031E000000000005B4C51525D2042616C616E63D7
:1031F000652044697361626C65642E0D0A000000ED
:1032000070B5384C00252DED028B294625709FEDB9
:10321000360A657084ED350A9FED340A9FED351A44
:1032200084ED360A9FED320A9FED332A84ED1F0AA2
:10323000C4F8DC50DFED311ADFED310A9FED318A41
:10324000B1EE080AC4F8E05001EB410004EBC00005
:1032500080ED011A80ED022AC0ED031AC0ED040AC8
:1032600080ED058A80ED060A04EB8100491C80EDA3
:103270002F8A80ED328A80ED2B8A0329E4DB00213E
:10328000DFED211ADFED210A9FED212AB3EE0C1AA2
:1032900001EB410004EBC000491C80ED131AC0EDA6
:1032A000141AC0ED150A80ED162A80ED178A80EDFC
:1032B000180A0229ECDB0B48F030FFF771FD1548C6
:1032C000FFF76EFD84ED208A84ED218A84ED228A49
:1032D00084ED238A84ED248A84F8B850BDEC028BF7
:1032E00070BD00006C090020920A863EC2B8B23D53
:1032F0009A99993E000000429A9919400AD7A33D35
:103300006F12033C00000000CDCC0C40295C8F3DC7
:10331000A69BC43B800A00202DE9F05F2DED068BB3
:1033200006F076F9DFF8F8839FEDFE1AD8F8DC1086
:10333000F1B3411A00EE101AB8EE400ADFEDFA0AB6
:1033400020EE208AB5EEC08AF1EE10FA04D918EE0C
:10335000101AB1F17C5F01DDB0EE418AC8F8DC00E3
:1033600098F80000DFEDF18AA8B3012837D098F86B
:103370000140EF4E04274FF0030ADFEDEE9ADFF82D
:10338000B8939FEDEEAAEE4DDFF8B8B3022C7DD8CE
:103390007CB3012C33D0D8ED220A98ED270A04EB38
:1033A000440108EBC10191ED051A30EEC11A00E0AD
:1033B00012E0D8ED351AF0EEC10AF4EEE10AF1EEB2
:1033C00010FA21DD08EB840088F80070B0EE680A7E
:1033D00080ED2F0A77E002E0B0EE418AB2E7C8ED57
:1033E000328AC8ED338AC8ED348ABDEC068BBDE85D
:1033F000F09FFFE7D8ED200A98ED250ACFE7D8ED3A
:10340000210A98ED260ACAE7042801D002280CD127
:10341000D8ED361AF4EEE10AF1EE10FA4FD208EBCD
:10342000840088F800A0C0ED2F8AC74800EB840014
:10343000D0ED000A08EB8400D0ED2F1A40EE881A78
:1034400011EE902AC0ED2F1AB24201DDC0ED2F9A85
:10345000D0F8BC204A4501D980ED2FAAD1ED011A40
:10346000BA4A61EE811A91ED021A52F8242041EE17
:10347000001A002A01DAF1EE611A91ED030A40EE1A
:10348000601A91ED040AD0ED2F0A00E05AE040EEF8
:10349000601A91ED060AAE49D1ED000AB4EEE00AD9
:1034A000F1EE10FA01DDB0EE600AF1EE400AF4EE42
:1034B000E01AF1EE10FA10D2B0EE600A14E0B0EEAD
:1034C000680A08EB8400F0EE400A80ED320A05EB52
:1034D000840090ED001A20460BE1F4EEC01AF1EEE4
:1034E00010FA01DCB0EE610AB0EE408A80ED328A5B
:1034F000204605F05DFC0BEBC400B0EE480A80ED01
:10350000010AC0ED008A05EB8400F0EE680A90ED38
:10351000001A204606F052FA0026A6420ED008EB0A
:103520008600F0EE680AC0ED328A05EB8600B0EE48
:10353000680A90ED001A304606F040FA761C032E19
:10354000EBDB52E7032CFCD198ED200AD8ED170AEB
:1035500070EE60AA98ED210AD8ED1D0A30EE609A4F
:103560002AEEAA0A09EE090A02F0CAFFD8ED350AC6
:10357000F4EEC00AF1EE10FA08D288F80070C8ED37
:103580002F8AC8ED308AC8ED318A99E098F800009A
:10359000042801D0022808D1D8ED360AF4EEC00A7A
:1035A000F1EE10FA7EDD88F800A0674A00204B4655
:1035B00008EB800102EB800491ED2F0AD4ED000AA4
:1035C00000EE880A10EE104A81ED2F0AB44201DDA8
:1035D000C1ED2F9AD1F8BC409C4201D981ED2FAAB0
:1035E000401C0328E4DBD2ED000A92ED020AD2ED82
:1035F000011AF6EE002A30EE801A30EE600A41EE33
:10360000621A9FED543AD8ED310A98ED302A60EEF7
:10361000033A98ED2F0A30EE201A30EEC00A01EE80
:10362000622A60EE030A98ED140A98ED251A20EE3E
:10363000010A98ED131A01EE2A0A98ED151A01EE07
:10364000610A98ED161AD8ED261A01EE420A98ED95
:103650001A1A61EE211A98ED191A41EE091A98ED1D
:103660001B1A41EE631A98ED1C1ADFED3C3A41EE4D
:10367000601AD8ED1F0A98ED271A60EEC10A9FED77
:10368000361A21EE812A61EE831AB0EE401A00EE5E
:10369000622A40EE621A00EEA31A00EEA32A40EE60
:1036A000A31A00E00CE02A4890ED000AF1EE400A6F
:1036B000B4EEE02AF1EE10FA21D2B0EE602A25E055
:1036C0000020B0EE681AF0EE680AB0EE680A06F064
:1036D00075F90120B0EE681AF0EE680AB0EE680ADB
:1036E00006F06CF90220B0EE681AF0EE680AB0EE4F
:1036F000680ABDEC068BBDE8F05F06F05FB9B4EE7A
:10370000C02AF1EE10FA01DDB0EE402AB4EEE01A64
:1037100088ED322AF1EE10FA22D2B0EE601A26E0DD
:103720006C0900200AD7A33BBD3786350000000096
:103730000000484200004842000048C2000048C261
:103740000C090020300900201C080020580000202F
:1037500070000020D7B35D3FD7B35DBFAAAAAA3ED1
:10376000B4EEC01AF1EE10FA01DDB0EE401AF4EE3C
:10377000E01A88ED331AF1EE10FA02D2B0EE600AC8
:1037800006E0F4EEC01AF1EE10FA01DCB0EE610AC8
:1037900088ED340A00245E46204605F009FB08EB5C
:1037A0008400F0EE680A90ED320A06EBC40080ED6A
:1037B000010AC0ED008A05EB840090ED001A204656
:1037C00006F0FCF8641C032CE6DB0EE60C499FEDCA
:1037D0000D0A487081ED2F0A81ED300A81ED310A22
:1037E00038B1012807D0022807D007A109A002F0AC
:1037F00015BB0EA1FAE70FA1F8E710A1F6E700004C
:103800006C09002000000000434F524E45525F33C8
:10381000440000005B4C51525D204D6F6465207385
:10382000657420746F3A2025730D0A00454447459E
:103830005F4D3100454447455F4D320045444745A3
:103840005F4D3300094801219FED090A01700021F5
:10385000C0F8E01080ED390A80ED3A0A80ED3B0AAD
:1038600080F8B810034802F0D9BA00006C090020B3
:103870000000000050B100082DE9F0472DED048B49
:1038800086B0F0EE418AB0EE609AB0EE408A824691
:1038900003282DD219480AEB4A0100EBC10080ED44
:1038A000018A80ED029AC0ED038AC0ED041A11EE80
:1038B000900AFCF758FF8046894618EE900AFCF7FC
:1038C00052FF06460F4619EE100AFCF74CFF04465D
:1038D0000D4618EE100AFCF746FF8DE8F00341ECA8
:1038E000100B0AF1010153EC102B054802F096FA77
:1038F00006B0BDEC048BBDE8F08700006C09002029
:10390000E4B1000870B52DED028B82B0B0EE408AB4
:10391000064603281ED212489FED100A06EB460108
:1039200000EBC10068EE000AC0ED050A10EE900A37
:10393000FCF719FF04460D4618EE100AFCF713FFBA
:1039400041EC100B711C53EC102B06A0CDE9004587
:1039500002F064FA02B0BDEC028B70BD35FA8E3C09
:103960006C0900205B4C51525D204D256420426162
:103970006C616E6365205A65726F20416E676C657D
:103980002073657420746F3A20252E32662064659A
:10399000672028252E346620726164290D0A0000F4
:1039A0007FB5054600200C460090019002900390E0
:1039B00002A9684600F076F8BDF9000000EE100A92
:1039C000F8EEC00A9FED1D0A60EE800AC5ED000A00
:1039D000BDF9020000EE900AF8EEE00A60EE800AFF
:1039E000C5ED010ABDF9040000EE900AF8EEE00A08
:1039F00020EE800A85ED020ABDF9080000EE100AEB
:103A0000F8EEC00A9FED0E0A60EE800AC4ED000ACF
:103A1000BDF90A0000EE900AF8EEE00A60EE800AB6
:103A2000C4ED010ABDF90C0000EE900AF8EEE00AC0
:103A300020EE800A84ED020A7FBD000040DA7F3864
:103A4000295C8F3D10B501F087FD142004F020FFA4
:103A50000121122001F01AFE322004F019FF00F0BB
:103A600015F86B2801D0012010BD4421122001F06F
:103A70000DFE4021102001F009FE4C21112001F023
:103A800005FE0A2004F004FF002010BD08B5002048
:103A90008DF80000012269460F2001F0BFFD9DF85E
:103AA000000008BD3EB50C4605460C2269462220A2
:103AB00001F0B4FDBDF800002080BDF80200608078
:103AC000BDF80400A080BDF806002880BDF80800FD
:103AD0006880BDF80A00A88000203EBD7FB505467D
:103AE00000200C46009001900290039002A96846C5
:103AF00000F0ACF8BDF9000000EE100AF8EEC00AC4
:103B00009FED1D0A60EE800AC5ED000ABDF90200B6
:103B100000EE900AF8EEE00A60EE800AC5ED010AB8
:103B2000BDF9040000EE900AF8EEE00A20EE800AEB
:103B300085ED020ABDF9080000EE100AF8EEC00A91
:103B40009FED0E0A80EE801A84ED001ABDF90A007E
:103B500000EE900AF8EEE00A80EE801A84ED011A79
:103B6000BDF90C0000EE900AF8EEE00A80EE801A33
:103B700084ED021A7FBD000000008038333383419A
:103B800010B52A4888B00024016841F002010160A4
:103B90000068142100F0020006906846FCF74AFB1A
:103BA0004FF440600090112001900120029003200A
:103BB000039069461E48FDF713FC1D484FF48061D1
:103BC00018300160C1140160142004F061FE8021EE
:103BD0006B2005F07AFE322004F05AFE00216B20A3
:103BE00005F073FE142004F053FE8DF814400122FA
:103BF00005A9752005F03CFE9DF81400682802D048
:103C0000012008B010BD0721192005F05EFE062135
:103C10001A2005F05AFE18211B2005F056FE00213F
:103C20001C2005F052FE0020EBE700003038024077
:103C30000004024008B500208DF80000012269460A
:103C4000752005F015FE9DF8000008BD7FB50C46F7
:103C500005460E2269463B2005F00AFE10B1012000
:103C600004B070BDBDF8000040BA2880BDF8020065
:103C700040BA6880BDF8040040BAA880BDF80800CA
:103C800040BA2080BDF80A0040BA6080BDF80C0040
:103C900040BAA0800020E3E7F0B587B01421684661
:103CA000FCF7C8FA35480024016841F020010160A2
:103CB000016801F020010591016841F08001016077
:103CC000016801F080010591016841F00101016086
:103CD000016801F001010591016841F002010160F4
:103CE000016801F002010591016841F040010160A5
:103CF000016801F040010591016841F01001016087
:103D0000016801F010010591016841F008010160AE
:103D1000016801F008010591016841F004010160AA
:103D20000068174E00F0040040F2FF1505900022D5
:103D300029463046FDF749FC124F0022072138463C
:103D4000FDF743FC00950125CDE901546946304655
:103D50000394FDF745FB07200090CDE90154694627
:103D600038460394FDF73CFB8020CDE9000469460A
:103D700038460294FDF734FB07B0F0BD30380240FE
:103D800000180240000C02400D4810B50B490160BC
:103D90000C49416000214FF480428160C0E9031268
:103DA00041618161C1610162FDF71AFC002803D005
:103DB000BDE81040FDF7B6BA10BD00000054004049
:103DC000AC000020801A06000D4810B50B490160B8
:103DD0000C49416000214FF480428160C0E9031228
:103DE00041618161C1610162FDF7FAFB002803D0E6
:103DF000BDE81040FDF796BA10BD00000058004025
:103E000000010020801A06000D4810B50B49016022
:103E10000C49416000214FF480428160C0E90312E7
:103E200041618161C1610162FDF7DAFB002803D0C5
:103E3000BDE81040FDF776BA10BD0000005C004000
:103E400054010020801A060030B591B000240F9470
:103E50001C2168461094FCF7EDF9202107A8FCF717
:103E6000E9F93248304D20210560C0E901414FF4A5
:103E70005261C0E903148021C0E90541FEF74AFB05
:103E800008B1FDF74FFA0F940FA928481094FEF7D8
:103E900025FA08B1FDF746FA6020CDE90004029446
:103EA0000394049405940022694620480694FEF782
:103EB000CBFA08B1FDF736FA042269461B48FEF733
:103EC000C3FA08B1FDF72EFA082269461748FEF733
:103ED000BBFA08B1FDF726FA0794089409944FF449
:103EE00000500A94CDE90B4007A910480E94FEF744
:103EF000CBF908B1FDF716FA0C48FEF737FA0021A6
:103F00000A48FEF765FB04210848FEF761FB08211B
:103F10000648FEF75DFB686C40F4004068640348A7
:103F2000FEF724FA11B030BD00000140A8010020C6
:103F300010B58AB0002407941C2168460894FCF749
:103F400079F91F481D49C0E900142021816040F221
:103F50008F61C0E9031480218161FEF7DBFA08B1AB
:103F6000FDF7E0F9079407A915480894FEF7B6F99C
:103F700008B1FDF7D7F96020CDE9000402940022D2
:103F800069460F480494FEF75FFA08B1FDF7CAF9D5
:103F9000042269460A48FEF757FA08B1FDF7C2F94C
:103FA000082269460648FEF74FFA08B1FDF7BAF94C
:103FB0000348FEF7DBF90AB010BD00000004004022
:103FC000F001002010B58AB0002407941C21684637
:103FD0000894FCF72FF91F481D49C0E9001420215F
:103FE000816040F28F61C0E9031480218161FEF796
:103FF00091FA08B1FDF796F9079407A915480894B6
:10400000FEF76CF908B1FDF78DF96020CDE90004E9
:104010000294002269460F480494FEF715FA08B18D
:10402000FDF780F9042269460A48FEF70DFA08B147
:10403000FDF778F9082269460648FEF705FA08B147
:10404000FDF770F90348FEF791F90AB010BD0000C2
:1040500000080040380200200C4810B50A490160F1
:104060004FF4E1314160002181600C22C160C0E960
:1040700004128161C161FEF755FC002803D0BDE840
:104080001040FDF74FB910BD00100140C8070020D7
:104090000E4810B50C4901604FF4E1314160002138
:1040A00081600C22C160C0E904128161C161FEF728
:1040B00039FC08B1FDF736F903480C30016841F0CE
:1040C0002001016010BD0000004400408007002076
:1040D000FEE700002DE9F04F2DED068BABB0F54E5D
:1040E000F54896ED009A01F099FEF44801F096FE2D
:1040F000F34801F093FEF3A001F090FEFE4D002482
:1041000010212846FDF759FA642004F0C1FB641C15
:104110000A2CF5DB00221021F748FDF756FAF74884
:1041200001F07CFEE348B0EE080AF54980ED000A94
:104130000320087005F0BCFD0024F0EE009A0BA8E7
:104140009FEDF08ADFEDF08A0590002C7AD0012CEB
:1041500079D004200190002009900A900C900D90D5
:104160000B902790289004EB8401269020902290B9
:104170002390249011AF219025900E900F908A46A5
:10418000109007F8210007EB8A0600257080B080A8
:10419000C6ED028AC6ED038AC6ED048A611CDBA067
:1041A00001F03CFE0094002C65D0012C65D0042366
:1041B000DB48611C621C01F031FE09AA0CA9002039
:1041C000FDF79AF8E8B300208DF838000DF12408C7
:1041D00001200DF132010AAAFDF78EF8A0B30020EC
:1041E0008DF839000DA90220059AFDF785F860B316
:1041F00000208DF83A00002026AA414601EB8003FA
:10420000934693ED000A02EB8003401C83ED000A05
:104210000328F3DB09A800EB8400299090ED000A45
:10422000002186ED020A084605F0C6FC04F10109EA
:1042300009F0FF00012105F0BFFC142004F028FB69
:1042400004E01CE013E014E01BE01CE04FF0E02071
:104250008069B44941F82400B34800EB8400C0ED04
:10426000008AFDF7B7F907460290009090E0012020
:1042700070E702206EE701239AE7032398E7012005
:10428000A2E70120ACE70120B3E7B0EE690A05F030
:10429000F7FDFDF79FF90099401A642806D3FDF752
:1042A00099F9009094480199FDF787F9FDF792F983
:1042B0000299401A14286BD3FDF78CF96D1C0290FB
:1042C000ADB209AA0CA90020FDF716F8A0B3002092
:1042D0008DF838000DF124080DF1320101200AAAF1
:1042E000FDF70AF848B300208DF839000DA9022027
:1042F000059AFDF701F828B300208DF83A00002058
:104300000EAB195CE9B30FAADFF820C232F8101027
:10431000491C22F8101008EB8001D1ED000A0BEBCC
:10432000800191ED000A30EEC00A10EE102A6245BD
:104330000ADD30EE480A0FE000E001E00120C7E7A7
:104340000120D1E70120D8E710EE102ADFF8E0C104
:10435000624501D930EE080A20AA02EB8002D2EDB4
:10436000001AB0EEC01A31EE211A82ED001A23AA0B
:1043700002EB800292ED001A31EE000A82ED000A93
:1043800001E002E004E0C1ED000A401C0328B8DBB4
:10439000FDF720F9C01BB0F5FA6F2046FFF475AFAA
:1043A000B0EE680AB0EE401AF0EE400A05F006FBE7
:1043B00009F0FF00002105F0FFFB00224E480199A3
:1043C000FDF703F935B1BDF8400064214843B0FB67
:1043D000F5F000E0002004902298FCF7C4F988462C
:1043E000074635B1BDF83E0064214843B0FBF5F007
:1043F00000E0002083462198FCF7B5F9CDE90201E1
:1044000035B1BDF83C0064214843B0FBF5F000E055
:10441000002000902098FCF7A6F941EC100B0498BE
:10442000CDF810B00697CDE9078053EC102B611C36
:10443000404801F0F3FC0FAA758032F81400B080F8
:104440008346299820AB4FF0FF3E90ED000A03EB26
:10445000840086ED030A90ED000A00200DF1440867
:1044600086ED040A7746ED0053F82010DFF8C8C047
:10447000614508DB0A21B5FBF1F132F810C0614556
:1044800001D8074602E0401C0328EDDB002F7DDB4E
:104490002A480021075508F82A1053F827003061F0
:1044A00032F81710B18009A901EB870191ED000ADC
:1044B00046E000007000002094AB000878A00008DF
:1044C000D8AB00085B544553545D20506861736558
:1044D00020313A20504734204C454420626C696EAC
:1044E0006B696E6720666F722031207365636F6E33
:1044F000642E2E2E0D0A00000018024064AA000847
:10450000500000200000B443000000002454455334
:10451000545F535445502C4D2564230D0A00000070
:10452000CCA90008600900201008002000003443D6
:10453000000034C3C4A100080000A04154000020C2
:1045400023A901EB870186ED030A91ED000AB5EE80
:10455000C00AF1EE10FA04DDF54A012142F82410F8
:1045600002E0F34A42F824E0FCF7FDF8CDE902014D
:10457000EF4850F82400012869D0EEA000907B1C81
:10458000621C611CED4801F049FC00E061E009F0AB
:10459000FF00012105F010FB142004F079F92046FA
:1045A0009FEDE71AE749F0EE680A91ED000A05F081
:1045B00005FAE54E002530460199FCF7FEFF642020
:1045C00004F066F96D1C082DF5DB204605F072FB42
:1045D000DE4800EB84052046C5ED008A04F06EF944
:1045E00085ED000A2046B0EE681AF0EE680AB0EEDB
:1045F000680A05F0E3F909F0FF00002105F0DCFA94
:10460000D34901200022085530460199FCF7DDFF0F
:1046100095ED00AA9FEDCF0A6AEE000A9FEDCE1A33
:1046200080EE810A10EE100AFCF79DF805460E4652
:104630001AEE100AFCF797F841EC100BCDE9005682
:1046400053EC102B611CC54801F0E8FB07E0C4A047
:1046500094E7BBF1000F18D0022208F82A2064204A
:1046600004F016F9641C032CFFF66FAD00214FF027
:10467000010B0846454600EB800215F822206AB17E
:10468000012A11D0022A0FD009E0032008F82A00DD
:10469000621C611CB4A001F0C1FBE0E7491C401C96
:1046A0000328E8DB19B104E04FF0000BFAE74FF004
:1046B000000BBD4880ED009A05F0FAFAAFF2CC107D
:1046C00001F0ACFBB94801F0A9FBB94801F0A6FB29
:1046D000B64801F0A3FBB74801F0A0FBB64801F0D3
:1046E0009DFB002404EB840111AAB4A612F821005A
:1046F000012804D0022804D0032804D004E0B1A685
:1047000002E0B3A600E0B5A602EB81052869FCF73C
:104710002AF807468846E868FCF725F8CDE9000145
:10472000A868FCF720F86A888A4681462AB1A888DA
:1047300064214843B0FBF2F300E00023CDE90678A2
:10474000DDE90001CDE9029ACDE90401A888CDE9AF
:1047500000020DF144083246611CA34801F05EFBE3
:10476000641C032CBEDB944801F058FB1F98FBF738
:10477000FAFF0446BDF86E000D4628B1BDF8701072
:1047800064225143B1FBF0F081461A98FBF7EBFF2E
:104790000646BDF85A000F4628B1BDF85C106422E9
:1047A0005143B1FBF0F082461598FBF7DCFFBDF8F2
:1047B00046203AB1BDF848304FF0640C03FB0CF3CF
:1047C000B3FBF2F2BBF1000F01D07CA300E087A3A2
:1047D0000894CDE909539DF86C30EBB3032B6AD0F4
:1047E000012B6AD083A3CDF81C900496CDE9057304
:1047F0009DF858308BB3032B63D0012B63D07DA37E
:104800008DE80B049DF8440040B303285FD00128D5
:104810005FD078A17A4801F001FBBBF1000F5CD0BA
:10482000784801F0FBFA784801F0F8FA464D012289
:1048300010212846FCF7C9FE4FF47A7004F028F8DE
:10484000002410212846FCF7B8FE962004F020F83A
:10485000641C062CF5DB02E02BE030E035E00022A2
:1048600010212846FCF7B1FE6848C0ED038AC0ED70
:10487000048AC0ED058AC0ED068A4FF0FF3005F0CE
:104880003DF86349012000240870454604EB84008C
:1048900015F82000002804F10100C0B21BD000214F
:1048A00005F08AF9641C032CF0DB5AA001F0B6FA7B
:1048B00034E042A397E767A395E768A393E73FA394
:1048C0009EE764A39CE765A39AE73CA1A2E761A1E8
:1048D000A0E762A19EE70121E2E7634801F09EFAAA
:1048E00062A001F09BFA704801F098FA464801F086
:1048F00095FA154D002410212846FCF75EFE3C2059
:1049000003F0C6FF641C142CF5DB0022102128469E
:10491000FCF75BFE0021084605F04EF905F0C8F9EA
:1049200062A001F07BFA2BB0BDEC068BBDE8F08FE6
:1049300058000020434357282D31290070AF00084C
:10494000E4CB9640680000200018024028080020B0
:104950006400002000003443DB0F494000AD000834
:104960004357282B3129000020205B4D2564204E21
:104970006F746963655D204D6F746F7220256420CC
:104980002F20456E636F646572206973206E6F74AB
:1049900020696E7374616C6C65642028736B697038
:1049A000292E0D0A0000000070000020D8AB00087E
:1049B00034A0000828AF0008ECA800085041535369
:1049C000000000004641494C2849324329000000BC
:1049D0004641494C285354414C4C2900534B4950B3
:1049E000284E4F4E45290000A8A800084641494CD2
:1049F000000000004641494C5F5354414C4C0000BC
:104A000080A1000850AB0008F09F000800000020C3
:104A100050000020436F6E74726F6C206D6F646580
:104A200020737769746368656420746F20434C4F0A
:104A30005345445F4C4F4F5020666F722063616C4A
:104A400069627261746564206D6F746F72732E0D8C
:104A50000A000000534B4950000000004641494CF9
:104A60005F493243000000000CAB000854697073CA
:104A70003A204641494C2849324329202D3E2043C3
:104A80006865636B2049324320776972696E672CD1
:104A900020332E33562F474E442C2070756C6C2DCE
:104AA0007570732E0D0A0000B0AA00084F4B2054F9
:104AB0004553540D0A00000030B587B014216846F4
:104AC000FBF7B8FB0D480024016841F008010160C4
:104AD00000680B4D00F0080005902246072128468B
:104AE000FCF773FD072000900120CDE90104694621
:104AF00028460394FCF774FC07B030BD3038024000
:104B0000000C02402DE9F04F2DED088B85B04FF0E1
:104B100000080546B0EE08BA0B2640F69807ADF837
:104B200010809FED958A02288DED028A00D900251C
:104B30009248405D039092A001F070F9691C9DA01D
:104B400001F06CF9A6A001F069F90021084605F012
:104B500033F805F1010B0BF0FF00012105F02CF8F3
:104B6000322003F095FE9FEDAA0BABA053EC102B67
:104B700001F054F928469FEDB59AF0EE48AAB0EE40
:104B80004B0AB0EE491AF0EE6A0A04F017FF40F241
:104B9000DC5003F07DFE02AA04A90398FCF7ACFBED
:104BA0000298FBF7E0FD41EC100BBDF910000090FE
:104BB00053EC102BA6A001F031F9B2EE06AADFEDFE
:104BC000B1BA3246DDED028A1146AF4801F026F94E
:104BD000DFF8B892DFF8B8A20024DFEDAE9A39EE24
:104BE0002B9A2846F0EE6A0AB0EE4B0AB0EE491A4C
:104BF00004F0E4FE40F2DC5003F055FE322094FB5A
:104C0000F0F100FB1140E8B9ADF80080CDED01AA4C
:104C100001AA69460398FCF76FFBDDED010A30EE4F
:104C2000E80A10EE100A484502DD30EE690A05E098
:104C300010EE100A504501D930EE290AF0EE608AD4
:104C400038EE008A641CBC42C9DB4FF4FA7003F0F2
:104C50001FFEADF80080CDED01AA01AA69460398B8
:104C6000FCF74AFB9DED010A30EE680A10EE100ACF
:104C7000484502DD30EE690A05E010EE100A5045A5
:104C800001D930EE290A284678EE008AB0EE6A8A09
:104C9000B0EE480AB0EE401AF0EE400A04F08EFE84
:104CA0000BF0FF00002104F087FF00EE906AB0EEE9
:104CB000E80A10EE100AF8EEE00AB0F17E5F20EE8E
:104CC000A99A01DD89EE008A73A001F0A7F819EE18
:104CD000100AFBF748FD41EC100B76A053EC102BAB
:104CE000009601F09BF818EE900AFBF73CFD41ECB2
:104CF000100B7FA053EC102B01F090F818EE100A67
:104D0000FBF731FDB6EE001A41EC100B38EE011A3C
:104D100053EC102B81A0FDEEC18ACDED008A01F08D
:104D20007DF8B1EE0C0A8C4838EE400AB0EEC00AAD
:104D300010EE101A814201DA88A008E038EE4A0A23
:104D4000B0EEC00A10EE101A814203DA92A001F010
:104D500065F804E018EE901A9EA001F05FF8A9A093
:104D600001F05CF804F0A4FFB3A001F057F805B01F
:104D7000BDEC088BBDE8F08F00000000540000205F
:104D80000D0A3D3D3D3D3D3D3D3D3D3D3D3D3D3DB6
:104D90003D3D3D3D3D3D3D3D3D3D3D3D3D3D3D3D43
:104DA0003D3D3D3D3D3D3D3D3D3D3D3D3D3D0D0A96
:104DB0000000000020204D4F544F52202564205009
:104DC0004F4C45205041495253204D454153555277
:104DD000454D454E5420285050290D0A0000000032
:104DE0003D3D3D3D3D3D3D3D3D3D3D3D3D3D3D3DF3
:104DF0003D3D3D3D3D3D3D3D3D3D3D3D3D3D3D3DE3
:104E00003D3D3D3D3D3D3D3D3D3D3D3D0D0A0000AF
:104E10000000000000000840312E20416C69676EE0
:104E2000696E6720726F746F7220746F20656C6595
:104E30006374726963616C207A65726F2028553DD6
:104E4000252E316656292E2E2E0D0A00E4CB9640D3
:104E5000202020496E697469616C204D656368612A
:104E60006E6963616C20416E676C653A20252E3255
:104E7000662064656720285261773A202564290DF1
:104E80000A000000FDAD003D14AA000800003443F4
:104E9000000034C30000B443332E204D65617375A8
:104EA00072656D656E742046696E69736865643AF3
:104EB0000D0A0000202020546F74616C20456C6541
:104EC0006374726963616C20526F746174696F6E90
:104ED0003A20252E316620646567202825642066E7
:104EE000756C6C206379636C6573290D0A00000092
:104EF000202020546F74616C204D656368616E6979
:104F000063616C20526F746174696F6E3A20252E54
:104F10003266206465670D0A0000000020202043EF
:104F2000616C63756C6174656420506F6C652050B2
:104F3000616972733A2020202020252E33662028B4
:104F4000436C6F7365737420496E74656765723A5C
:104F5000202564290D0A0000CDCC4C3F2020203EA6
:104F60003E20434F4E434C5553494F4E3A204D6FD0
:104F7000746F7220686173203720504F4C45205069
:104F80004149525320283134206D61676E65747336
:104F900029203C3C0D0A00002020203E3E20434FAB
:104FA0004E434C5553494F4E3A204D6F746F72200B
:104FB00068617320313120504F4C45205041495297
:104FC0005320283232206D61676E65747329203C4E
:104FD0003C0D0A002020203E3E20434F4E434C55BE
:104FE00053494F4E3A204D6F746F722068617320A1
:104FF000256420504F4C45205041495253203C3CA1
:105000000D0A00003D3D3D3D3D3D3D3D3D3D3D3DAD
:105010003D3D3D3D3D3D3D3D3D3D3D3D3D3D3D3DC0
:105020003D3D3D3D3D3D3D3D3D3D3D3D3D3D3D3DB0
:105030000D0A0D0A000000004F4B2050500D0A00D1
:1050400010B51DA02DED028B00F0E8FE002000F051
:1050500063F8012000F060F8022000F05DF8002104
:10506000084604F0A9FD9FED208A0020B0EE481A02
:10507000F0EE480AB0EE480A04F0A0FC0120B0EEC1
:10508000481AF0EE480AB0EE480A04F097FC0220F5
:10509000B0EE481AF0EE480AB0EE480A04F08EFC72
:1050A0004FF0FF3004F02AFCBDEC028B0FA0BDE8EE
:1050B000104000F0B3BE00000D0A3D3D3D2053748A
:1050C000617274696E6720332D41786973204D5485
:1050D000363730312053656E736F7220416C6967CB
:1050E0006E203D3D3D0D0A00000000003D3D3D208D
:1050F000332D417869732053656E736F7220416C54
:1051000069676E2046696E6973686564203D3D3D40
:105110000D0A0D0A000000002DE9F04F2DED088B5F
:1051200087B00446DFED81AA8148032C90ED009AF8
:1051300005D3012007B0BDEC088BBDE8F08F7D489A
:10514000002505AA075DADF81050CDED05AA04A90C
:105150003846FCF7D1F800287BD00020DFF8D8A132
:10516000002878D004F1010909F0FF00012104F0C2
:1051700023FD322003F08CFB20469FED70AAF0EE59
:105180006A0AB0EE490AB0EE4A1A04F017FC4FF46E
:105190002F7B584603F07CFB204604F08BFD204615
:1051A00004F076FDF0EE409A0025DFED658A9FED74
:1051B000658A4FF4FA6600EE105A2046F0EE6A0A4D
:1051C000B8EEC01A81EE280AB0EE4A1A00EE081AAC
:1051D000B0EE490A04F0F2FB204604F06BFD3046C5
:1051E00003F061FB6D1CC82DE5DD204604F062FD77
:1051F000204604F04DFDB0EE40BAC82500EE105A2E
:10520000B0EE4A1A2046F8EEC00A80EEA80AF0EE88
:105210006A0A00EE081AB0EE490A04F0CFFB2046F5
:1052200004F048FD304603F03EFB6D1EE6D52046F7
:1052300004F040FDC82003F02BFB3BEE690A424915
:1052400010EE100A88420EDD30EE480A12E000E04F
:1052500001E0012082E77A1C611C3CA000F0DEFD29
:105260000AF804505EE010EE100A4649884201D95F
:1052700030EE080A0126DFF81081B5EEC00AF1EE23
:1052800010FA02DD48F8246003E04FF0FF3148F8DF
:1052900024102046B0EE4A1AF0EE6A0AB0EE490A2F
:1052A00004F08CFB584603F0F3FA204604F002FDAC
:1052B000364800EB84052046C5ED00AA03F0FEFA4F
:1052C00085ED000A2046B0EE6A1AF0EE6A0AB0EEEA
:1052D0006A0A04F073FB09F0FF00002104F06CFC83
:1052E0000AF8046095ED008A9FED290A9FED291ABE
:1052F00068EE000A80EE810A10EE100AFBF733FA1E
:1053000005460E4618EE100AFBF72DFA8DE86300ED
:1053100058F82400012807D01FA37A1C611C2048DC
:1053200000F07CFD002005E71EA3F6E7000000006A
:10533000680000205400002064000020E4CB964068
:1053400000004843DB0FC940DB0F4940416C6967EF
:105350006E204D25643A20456E636F646572206F40
:105360006E204932432564206973206E6F74206972
:105370006E7374616C6C65642028736B6970292E80
:105380000D0A0000DB0F49C058000020280800204B
:1053900000003443DB0F4940434357282D31290097
:1053A0000CB100084357282B31290000FEE700000C
:1053B00010B504462DED028BB0EE408A04F028F9BA
:1053C0009FED5E1A216A69B3411A00EE101AB8EE19
:1053D000400ADFED5B0A60EE200AF5EEC00AF1EE4E
:1053E00010FA04D910EE901AB1F17C5F01DDF0EEF5
:1053F000410A206294ED000AD4ED071A94ED041AD4
:1054000060EE082A94ED010A20EE080A40EE201A08
:10541000B1EE410AB4EEE10AF1EE10FA05DDF0EE6C
:10542000401A09E0F0EE410AD7E7B4EEE11AF1EED6
:1054300010FA01D2F0EE411AB0EE612AD4ED061A4C
:10544000F4EEC11AF1EE10FA04D3B5EEC08AF1EE13
:1054500010FA0BD8F4EEC01AF1EE10FA04DCB5EE37
:10546000C08AF1EE10FA01DB84ED072A94ED022ADE
:1054700094ED073AB5EEC02AF1EE10FA1CDD10EEFD
:10548000900A3049884217DDD4ED053A2E4978EE6E
:10549000633A62EE233A83EEA02A12EE100A8842A3
:1054A00002D9BFEE082A09E012EE100AB0F17F5FC0
:1054B00004DDB7EE082A01E09FED242A72EE832A6C
:1054C00084ED058A32EE822AB4EEC20AF1EE10FAB9
:1054D00009DCB4EEC21AF1EE10FA02D2B0EE410AC3
:1054E00001E0B0EE420A94ED031AB5EEC01AF1EEF7
:1054F00010FA1DDD10EE900A1549884218DD70EE95
:10550000612A82EEA02AB4EEC21AF1EE10FA04D299
:10551000B0EE610A01EE200A0AE0F1EE412AF4EE53
:10552000C22AF1EE10FA03DDB0EE610A01EE600A64
:1055300084ED060ABDEC028B10BD00006F12833AA9
:10554000BD37863517B7D1380000C0BF0000000056
:105550006F12033A704700002DE9F0412C4886B0E5
:105560004FF00008016841F002010160006800F09E
:105570000200059026481030016841F48041016026
:105580000068142100F4804005906846FAF752FE46
:1055900001244FF480550326CDE900541D4FCDE979
:1055A000024669463846FBF71BFF1A48183005606B
:1055B0004FF46040009001A9022081E851000520CD
:1055C000049069463846FBF70BFF1348C0F800808B
:1055D000016841F004010160016841F010010160BF
:1055E000016841F002010160016841F001010160C0
:1055F000016841F400710160016841F4807101604B
:10560000016841F04001016006B0BDE8F081000092
:10561000303802400004024000380040F0B50C4F22
:105620000E464FF080511546396040F0800000F082
:1056300011F8002405E0FF2000F00CF83055641C40
:10564000A4B2AC42F7D34FF480503860F0BD0000F4
:105650001804024010B54CF2503211460A4B01E0DA
:10566000491E0ED01C68A407FAD50749091D086019
:1056700001E0521E05D01868C007FAD00868C0B211
:1056800010BDFF2010BD00000838004030B5074CA9
:105690000D464FF08051216000F07F00FFF7DAFFE8
:1056A0002846FFF7D7FFA014206030BD1804024041
:1056B0007047000010B5194B00219FED171A9FEDA0
:1056C000180ADFED180A0A46B7EE082AF1EE081AA2
:1056D00003F16C0401EBC10003EB800080ED001AC4
:1056E00080ED012A80ED020A80ED030AC0ED041A64
:1056F00080ED050A80ED060A80ED070A026201EBE3
:10570000410004EB8000491CC0ED000A80ED010A55
:1057100082600329DEDB10BDCDCC4C3E7C0800202E
:1057200000000000A69B443CFCF762BA30B593B081
:1057300030216846FAF77EFD14210CA8FAF77AFDAD
:105740001E480025016841F080510160006800F0AA
:10575000805011901A48016841F48041016000684E
:10576000022400F480401190012000900004019078
:105770008001CDE90640192008904FF4A870CDE9CA
:10578000090404200B906846FCF7BEFB08B172B612
:10579000FEE70CA90F2081E831004FF4A0500F90D4
:1057A0004FF48050109005210CA8FCF7BBFA00289C
:1057B00001D072B6FEE713B030BD000040380240A1
:1057C000007000400248016841F4700101607047B8
:1057D00088ED00E0104808B50268002142F0080298
:1057E0000260006800F0080000900C4801600B4B5C
:1057F000532228331A604A1E1B1D1A60074A24329E
:105800001160064914310A6842F001020A60016819
:1058100041F00101016008BD40380240000C004029
:1058200038B512480024016841F010010160006899
:10583000224600F01000009001213620FCF740FACB
:105840003620FCF72FFA0A4804605321816240F2A7
:10585000E731C1620121C160416941F0010141614B
:10586000016841F00101016038BD0000403802408C
:105870000010004006480169C90708D06FF0010117
:10588000016104480168491C0160FCF7B1B9704727
:10589000001000403C00002005480168C90706D000
:1058A0006FF00101016003480168491C0160704705
:1058B000101400407C000020F0B50268274D284EEF
:1058C000284FDFF8A4C0294B4FF0804EA84209D0E2
:1058D000704507D0B04205D0B84203D0604501D032
:1058E000984203D122F070044A682243A8421BD098
:1058F000704519D0B04217D0B84215D0604513D0CA
:10590000984211D01A4CA0420ED01A4CA0420BD093
:10591000194CA04208D0194CA04205D0184CA04206
:1059200002D0184CA04203D122F44074CA6822432A
:105930004C6922F0800222438C68C4620C68846245
:10594000A84201D0984201D109690163016841F080
:1059500004010160012141610260F0BD00000140CD
:105960000004004000080040000C0040000401401A
:105970000040014000440140004801400018004040
:10598000001C00400020004010B501F01F01012361
:10599000046A8B409C430462036A8A401343036297
:1059A00010BD0000F0B5026A036A23F00103036230
:1059B00043688469114E24F073050C68104F2C4322
:1059C00022F002058A682A43B04201D0B84205D1CC
:1059D00022F00805CA682A4322F00402B04201D02E
:1059E000B84205D14D6923F440731D438B692B43A5
:1059F00043608461496841630262F0BD0000014078
:105A000000040140F0B5026A036A23F01003036248
:105A1000436884690D6824F4E64444EA05248D68EB
:105A200022F0200242EA05120F4D104EA84201D08A
:105A3000B04206D1CF6822F0800242EA071222F07B
:105A40004002A84201D0B04207D14D6923F440631F
:105A500043EA85038D6943EA8503436084614968AD
:105A600081630262F0BD00000000014000040140BB
:105A7000F0B5026A036A23F4807303624368C46961
:105A800022F4007224F073050C68124E2C438D68CA
:105A900042EA05220E4DA84201D0B04206D1CF689D
:105AA00022F4006242EA072222F48062A84201D076
:105AB000B04207D14D6923F4405343EA05138D6981
:105AC00043EA05134360C4614968C1630262F0BDE3
:105AD000000001400004014030B5036A026A22F46C
