:020000040800F2
:10000000980E0020A10100087D530008692A00080D
:10001000CD400008F5120008AD5D000800000000AA
:100020000000000000000000000000005156000821
:10003000F712000800000000F5540008C956000837
:10004000BB010008BB010008BB010008BB010008A0
:10005000BB010008BB010008BB010008BB01000890
:10006000BB010008BB010008BB010008BB01000880
:10007000BB010008BB010008BB010008BB01000870
:10008000BB010008BB010008BB010008BB01000860
:10009000BB010008BB010008BB010008BB01000850
:1000A000BB010008BB010008BB010008BB01000840
:1000B000BB010008BB010008BB010008BB01000830
:1000C000BB010008BB010008BB010008BB01000820
:1000D000BB010008F55C0008095D0008BB010008D1
:1000E000BB010008BB010008BB010008BB01000800
:1000F000BB010008BB010008BB010008BB010008F0
:10010000BB010008BB010008BB010008BB010008DF
:10011000BB010008BB010008155800083958000849
:10012000BB010008BB010008BB010008BB010008BF
:10013000BB010008BB010008BB010008BB010008AF
:10014000BB010008BB010008BB010008BB0100089F
:10015000BB010008BB010008BB010008BB0100088F
:10016000BB010008BB010008BB010008BB0100087F
:10017000BB010008BB010008BB0100080000000033
:10018000BB010008BB010008DFF810D000F03CFE06
:1001900000480047298A0008AFF30080980E00202D
:1001A0000648804706480047FEE7FEE7FEE7FEE711
:1001B000FEE7FEE7FEE7FEE7FEE7FEE7655700081D
:1001C000890100082DE9F05F0546002092469B4614
:1001D00088460646814640241BE02846414647465D
:1001E000224600F014FB53465A46C01A914110D3E0
:1001F00011461846224600F0FBFA2D1A67EB01085B
:100200004F4622460120002100F0F2FA17EB0009C8
:100210004E41201EA4F10104DFDC484631462A4647
:100220004346BDE8F09FD2B201E000F8012B491E21
:10023000FBD270470022F6E710B513460A46044683
:100240001946FFF7F0FF204610BD30B505460020E7
:10025000034600E05B1C934205D2EC5CC85C201AAC
:1002600001D1002CF6D130BD0FB400B58DB010A96E
:1002700009900B9000914FF0FF300A9000200C90F5
:1002800005480690054807906A4609A80F9900F0AE
:10029000E3FA0DB05DF814FB750800089308000838
:1002A0002DE9FF5F1D464FF0FF3BD5E90146914622
:1002B0005F464FF00008A9697F1C01988847296AAA
:1002C000824688470028F6D1BAF1FF3F0CD024F4CB
:1002D000C064002E19DD600614D5BAF12B0F09D0C9
:1002E000BAF12D0F0ED103E0584604B0BDE8F09FDF
:1002F00044F48064A9697F1C01988847761E824671
:10030000002E02DDBAF1300F03D0B9F1000F26D074
:1003100032E0A969761E44F400747F1C0198884776
:100320008246002E05DDBAF1780F06D0BAF1580FDB
:1003300003D0B9F1000F10D01EE0B9F1000F02D0C8
:10034000B9F1100F18D1A969761E24F400747F1C2E
:10035000019888478246102002E0082000E00A2029
:10036000814609E008FB0908A969761E44F4007477
:100370007F1C019888478246002E05DD494650467D
:1003800000F055FA0028EDDAE96901988847A005E0
:1003900002D46FF00100A8E7E00725D1600613D56D
:1003A000600502D5C8F1000000E0404629680A1D3A
:1003B0002A600968220501D5087015E0220701D5D9
:1003C000088011E008600FE02868011D29600068BE
:1003D000210502D580F8008006E0210702D5A0F8AB
:1003E000008001E0C0F8008038467EE72DE9FF4F2D
:1003F000087883B09946FF2805D0491C2D2804D0E1
:100400000024002008E000200BE00124F9E700EBC5
:10041000800003EB4000491C0B78FF2BF7D104B19F
:10042000404200230293147819461D462D2C01D01A
:100430002B2C04D1521C2D2C13D000240294AA463C
:100440001478FF2C0FD00A25A3FB057801FB05814A
:100450004FF0000C03FB0C11521CE3194AEB010195
:10046000EEE70124EAE7814453EA010002D019F5DE
:10047000C87F06DA03980021C0E9001107B0BDE883
:10048000F08F0025AE4E2F46DFF8B882184600F0F8
:100490007FFCCDE90001B9F1000002DAC9F10004E6
:1004A00000E004460023A74A1AEB030B42EB045A70
:1004B00012E0E00707D02A4633463846414600F0AE
:1004C00086FB074688462A4633461046194600F002
:1004D0007EFB05460E466410002CEAD1DDE90001E2
:1004E000B9F1000F5A46534606DA00F0E2FB3A46ED
:1004F000434600F0DEFB05E000F069FB3A46434668
:1005000000F065FB029A0AB181F00041039AC2E94A
:100510000001B3E72DE9FF4F1F468DB0D7E9014633
:100520004FF0FF382E2045464FF000090B90B96977
:100530006D1C0E988847396A824688470028F6D194
:10054000BAF1FF3F0AD024F4D064002E11DDBAF1D5
:100550002B0F08D0BAF12D0F0BD102E0404611B09D
:100560008DE744F48064B9696D1C0E988847824613
:10057000761E6946600501D52D2000E02B208DF800
:10058000000001F1010B0DF1200809E0B9696D1CB3
:100590000E98884782460F9844F40074761E0560D2
:1005A000002E02DDBAF1300FF0D00B998A453ED112
:1005B00044F0800406E00F99681CA9F1010944F495
:1005C00000740860B9696D1C761E0E9888478246D3
:1005D0003028F0D02BE00B998A4505D1200603D4B2
:1005E00044F08004761E18E0504606F019F908B36E
:1005F0000DF11301761E44F400748B4508D2AAF164
:1006000030000BF8010B200607D5A9F1010003E02B
:10061000200602D409F101008146A00502D50F99F8
:10062000681C0860B9696D1C0E9888478246002EC8
:10063000D1DC53E0002E51DDBAF1650F02D0BAF1E2
:10064000450F4BD1A00549D5B9696D1C24F4407400
:10065000761E0E9888478246002E0CDD2B2804D08B
:10066000BAF12D0F07D144F48074B9696D1C0E984E
:1006700088478246761EE00501D52D2100E02B211A
:1006800008F8011BCDF82C8021E00DF12901761E20
:1006900044F4007488450CD2AAF1300010F0FF0039
:1006A00088F8000002D10B99884509D908F10108A2
:1006B00006E0E00501D5244801E042F20F708146D2
:1006C000B9696D1C0E98884782460F980560002E08
:1006D00004DD504606F0A4F80028D6D1F9690E983A
:1006E0008847FF208BF8000088F800000020069063
:1006F00007904B466A4608A906A8FFF777FEA005B3
:1007000002D46FF001002AE714F0240F0AD0E007AA
:1007100014D1DDE906123868031D3B600068C0E9AA
:1007200000120BE0DDE9060100F030F80146E007B9
:1007300004D13868021D3A600068016028460EE75F
:10074000000014400000F03FF1D8FFFF70B50646EE
:1007500005F062FB046805460A220021304600F0DD
:10076000F7F82C6070BD00F0004230F000400AD075
:10077000C10D01F56071C0F3160042EA0151C208D3
:1007800040071143704700200146704701F00043C5
:1007900030B421F0004150EA010206D00A0DA2F562
:1007A0006072C1F31301002A02DC30BC00207047E4
:1007B000440F44EAC104C100E01830BC00EBC25051
:1007C00000F0FEB830B50B4601460020202201247F
:1007D00009E021FA02F59D4205D303FA02F5491B0F
:1007E00004FA02F52844151EA2F10102F1DC30BD25
:1007F000202A04DB203A00FA02F1002070479140E1
:10080000C2F1200320FA03F3194390407047202AD5
:1008100004DB203A21FA02F00021704721FA02F3AA
:10082000D040C2F1200291400843194670473A284F
:1008300000D2303820F02002412A01D3A2F1370043
:10084000884201D34FF0FF30704700000268114426
:100850001378016018467047D1600449516104491A
:10086000116200211161114600F000BB4D08000823
:10087000590E0008426842B1016811F8013B23B1EA
:10088000521EC0E90012184670470121C160881E3F
:10089000704742685AB1C368016843B983688B42A4
:1008A00005D0491E521CC0E90012002070474FF0CD
:1008B000FF3070470FB4002300B589B00CA9009138
:1008C0000B996FF00042CB601E4B06931E4B0793B3
:1008D0000423CDE901321D4A089202466B460020EE
:1008E000FFF718FE09B05DF814FB70B586B0064638
:1008F0004FF0FF300091CDE90101002015460C4674
:1009000004903246694604A8FFF7D4FF02460498D3
:10091000211825B108B1084600E020462860049857
:1009200000280DD0002A02DD0098884208D0081B5C
:100930000094CDE901043246694604A8FFF7BAFFE6
:1009400006B070BD7508000893080008590E00082D
:100950002DE9F04791460F4680460446002614F8DC
:10096000015B2DB100F074FA0068405DC007F6D15C
:100970002B2D02D02D2D18D0641E4A463946204614
:1009800000F00CFC27B13968A14201D1C7F8008002
:1009900071054FF002040BD54042002803DD05F03D
:1009A0003BFA0460A007BDE8F08746F48066E4E700
:1009B0000028F8DA05F030FA04606FF00040F2E742
:1009C0000029A8BF7047401C490008BF20F0010063
:1009D000704710B4B0FA80FC00FA0CF050EA010441
:1009E00004BF10BC704749B1CCF1200421FA04F4D3
:1009F00011FA0CF118BF012121430843A3EB0C01AC
:100A0000CB1D4FEA00614FEA102042BF002010BC0E
:100A1000704700EBC35010440029A4BF10BC7047BE
:100A2000401C490008BF20F0010010BC7047F0B422
:100A300000F0004221F0004120F00040CE0DC30D37
:100A4000C1F3160141F40001C0F316004C421546F3
:100A500040F40000761E09E010EB440002D582F05D
:100A6000004240428842F7D840005B1EB342F9DAA8
:100A700018B1F0BC0021FFF7ACBF2846F0BC7047AE
:100A80002DE9FE4F804681EA0300C00F0C4600901E
:100A900021F0004123F00045B8EB0200A94105D246
:100AA0004046214690461C460B46024623F0004035
:100AB000104347D0270DC7F30A00C3F30A51029031
:100AC000401A019040286BDAC3F3130040F4801BF6
:100AD0000098924620B10023D2EB030A63EB0B0B84
:100AE00001985946C0F140025046FFF781FE064684
:100AF0000D4650465946019A00F098F910EB08004F
:100B00006141002487EA115284EAE7731A4340D016
:100B1000009A62B3019A012A4FEA075215DC001BC2
:100B200061EB02014FF0004202EA0752CDE90042B8
:100B3000001C41F5801132462B4600F08DFB03B0BE
:100B4000BDE8F08F40462146F9E7001B61EB02014A
:100B5000001C41F5801300185B412018A2F5001716
:100B600047EB030140EAD570B6196D4111E06D08FD
:100B70004FEA360645EAC0754FEA0752001B61EBA3
:100B80000201001C41F5801149084FEA30000019AC
:100B9000514132462B4603B0BDE8F04F00F04DBB4B
:100BA0000098012240000023D0EB020263EBE073C7
:100BB000009821464FEAE074B8EB000061EB0401B5
:100BC000E9E783F000435BE781F0004158E72DE956
:100BD000FE4F81EA030404F0004421F00041009438
:100BE0004FF0000B23F0004350EA01045ED052EABC
:100BF00003045BD0C3F30A54C1F30A552C44A4F296
:100C0000F3340194A0FB0254C1F3130141F48011A9
:100C1000C3F3130343F4801301FB024400FB034EB0
:100C2000840A970A44EA815447EA8357A4FB076879
:100C300002958D0A05FB07854FEA932C04FB0C54A3
:100C40002705029D4FEA065847EA1637B5EB080517
:100C50006EEB070C870E920E47EA811742EA831269
:100C6000A7FB0201B6EB0B0164EB00042B0D43EA7A
:100C70000C335E1844EB1C50DA465146E7FB020188
:100C8000C5F313044FEA0B3343EA14534FEA04321B
:100C9000019C43EA0603A4F10C040294009CCDE9F4
:100CA00000B400F0D9FA03B0BDE8F08F002001468F
:100CB000F9E72DE9F04D81EA030404F0004B21F03F
:100CC000004514464FF0000A23F0004150EA0502A7
:100CD00020D054EA01021DD0C5F30A570246C5F3DD
:100CE0001303C1F31300C1F30A5640F4801543F413
:100CF0008013A7EB0608101BD64608F2FD3873EBED
:100D0000050002D308F1010801E092185B41B8F137
:100D1000000F03DA00200146BDE8F08D00204FF4FB
:100D20008011064684460EE0171B73EB050705D3BA
:100D3000121B63EB050306434CEA010C49084FEA1A
:100D4000300092185B4150EA0107EDD152EA0300EE
:100D500012D082EA040083EA0501084305D0101B83
:100D6000AB4106D20122002306E000224FF00043EF
:100D700002E06FF0010253101AEB06004CEB085131
:100D800010EB0A0041EB0B01BDE8F04D00F055BA45
:100D90000EB540F2334202920022CDE90022134602
:100DA00000F05AFA03B000BDC1F30A52C1F31301B7
:100DB00040F2FF3341F480119A4202DA00200146EA
:100DC000704740F233439A42A2F2334202DC52426D
:100DD000FFF71DBDFFF70CBD30B5041E71F1000417
:100DE00004DB4FF00044404264EB0101141E73F138
:100DF000000405DB1C464FF00043524263EB040342
:100E0000994208BF904230BD064C074D06E0E068AD
:100E100040F0010394E8070098471034AC42F6D341
:100E2000FFF7B6F998AE0008B8AE0008202A06DB36
:100E3000CB17203A41FA02F043EAE07306E041FAA8
:100E400002F3D040C2F12002914008431946704796
:100E500000487047389D000810B50446FFF7F8FFBA
:100E60000068005D00F0010010BD00002DE9F34FA7
:100E70008BB04FF0000801F10C000C464FF0010B55
:100E800046460DF1080A01906269012101989047D8
:100E9000051E2DD0252D2CD0216A8847C0B162694E
:100EA000012101989047216A88470028F7D1411E07
:100EB00062690198904700E0761CA1690B98884709
:100EC000216A88470028F7D1E1690B988847DBE75A
:100ED000A1690B9888470746A84201D1761CD3E741
:100EE000E1690B9888477F1C02D1B8F1000F6FD0E1
:100EF00047E1002762693D463946019890472A2814
:100F000004D162690121019890470125DFF8889298
:100F10006269012101989047A0F130010A290AD2A3
:100F20004F45E5DC07EB870100EB4107303FDFD49D
:100F300045F01005ECE7E90601D46FF000476C2896
:100F40000AD04C2814D0682815D06A280DD07428EF
:100F50001CD07A281AD01DE06269012101989047BF
:100F60006C2802D045F0040514E045F002050DE0C0
:100F700045F020050AE06269012101989047682840
:100F800002D045F0080505E045F4006562690121DD
:100F900001989047C4E9015765283DD019DC5828CD
:100FA0007AD00CDC452837D004DC252826D041280F
:100FB00031D131E046282FD047282CD12CE05B28B6
:100FC00077D0612828D063287CD0642823D15AE0C8
:100FD000D1E06F2848D008DC66281DD067281BD0D8
:100FE000692821D06E2816D127E0702845D07328B3
:100FF00068D0752847D078280DD14DE0A1690B98AD
:101000008847054625283FF469AFE1690B98884772
:101010006D1C3FF46AAFB4E023466A466FF00100EE
:101020000B99FFF777FA9FE045F040006060A80752
:1010300023464FF0000236D43EE0E8077FF447AF86
:101040002068011D21600068290501D506701BE795
:10105000290701D5068017E7A90703D5F117C0E9CD
:10106000006111E706600FE745F040006060A807E7
:1010700023464FF0080216D41EE040F60E0125EA82
:101080000100606016E045F040006060A80723465C
:101090004FF00A0207D40FE045F040006060A80757
:1010A00008D5234610226FF001000B99AFF30080A2
:1010B0005AE007E0234610226FF001000B99FFF77A
:1010C000EFF851E04FF000094F464B46632802D03D
:1010D0005B2807D041E02079C00601D40120A06040
:1010E00001273AE062690121019890475E2805D105
:1010F0004FF001096269494601989047216939B961
:1011000000210A46534643F82120491C0829FADBEE
:10111000B0B3216969B9C11700EBD16253110AEB71
:10112000830122F01F02821A01200B6890400343C2
:101130000B6062690121019890475D28E8D1B9F1FF
:10114000000F09D00020514651F82020D24341F829
:101150002020401C0828F7DB02AB224600976FF0E6
:1011600001000B99AFF3008000280CDA401C08D175
:10117000BBF1000F05D04FF0FF300DB0BDE8F08F90
:10118000FFE74046F9E7E90701D108F10108064405
:101190004FF0000B78E60000CCCCCC0C2DE9F05FD2
:1011A00082460078002715468B460AF10104B946AD
:1011B000302801D09DB113E014F8010B01277828E5
:1011C00003D0582801D045B10AE00DB1102D07D148
:1011D0000027102514F8010B02E0082500E00A257D
:1011E0000026B0460EE005FB080005FB06F10127CE
:1011F00001EB10461FFA80F8B6F5803F00D3B946E0
:1012000014F8010B2946FFF712FB0028EBDABBF1BB
:10121000000F05D00FB1641E00E05446CBF800402B
:10122000B9F1000F06D004F0F7FD02210160C81EDD
:10123000BDE8F09F48EA0640FAE710B5141E73F1C6
:10124000000408DA401C41F1000192185B411A4386
:1012500001D120F0010010BD2DE9F04D92469B46D2
:1012600011B1B1FA81F202E0B0FA80F22032904678
:10127000FFF7BEFA04460F4640EA0A0041EA0B01B6
:1012800053465A46084313D0114653EA010019D079
:10129000C8F140025046FFF7BAFA05460E465046DE
:1012A00059464246FFF7A4FA084305D0012004E05E
:1012B00020463946BDE8F08D0020054346EAE07639
:1012C0002C4337430A986305E40AA0EB0800002288
:1012D000FD0A44EA47540A3002D500200146E9E7F6
:1012E000010510196941DDE9084500196941BDE8AA
:1012F000F04DA2E7FEE77047AFF300800B4628B140
:10130000012807D0022809D001207047114618464D
:1013100007F008BA1146184607F04CBA11461846AD
:1013200007F08ABA72B6FEE72DE9F0410446876DF0
:1013300000F050F9054694F835000026022806D042
:101340008020606584F834600120BDE8F081206869
:10135000016821F0160101602068416921F08001D7
:101360004161206C08B9A06C20B12068016821F0AF
:10137000080101602068016821F0010101600CE0B2
:1013800000F028F9401B052807D9202060650320BC
:1013900084F8350084F83460D7E720680068C00717
:1013A000EED194F85C103F208840B860012084F8AA
:1013B000350084F834600020C7E790F83510022922
:1013C00003D08021416501207047052180F8351048
:1013D0000068016821F001010160002070470000F1
:1013E0002DE9F84FDFF89C910022A9F1040B0327A7
:1013F0004FF00F0C09F1040AABF1040E01250B6844
:1014000095402B40AB426ED10C7904F00304012CC3
:1014100001D0022C15D18668540007FA04F826EA98
:101420000806D1F80C8008FA04F848EA0608C0F863
:1014300008804468AC430D79C5F3001595402543F9
:1014400045600C79E443A40708D0C568540007FA46
:1014500004F6B5438E68A6402E43C6600C7904F0AE
:101460000304022C11D1D40800EB8406356A54071A
:10147000E40E0CFA04F825EA0805D1F8108008FA01
:1014800004F848EA0508C6F820800568540007FA01
:1014900004F6B5430E7906F00306A6402E43066017
:1014A0004C6814F4403F66D0374C256845F48045BD
:1014B0002560246822F0030504F480440094334C32
:1014C00005EB0408D8F808589407260F0CFA06F420
:1014D000A5432F4CA04201D1002424E02D4CA04272
:1014E00002D101241FE046E02B4CA04201D102248E
:1014F00019E02A4CA04201D1032414E0284CA04258
:1015000001D104240FE0274CA04201D105240AE0B8
:10151000254CA04201D1062405E0244CA04201D173
:10152000072400E00824B4402C43C8F80848D9F840
:1015300000404D464E689C43F60200D51C432C608B
:10154000DAF8004055464E689C43B60200D51C436D
:101550002C60DBF800405D464E689C43B60300D526
:101560001C432C60DEF8004075464E689C43F60331
:1015700000D51C432C60521C102AFFF43FAFBDE87D
:10158000F88F0000083C0140443802400030014020
:10159000000002400004024000080240000C02402B
:1015A000001002400014024000180240001C0240DB
:1015B0000069084000D001207047426921EA020317
:1015C0000A4043EA0241816170470AB18161704774
:1015D0000904FBE7014880687047000040000020D4
:1015E00070B5040025D094F83D00002520B984F89A
:1015F0003C50204600F070FA242084F83D0020681A
:10160000016821F0010101602068016841F4004196
:1016100001602068016821F40041016000F022FCB3
:101620004D4B6168994201D84C4900E04C498842D1
:1016300001D2012070BD4B492268B0FBF1F1566820
:1016400026F03F060E43566062689A4206D94FF470
:10165000967251434FF47A72B1FBF2F12268491C41
:10166000166A26F03F06314311626168994210D82C
:101670004900401EB0FBF1F2521CC2F30B02042AD7
:1016800001D2042022E0B0FBF1F0401CC0F30B00BB
:101690001CE0A268F2B301EBC10303EB0116431E89
:1016A000B3FBF6F35B1C43F480431B0549D092B3B4
:1016B00001EBC10202EB0111401EB0FBF1F0401C36
:1016C000C0F30B0040F4804040F400402168CA6938
:1016D0004CF6FF739A431043C861D4E907100143E5
:1016E0002068026822F0C00211430160D4E90301BE
:1016F00001432068826848F2FF339A4311438160B6
:10170000D4E9051001432068C26822F0FF021143AA
:10171000C16001E00EE016E02068016841F00101BF
:1017200001602564202084F83D00256384F83E5044
:10173000002070BD01EB4106431EB3FBF6F35B1CBA
:10174000B3E70120C2E701EB4101401EB0FBF1F01D
:10175000401CC0F30B00B7E7A086010080841E0088
:1017600000093D0040420F002DE9FF4F81B01F46A8
:1017700093460446FFF72EFF054694F83D000026E9
:1017800020287DD11923012250492046009501F0DF
:1017900001FA002874D194F83C00012870D001208F
:1017A00084F83C0020680168C90703D1016841F052
:1017B000010101602068016821F4006101602420BA
:1017C00084F83D004FF0000AC4F840A04048E062B1
:1017D0004FF020092068016841F4807101603B46A8
:1017E00000224FF001112046009501F0D3F950B1CD
:1017F00020680068C00502D54FF400702064032003
:1018000005B0BDE8F08F0298216800F0FE00086185
:10181000FFF7E0FE0546206841694069C1F34001D9
:10182000C0F380204FF0A0080EE0FFF7D3FE401B6E
:10183000B84200D80FB984F83D80206841694069FA
:10184000C1F34001C0F3802094F83D20A02A02D0CB
:1018500009B90028E9D084F83D9020684169C9435E
:10186000890717D4016841F4007101602068564669
:10187000416980691923012214492046009500E03E
:1018800022E001F087F9A8B984F83D9084F83C6023
:101890000020B5E7016841F40071016021686FF430
:1018A000806048611923012208492046009501F013
:1018B00071F908B10120A3E7761C5E458AD384F84C
:1018C0003D9084F83CA0F5E7022099E70200100063
:1018D0000000FFFF2DE9FF4F83B09A46DDE9118735
:1018E00093460446DDF84090FFF774FE054694F8F1
:1018F0003D00202870D1192301227449204600950B
:1019000001F048F90028F5D194F83C00012863D093
:10191000012084F83C0020680168C90703D10168F0
:1019200041F0010101602068016821F4006101605B
:10193000222084F83D00402084F83E0000262664E2
:10194000C4F82490A4F82A80608D20856048E06265
:10195000CDE9007553465A462046049901F09CF89B
:10196000002879D1208DD0B1012821D0022820680B
:1019700024D0416980690090208D032866D8012811
:101980002BD0544902283B464FF00002009557D017
:101990008846204601F0FEF800285DD13AE0206834
:1019A000416981690091016841F4007101607DE045
:1019B0002068016821F480610160F0E7016821F48A
:1019C000806101602068016841F400610160206865
:1019D00041698069009069E075E02A4639462046F1
:1019E00001F079F988BB54E02068016841F4007186
:1019F000016020680069616A0870606A401C60626A
:101A0000218D491E2185618D491E618521680969E5
:101A1000017042E02068016821F480610160206863
:101A20000069616A0870606A401C6062208D401E17
:101A30002085608D401E60853B4600224146009512
:101A4000204601F0A7F800B9CEE705E02A4639465E
:101A5000204601F040F918B1012007B0BDE8F08F31
:101A600020680069616A0870606A401C6062208DAD
:101A7000401E81B22185608D401E608520684269CC
:101A8000D243520712D4032903D1016821F48061A3
:101A9000016020680069616A0870606A401C6062C9
:101AA000208D401E2085608D401E6085208D002881
:101AB0007FF462AF202084F83D0084F83E6084F813
:101AC0003C600020C9E70220C7E7000002001000C8
:101AD0000000FFFF040001002DE9F04186B004463C
:101AE00014216846FEF7A6FB21683A4C384B39486A
:101AF00012220126032504271034994218D10168C7
:101B000041F0020101600068694600F002000590A2
:101B1000C0208DE84500CDE903572F48FFF760FC52
:101B2000206840F400102060206800F400101AE0E3
:101B30002A4B99421BD1016841F0200101600068E5
:101B4000CDE9005200F02000CDE90470CDE9026536
:101B500069462348FFF744FC206840F48000206079
:101B6000206800F48000059006B0BDE8F0811D4BB0
:101B70009942F9D1016841F004010160016801F066
:101B800004010591016841F0010101600068CDE99F
:101B9000026500F0010005905815CDE9000290465D
:101BA000694604971048FFF71BFC4FF48070CDE99D
:101BB0000008CDE90265694604970C48FFF710FC60
:101BC000206840F400002060206800F40000CAE7AC
:101BD00000540040303802400004024000580040E9
:101BE00000140240005C0040000802400000024077
:101BF00002488168027811448160704740000020EB
:101C00000B4810B5016841F400710160016841F4AE
:101C100080610160016841F480710160032000F07F
:101C20006FF80F2000F006F800F024F8002010BD37
:101C3000003C024070B50D4D04464FF47A7128788F
:101C4000B1FBF0F00A490968B1FBF0F000F008FBC5
:101C500048B9102C07D200222146501E00F030F85F
:101C600000206C6070BD012070BD000040000020AD
:101C70004C0000200A4808B5016841F48041016029
:101C8000006800F4804000900548001F016841F0A2
:101C900080510160006800F08050009008BD000095
:101CA00044380240002809DB00F01F020121914066
:101CB0004009800000F1E020C0F8001170470000EA
:101CC000F0B40E4B1B68C3F30223C3F10704042CCA
:101CD00000D904241D1D072D01D2002300E0DB1EC6
:101CE000012606FA04F56D1E0D409D409E40761EAD
:101CF000164045EA0601F0BC04F07DB80CED00E0AA
:101D0000064A00F0070110684FF6FF03184040EA4A
:101D10000120034908431060704700000CED00E00B
:101D20000000FA052DE9F0470D46040065D0DFF804
:101D30001491D9F80000EFB200F00700A84207D2D2
:101D400089F80070D9F8000000F00700A84254D1CB
:101D500020683D4E810712D5400703D5306840F416
:101D6000E05030602078000703D5306840F46040D0
:101D700030603068A16820F0F000084330602078BF
:101D8000C0072DD0304960680839012812D00228D8
:101D900013D0032811D00968890700292DDA31688A
:101DA00021F0030101433160FFF714FC804641F24A
:101DB000883A0EE009688903EFE709688901ECE7D2
:101DC000FFF708FCA0EB0801514502D90320BDE84C
:101DD000F0873068616800F00C00B0EB810FEFD144
:101DE000D9F80010484601F00701A94207D9077049
:101DF000006800F00700A84201D00120E7E7207842
:101E0000400705D53068E16820F4E05008433060B1
:101E10002078000706D53068216920F4604040EA48
:101E2000C100306000F03EF83168084AC1F3031188
:101E3000515CC8400649086006480068FFF7FAFE92
:101E40000020C4E7003C0240083802407C9C0008A7
:101E50004C0000204400002001480068704700004A
:101E60004C0000200448054900680968044AC1F391
:101E70008221515CC84070474C0000200838024065
:101E80008C9C00080448054900680968044AC1F3AD
:101E90004231515CC84070474C0000200838024075
:101EA0008C9C0008154810B5006810F00C0114480F
:101EB00013D0144B04290FD008290ED10F4C241F26
:101EC000216801F03F022168490207D52068C0F36C
:101ED0008810A0FB030106E0184610BD2168C1F37D
:101EE0008811A1FB00010023FEF76CF92168C1F302
:101EF0000141491C4900B0FBF1F010BD0838024017
:101F00000024F40040787D012DE9F84F040075D0DD
:101F10002078DFF838A3C007AAF1040548D00AF1F9
:101F200004000168C1F38101012908D00068C0F3F1
:101F3000810002280AD1DAF80000400206D528689C
:101F4000800335D560680028E1D031E06068B0F5E5
:101F5000803F10D0B0F5A02F286810D020F480303A
:101F60002860286820F4802028606068A0B1FFF70E
:101F700031FB06460CE0286840F48030F4E740F47A
:101F800080202860F7E7FFF725FB801B642871D8C5
:101F900028688003F7D50BE0FFF71CFB064604E03A
:101FA000FFF718FB801B6428F1D828688003F7D45A
:101FB0002078DFF89C9280074FF0000B3DD5A348B6
:101FC000001D016811F00C0F08D00068C0F38100FB
:101FD00002280AD1DAF80000400206D428688007F7
:101FE00015D5E068012809D111E0E068B8B10120F9
:101FF000C9F80000FFF7EEFA064605E022E1FFF718
:10200000E9FA801B0228C2D828688007F7D528681B
:10201000216920F0F80040EAC10028600DE0C9F80D
:1020200000B0FFF7D7FA064604E0FFF7D3FA801BAB
:1020300002281FD828688007F7D42078000722D507
:10204000824F84486169703771B101210160FFF7E7
:10205000C1FA064604E0FFF7BDFA801B022809D842
:1020600038688007F7D50EE0C0F800B0FFF7B2FA85
:10207000064605E082E0FFF7ADFA801B02287DD816
:1020800038688007F7D42078400765D56F484FF04F
:1020900000083C300068C0000BD46C483C3001683C
:1020A00041F08051016000684FF0010800F080505D
:1020B0000090694F3868C0050FD4386840F48070CC
:1020C0003860FFF787FA064604E0FFF783FA801BC3
:1020D000022853D83868C005F7D55C4FA0686C3724
:1020E00001280FD00528386810D020F00100386092
:1020F000386820F004003860A068B0B1FFF76AFAD1
:1021000006460EE0386840F00100F4E740F00400B5
:102110003860F7E7FFF75EFA811B41F288308142B1
:1021200063D838688007F5D50DE0FFF753FA064607
:1021300006E0FFF74FFA811B41F28830814254D804
:1021400038688007F5D4B8F1000F05D03F483C301F
:10215000016821F080510160A069B8B33B49091DB5
:102160000968C1F38101022946D00228584606D0E9
:10217000C9F86000FFF72EFA044639E035E04F4613
:10218000C9F86000FFF726FA064604E0FFF722FAD6
:10219000801B022829D828688001F7D4D4E90701D8
:1021A0000843A16A2D4A490802EB0141626A41EAEB
:1021B0008211084394F82C1040EA0161CAF800101B
:1021C00001203866FFF706FA044605E03CE0FFF719
:1021D00001FA001B022808D828688001F7D533E0EF
:1021E000FFF7F8F9001B022802D90320BDE8F88F99
:1021F00028688001F4D427E00128F7D0DAF800003D
:10220000E26900F4800191421CD1226A00F03F0192
:10221000914217D147F6C071626A0140B1EB821F4B
:1022200010D1A26A4FF0FF3300F4403103EB5202A9
:10223000B1EB024F06D194F82C1000F07060B0EBB7
:10224000016F01D00120D1E70020CFE70438024020
:1022500000004742800E4742007000400000FFFF30
:1022600010B5401EB0F1807F01D3012010BD4FF0AA
:10227000E02460610F21601703F0BDFD0020A06124
:1022800007202061002010BD10B590F83C20012AE5
:1022900022D0012280F83C20CA688C6822F4407267
:1022A00022434C6822F4806222430C6822F40062CC
:1022B00022430C6922F4805222434C6922F40052DA
:1022C0002243C969002322F480420A4301684A6418
:1022D00080F83C30002010BD022010BD70B590F891
:1022E0003C20012A32D0012580F83C50022280F89F
:1022F0003D2002685368946823F070060B683343EE
:102300005360134B02689A4214D0B2F1804F11D03F
:10231000104B9A420ED0104B9A420BD00F4B9A4260
:1023200008D00F4B9A4205D00E4B9A4202D00E4B6A
:102330009A4204D1496824F080031943916080F8DF
:102340003D50002180F83C10084670BD022070BD51
:10235000000001400004004000080040000C004064
:1023600000040140004001400018004070B586B0F4
:10237000044614216846FDF75DFF2B4A21680024BE
:102380002A4802250126914211D1016841F010012D
:1023900001600068694600F0100005904FF4285075
:1023A0000090CDE90154CDE90346214822E0214ABD
:1023B000914223D1016841F001010160016801F0FF
:1023C00001010591016841F0020101600068694660
:1023D00000F002000590C0200090CDE9015416489D
:1023E000CDE90345FEF7FCFF0096CDE901546946AF
:1023F000124815E0FEF7F4FF06B070BD104A914296
:10240000FAD1016841F0080101600068694600F0F6
:10241000080005904FF4E0400090CDE901540948D0
:10242000CDE90345E6E700000000014030380240F6
:10243000001002400004004000000240000402407E
:1024400000080040000C024070B5044690F83C00C3
:1024500000260D4601280FD0012084F83C006AB107
:10246000042A1DD0082A2FD00C2A3FD00126002094
:1024700084F83C00304670BD022070BD206803F037
:1024800061FA2068816941F00801816120688169F1
:1024900021F004018161206881692A69114311E0FA
:1024A000206803F07FFA2068816941F4006181614E
:1024B0002068816921F480618161206881692A69CD
:1024C00041EA02218161D2E7206803F0A1FA206885
:1024D000C16941F00801C1612068C16921F00401AE
:1024E000C1612068C1692A69114311E0206803F0C5
:1024F000C3FA2068C16941F40061C1612068C16903
:1025000021F48061C1612068C1692A6941EA022120
:10251000C161ACE710B5040003D094F83D0010B1E0
:1025200007E0012010BD002084F83C00204600F0A8
:102530001FF8022084F83D00211D206803F08CF96B
:10254000012084F8460084F83E0084F83F0084F8B7
:10255000400084F8410084F8420084F8430084F885
:10256000440084F8450084F83D00002010BD0000C0
:1025700008B500681249884208D11248016841F044
:1025800001010160006800F001000BE00D490E4AF6
:10259000091F904208D1086840F0020008600868EE
:1025A00000F00200009008BD084A9042FBD1086884
:1025B00040F004000860086800F00400F2E7000042
:1025C0000000014044380240000400400008004080
:1025D00010B5044649B104290AD008290BD094F853
:1025E000410001280AD0012010BD94F83E00F8E710
:1025F00094F83F00F5E794F84000F2E70220B1B309
:10260000042938D0082939D084F8410001222068F3
:1026100003F08AF91B4920681B4A884201D0904286
:1026200003D1436C43F4004343642068884213D0D1
:10263000B0F1804F10D0154988420DD0144988421E
:102640000AD01449884207D0904205D012498842E6
:1026500002D01249884204D1816801F0070106299D
:1026600003D0016841F001010160002010BDFFE7C7
:1026700084F83E00CAE784F83F00C7E784F84000CA
:10268000C4E70000000001400004014000040040D5
:1026900000080040000C00400040014000180040CD
:1026A00070477047F8B5016804460868CA684B6906
:1026B00010F00F0F4FF0000559D003F0010602F49F
:1026C0009077374365D0C10705D0D10503D5616C3C
:1026D00041F001016164410705D5D90703D0616C60
:1026E00041F002016164810705D5D90703D0616C0F
:1026F00041F004016164010707D502F02001314374
:1027000003D0616C41F008016164616C00293AD02A
:10271000800604D5900602D5204603F003FA20680F
:102720004069616CC0F38010090700D460B3204693
:1027300003F0D1F920684069400621D520681430A3
:1027400050E8001F21F0400140E80012002AF5D1B6
:10275000E06BA8B172490165E06BFEF72EFE002820
:1027600011D0E06B016D01B0BDE8F0400847830671
:102770000FD593060DD52046BDE8F84003F0D2B939
:102780002046FFF78EFFF8BD2046FFF78AFF6564FD
:10279000F8BD266B2023012E7ED1C6067CD5D60639
:1027A0007AD508684868009048694FF002064006EC
:1027B0004DD5E26B106840684FF480770004000C40
:1027C0003AD0A18D814237D9E085D069B8422DD069
:1027D00020680C3050E8001F21F4807140E800129E
:1027E000002AF5D12068143050E8001F21F00101C3
:1027F00040E80012002AF5D12068143050E8001F8C
:1028000021F0400140E80012002AF5D184F842305E
:10281000256320680C3050E8001F21F0100140E8CB
:102820000012002AF5D1E06BFEF77EFD6663A08DF5
:10283000E18D401A81B206E0A18D8142A8D1D06914
:10284000B842A5D166632046FFF72AFFF8BDA08DE8
:10285000E18D401A81B2E08D0028F7D00029F5D033
:1028600020680C3050E8002F22F4907240E80027D6
:10287000002FF5D12068143050E8002F22F001021B
:1028800040E80027002FF5D184F842302563206806
:102890000C3050E8002F00E006E022F0100240E883
:1028A0000023002BF3D1CDE705062BD5150629D53E
:1028B00094F841002128C9D1A068B0F5805F01D10A
:1028C0002069B0B1206A411C21622168007848600B
:1028D000E08C401E0004000CE084B7D12068C16881
:1028E00021F08001C1602068C16841F04001C160F1
:1028F000F8BD206A0088C0F308004860206A801C88
:102900002062E5E74006F3D55006F1D5CA682046B7
:1029100022F04002CA6084F8413000F0A4F8F8BD0B
:10292000C95A000870B5040004D094F8410000258D
:1029300010B106E0012070BD84F84050204600F040
:1029400023F8242084F841002068C16821F4005154
:10295000C160204603F048F92068016921F49041E4
:1029600001612068416921F02A0141612068C16844
:1029700041F40051C1606564202084F8410084F86E
:1029800042006563002070BD2DE9F04186B0054628
:1029900014216846FDF74EFC2D4A286800212D4C75
:1029A000022603274FF00708904223D12948103010
:1029B000026842F400320260006800F400300590C2
:1029C000206840F008002060206802AA00F008009B
:1029D000059082E882016020CDE9000669461E4824
:1029E000FEF7FEFC002211462620FFF769F926209B
:1029F000FFF758F919492868884225D1154814303D
:102A0000016841F010010160006800F010000590BD
:102A1000206840F001002060206802AA00F0010058
:102A200005904FF4C060CDE90006012082E88101E5
:102A300069460B48FEF7D4FC002211462520FFF71B
:102A40003FF92520FFF72EF906B0BDE8F081000020
:102A50000044004030380240000C024000100140A9
:102A60000000024070477047FEE701684A69D243A0
:102A700052050FD46FF480624A61002140F8301F84
:102A8000202242738173026942F0040202610173E1
:102A900001207047002070472DE9F84F0446006878
:102AA00089460B9E01689846174641F48061016093
:102AB0002068016841F48071016000964FF0011BAD
:102AC0000022594620460A9B00F064F84FF4007A31
:102AD00040B120680068C00501D5C4F840A00320BB
:102AE000BDE8F88F216809F0FE00086133462849E7
:102AF00020460A9A00F092F8F0BB2068416980698C
:102B00000090324620460A9900F01FF940B1206C2F
:102B100004283AD12068016841F40071016034E072
:102B2000FDB2B8F1010F09D02168380A08613246B8
:102B300020460A9900F009F90028E8D120680561CB
:102B4000324620460A9900F000F90028DFD12068BB
:102B5000016841F4807101600096002259462046C8
:102B60000A9B00F017F80028B3D1216809F0FF0094
:102B700040F00100086100E007E0334604492046C8
:102B80000A9A00F04BF80028AAD00120A8E700001C
:102B9000020001002DE9F0471E4690460D4604460E
:102BA000C1F30747DDF8209026E0701C24D0FEF723
:102BB00011FDA0EB0900B04200D8EEB92068012F4A
:102BC00016D0806925EA00000004000C12D0002015
:102BD000404511D1002044F8300F20216173A073CB
:102BE000216941F02001216120730120BDE8F087B7
:102BF0004069E7E70120EBE72068012F0AD08069F0
:102C000025EA00000004000C06D000204045CCD08E
:102C10000020EBE74069F3E70120F7E72DE9F047F3
:102C2000984616460D4604464FF000094FF0200A1C
:102C3000C1F3074723E020684069C043400515D42D
:102C40002068016841F40071016021686FF48060C0
:102C50004861C4F8309084F83DA084F83E90216C1F
:102C600041F00401216484F83C9020E0701C06D0FF
:102C7000FEF7B0FCA0EB0800B04203D816B1012F5C
:102C80001ED020E02068012F14D0806925EA0000C2
:102C90000004000C17D044F8309F84F80DA084F88D
:102CA0000E90216941F02001216184F80C900120EF
:102CB000BDE8F087406925EA00000004000CEAD175
:102CC0002068406901E02068806925EA000000046E
:102CD000000CB0D1ECE72DE9F04116460D46044654
:102CE00000274FF0200829E04069C043C0060DD4FA
:102CF00054F8301B6FF01000486144F80D7B04F865
:102D00001D89A777206A2062277714E0FEF762FC0E
:102D1000801BA84200D88DB920684069C043400696
:102D20000CD544F8307F84F80D80A773206940F0FB
:102D30002000206127730120BDE8F08120684169EF
:102D4000C9434906D0D40020F6E770B516460D46B3
:102D500004461EE02046FFF788FE08B1012070BD42
:102D6000681C16D0FEF736FC801BA84200D885B937
:102D700020684069C04300060BD5002044F8300F9E
:102D800020216173A073216941F02001216120732A
:102D9000E4E720684069C0430006DBD4002070BD32
:102DA0009FED0E0AF7EE000A80ED000A80ED010AA1
:102DB000C0ED020A80ED030A80ED040A9FED080AC7
:102DC000C0ED050A80ED060A9FED060A80ED070AB0
:102DD0009FED050A80ED080A704700000000000022
:102DE0006F12833AA69B443B8FC2F53CB5EEC01AE6
:102DF000F1EE10FA04D911EE101AB1F17C5F01DD89
:102E00009FED271A90ED014A90ED003A90ED052ACA
:102E100070EEC40AD0ED042AD0ED063A01EE203A55
:102E2000D0ED030AF0EE601A41EE420A51EE021AAA
:102E300071EEE21A41EE422A71EEA33AD0ED021A87
:102E400041EE231AD0ED073A03EE812A90ED081ADD
:102E500071EE814A81EEA41AC2EEA43A70EE434AA2
:102E6000B0EE430AB0EE613A01EE240A01EE613A97
:102E700080ED000A03EEA44A43EEE12A03EEE02AC5
:102E800080ED014A80ED023AB0EE603A01EE603A20
:102E900080ED033AC0ED042A80ED052A704700005A
:102EA0000AD7A33B10B504462DED028BB0EE408A45
:102EB00006F0D6F9DFED1D0AA16811B3411A00EE44
:102EC000101A9FED1B1AB8EE400A20EE010A00BF4F
:102ED000B5EEC00AF1EE10FA04D910EE101AB1F1F5
:102EE0007C5F01DDB0EE600AA060D4ED000AF5EE73
:102EF000C00AF1EE10FA07D8B0EE480ABDEC028B1A
:102F000010BDB0EE600AE3E730EE800A80EE801A72
:102F100094ED010AF7EE000A20EE010A70EEC10AF4
:102F200000EE880A84ED010AE8E700000AD7A33B17
:102F3000BD378635F0B52DED048BF0EE409A85B0A7
:102F4000F5EEC09AF1EE10FA04D919EE902AB2F11A
:102F50007C5F01DDDFED689A684C22789FED680A9E
:102F6000D1ED000A012A7CD094ED2B1A10EE801AC4
:102F700084ED251AD4ED2C0A91ED011A51EE000AC8
:102F8000C4ED260AD4ED2D0A91ED021A51EE000A85
:102F9000C4ED270A9FED5B0AD0ED000AD4ED288A24
:102FA00070EEE80A40EE808AC4ED288AD0ED010A6E
:102FB00094ED299A70EEC90A00EE809A84ED299A60
:102FC000D0ED020A94ED2A8A70EEC80A00EE808ADB
:102FD00028EEA80A84ED2A8A08EE080A03F05CFAB3
:102FE000F0EE400AB0EE490A02F01AFFB0EE409A45
:102FF000F0EE480AB1EE680A02F012FFB0EE408A25
:10300000D4ED250AB0EE691AB0EE490A04F1F000D9
:10301000FFF7ECFE84ED200AD4ED260AB0EE691A23
:10302000B0EE480A04F58A70FFF7E0FE84ED210A4D
:10303000D4ED220A94ED271A41EE290AC4ED220AA2
:1030400094ED201ADFED300A21EE201A20EE200A3E
:1030500084ED231A84ED240A05B0BDEC048BF0BD89
:10306000FFE7D4ED391A40EE801AC4ED391A94ED19
:103070003A1AD1ED010A00EE801A84ED3A1AD4ED25
:103080003B0A91ED022A42EE000AC4ED3B0AD4F855
:10309000E000401CC4F8E000C828DDD301209FED0B
:1030A0001B0AC1EE008A81EE808A80EE801A84EDD0
:1030B0002B8AC4ED2C8A84ED2D1A84F8B8000220E6
:1030C000207011EE100AFDF74EFB06460F4618EE73
:1030D000900AFDF748FB04460D4618EE100AFDF76E
:1030E00042FB8DE8F00041EC100B094853EC102B2B
:1030F00002F05EFEB0E700000AD7A33B60090020A3
:1031000035FA8E3CCDCC4C3EE02E65420000484363
:1031100004AE000810B521492DED028B90B191F855
:10312000B80048B10220087049781DA0BDEC028BA0
:10313000BDE8104002F03CBEBDEC028BBDE8104083
:1031400000F080BB9FED268A0020087081ED328A56
:1031500081ED338A81ED348AB0EE481AF0EE480AE8
:10316000B0EE480A06F0D0FA0120B0EE481AF0EEB0
:10317000480AB0EE480A06F0C7FA0220B0EE481A34
:10318000F0EE480AB0EE480A06F0BEFABDEC028B3B
:1031900014A0BDE8104002F00BBE00006009002042
:1031A0005B4C51525D2042616C616E636520456EDF
:1031B00061626C656420284D6F64653A202564293E
:1031C0002C2077616974696E672063617074757211
:1031D000652077696E646F772E2E2E0D0A00000031
:1031E000000000005B4C51525D2042616C616E63D7
:1031F000652044697361626C65642E0D0A000000ED
:1032000070B5364C00252DED028B294625709FEDBB
:10321000340A657084ED350A9FED320ADFED330A1A
:1032200084ED360A9FED300A9FED311A84ED1F0AB6
:10323000C4F8DC50DFED2F1A9FED2F2A9FED2F8A67
:10324000B1EE080AC4F8E05001EB410004EBC00005
:1032500080ED058A80ED060A001DC0EC040A04EB2F
:103260008100491C80ED2F8A80ED328A80ED2B8A07
:103270000329E9DB0021DFED220ADFED221A9FEDB1
:10328000222AB3EE0C1A00BF01EB410004EBC00090
:10329000491C80ED131AC0ED140AC0ED151A80ED1B
:1032A000162A80ED178A80ED180A0229ECDB0B48FC
:1032B000F030FFF775FD1548FFF772FD84ED208AA9
:1032C00084ED218A84ED228A84ED238A84ED248A88
:1032D00084F8B850BDEC028B70BD0000600900207E
:1032E000920A863EC2B8B23D9A99993E00000042C9
:1032F0009A9919400AD7A33D6F12033C00000000C1
:10330000CDCC0C40295C8F3DA69BC43B740A0020A9
:103310002DE9F05F2DED068B05F0A2FFDFF8F883B5
:103320009FEDFE0AD8F8DC10E9B3411A00EE901ABE
:10333000F8EE600A9FEDFA1A60EE818AF5EEC08A17
:10334000F1EE10FA04D918EE901AB1F17C5F01DDAC
:10335000F0EE408AC8F8DC0098F800009FEDF18A92
:10336000B0B3012838D098F80140EF4E04274FF051
:10337000030A9FEDEEAADFF8B893DFEDEEAAEE4D5B
:10338000DFF8B8B3022C7CD884B3012C34D098ED8C
:10339000220AD8ED270A00BF04EB440108EBC10163
:1033A00091ED051A00E014E030EE411AD8ED351A1F
:1033B000B0EEC10AB4EEE10AF1EE10FA21DD08EB3D
:1033C000840088F80070B0EE480A80ED2F0A77E09C
:1033D00002E0F0EE408AB1E788ED328A88ED338A68
:1033E00088ED348ABDEC068BBDE8F09FFFE798EDD1
:1033F000200AD8ED250ACFE798ED210AD8ED260A54
:10340000CAE7042801D002280CD1D8ED361AB4EE50
:10341000E10AF1EE10FA4FD208EB840088F800A020
:1034200080ED2F8AC64800EB8400D0ED001A08EB2F
:10343000840090ED2F0A01EEA80A10EE102A80ED0C
:103440002F0AB24201DD80ED2FAAD0F8BC204A45F8
:1034500001D9C0ED2FAA91ED010ABA4A20EE010A66
:1034600091ED021A52F8242001EE200A002A01DA16
:10347000B1EE400AD1ED030A00EEE10AD1ED040AF3
:1034800000E05CE090ED2F1A00EEC10AD1ED060AD3
:10349000AD4991ED001AF4EEC10AF1EE10FA01DD2A
:1034A000F0EE410AB1EE601AB4EEC10AF1EE10FA84
:1034B00010D2B0EE410A14E0B0EE480A08EB8400E6
:1034C000F0EE400A80ED320A05EB840090ED001A20
:1034D00020460CE1B4EEE00AF1EE10FA01DDB0EEA8
:1034E000600AF0EE408AC0ED328A204605F08AFA82
:1034F0000BEBC400B0EE680A80ED010AF0EE480A5A
:10350000C0ED000A05EB840090ED001A204606F09D
:10351000FBF80026A6420ED008EB8600B0EE480A63
:1035200080ED320A05EB8600F0EE400A90ED001ABD
:10353000304606F0E9F8761C032EEBDB52E7032C4D
:10354000FCD198ED200AD8ED170A70EE609A98ED3C
:10355000210AD8ED1D0A30EE609A29EEA90A09EE7B
:10356000090A02F099FFD8ED350AF4EEC00AF1EE2F
:1035700010FA08D288F8007088ED2F8A88ED308A1A
:1035800088ED318A9AE098F80000042801D00228DA
:1035900008D1D8ED360AF4EEC00AF1EE10FA7DDD5E
:1035A00088F800A0664A00214FEA090308EB810071
:1035B00002EB810490ED2F0AD4ED000A00EEA80A78
:1035C00010EE104A80ED2F0AB44201DD80ED2FAAE3
:1035D000D0F8BC409C4201D9C0ED2FAA491C032958
:1035E000E4DB92ED001A92ED020AD2ED010AB6EE8A
:1035F000002A71EE001A30EE410A41EEC20A9FED38
:10360000533AD8ED2F1A98ED301A60EE032A98ED50
:10361000310A71EE803A30EE610A03EEC21A60EEB2
:10362000031A98ED140AD8ED253A20EE230AD8EDB6
:10363000133A03EEA90AD8ED153A03EEE00AD8EDE5
:10364000160A00EEC10AD8ED1A0A98ED261A20EEE5
:10365000811AD8ED190A00EE891AD8ED1B0A00EE7E
:10366000E21AD8ED1C0A00EEE11AD8ED1F0AD8EDD7
:10367000271A60EEE12ADFED360A61EE201A40EEED
:10368000421ADFED343A21EE031AF0EE400A42EE20
:10369000A30A42EEA31A00EE421A00E00EE02A4806
:1036A00002EEA31A90ED002AB1EE420AF4EEC01A1F
:1036B000F1EE10FA21D2F0EE401A25E00020B0EE33
:1036C000481AF0EE480AB0EE480A06F01DF801204C
:1036D000B0EE481AF0EE480AB0EE480A06F014F8C8
:1036E0000220B0EE481AF0EE480AB0EE480ABDECEF
:1036F000068BBDE8F05F06F007B8F4EEC21AF1EEF3
:1037000010FA01DDF0EE421AF4EEC00AC8ED321AEA
:10371000F1EE10FA23D21FE0600900200AD7A33B84
:10372000BD378635000000000000484200004842D6
:10373000000048C2000048C20C09002030090020E7
:103740001C0800205800002070000020D7B35D3F07
:10375000D7B35DBFAAAAAA3EF0EE400A06E0F4EE97
:10376000C20AF1EE10FA01DDF0EE420AB4EEC01A20
:10377000C8ED330AF1EE10FA02D2B0EE401A06E0BC
:10378000B4EEC21AF1EE10FA01DDB0EE421A88ED85
:10379000341A00245E46204605F034F908EB840014
:1037A000F0EE480A90ED320A06EBC40080ED010A03
:1037B000C0ED000A05EB840090ED001A204605F0EC
:1037C000A3FF641C032CE6DB0CE600000C499FED14
:1037D0000D0A487081ED2F0A81ED300A81ED310A22
:1037E00038B1012807D0022807D007A109A002F0AC
:1037F000DFBA0EA1FAE70FA1F8E710A1F6E7000083
:103800006009002000000000434F524E45525F33D4
:10381000440000005B4C51525D204D6F6465207385
:10382000657420746F3A2025730D0A00454447459E
:103830005F4D3100454447455F4D320045444745A3
:103840005F4D3300094801219FED090A01700021F5
:10385000C0F8E01080ED390A80ED3A0A80ED3B0AAD
:1038600080F8B810034802F0A3BA000060090020F5
:1038700000000000B8AD00082DE9F0472DED048BE5
:1038800086B0B0EE418AF0EE608AB0EE409A824691
:1038900003282DD219480AEB4A0100EBC10080ED44
:1038A000019AC0ED028A80ED038AC0ED041A11EE80
:1038B000900AFCF758FF8046894618EE100AFCF77C
:1038C00052FF06460F4618EE900AFCF74CFF0446DE
:1038D0000D4619EE100AFCF746FF8DE8F00341ECA7
:1038E000100B0AF1010153EC102B054802F060FAAD
:1038F00006B0BDEC048BBDE8F08700006009002035
:103900004CAE000870B52DED028B82B0B0EE408A4F
:10391000044603281ED212489FED100A04EB44010E
:1039200000EBC10028EE000A80ED050A10EE100A37
:10393000FCF719FF05460E4618EE100AFCF713FFB8
:1039400041EC100BCDE9005653EC102B611C05A087
:1039500002F02EFA02B0BDEC028B70BD35FA8E3C3F
:10396000600900205B4C51525D204D25642042616E
:103970006C616E6365205A65726F20416E676C657D
:103980002073657420746F3A20252E32662064659A
:10399000672028252E346620726164290D0A0000F4
:1039A0007FB5054600200C460090019002900390E0
:1039B00002A9684600F076F8BDF9000000EE100A92
:1039C000F8EEC00A9FED1D0A60EE800AC5ED000A00
:1039D000BDF9020000EE900AF8EEE00A60EE800AFF
:1039E000C5ED010ABDF9040000EE900AF8EEE00A08
:1039F00020EE800A85ED020ABDF9080000EE100AEB
:103A0000F8EEC00A9FED0E0A60EE800AC4ED000ACF
:103A1000BDF90A0000EE900AF8EEE00A60EE800AB6
:103A2000C4ED010ABDF90C0000EE900AF8EEE00AC0
:103A300020EE800A84ED020A7FBD000040DA7F3864
:103A4000295C8F3D10B501F057FD142004F04AFDAC
:103A50000121122001F0EAFD322004F043FD00F0C4
:103A600015F86B2801D0012010BD4421122001F06F
:103A7000DDFD4021102001F0D9FD4C21112001F085
:103A8000D5FD0A2004F02EFD002010BD08B5002051
:103A90008DF80000012269460F2001F08FFD9DF88E
:103AA000000008BD3EB50C4605460C2269462220A2
:103AB00001F084FDBDF800002080BDF802006080A8
:103AC000BDF80400A080BDF806002880BDF80800FD
:103AD0006880BDF80A00A88000203EBD7FB505467D
:103AE00000200C46009001900290039002A96846C5
:103AF00000F0ACF8BDF9000000EE100AF8EEC00AC4
:103B00009FED1D0A60EE800AC5ED000ABDF90200B6
:103B100000EE900AF8EEE00A60EE800AC5ED010AB8
:103B2000BDF9040000EE900AF8EEE00A20EE800AEB
:103B300085ED020ABDF9080000EE100AF8EEC00A91
:103B40009FED0E0A80EE801A84ED001ABDF90A007E
:103B500000EE900AF8EEE00A80EE801A84ED011A79
:103B6000BDF90C0000EE900AF8EEE00A80EE801A33
:103B700084ED021A7FBD000000008038333383419A
:103B800010B52A4888B00024016841F002010160A4
:103B90000068142100F0020006906846FCF74AFB1A
:103BA0004FF440600090112001900120029003200A
:103BB000039069461E48FDF713FC1D484FF48061D1
:103BC00018300160C1140160142004F08BFC8021C6
:103BD0006B2005F020FD322004F084FC00216B20D6
:103BE00005F019FD142004F07DFC8DF8144001222D
:103BF00005A9752005F0E2FC9DF81400682802D0A4
:103C0000012008B010BD0721192005F004FD062190
:103C10001A2005F000FD18211B2005F0FCFC0021F6
:103C20001C2005F0F8FC0020EBE7000030380240D3
:103C30000004024008B500208DF80000012269460A
:103C4000752005F0BBFC9DF8000008BD7FB50C4653
:103C500005460E2269463B2005F0B0FC10B101205C
:103C600004B070BDBDF8000040BA2880BDF8020065
:103C700040BA6880BDF8040040BAA880BDF80800CA
:103C800040BA2080BDF80A0040BA6080BDF80C0040
:103C900040BAA0800020E3E7F0B587B01421684661
:103CA000FCF7C8FA35480024016841F020010160A2
:103CB000016801F020010591016841F08001016077
:103CC000016801F080010591016841F00101016086
:103CD000016801F001010591016841F002010160F4
:103CE000016801F002010591016841F040010160A5
:103CF000016801F040010591016841F01001016087
:103D0000016801F010010591016841F008010160AE
:103D1000016801F008010591016841F004010160AA
:103D20000068174E00F0040040F2FF1505900022D5
:103D300029463046FDF749FC124F0022072138463C
:103D4000FDF743FC00950125CDE901546946304655
:103D50000394FDF745FB07200090CDE90154694627
:103D600038460394FDF73CFB8020CDE9000469460A
:103D700038460294FDF734FB07B0F0BD30380240FE
:103D800000180240000C02400D4810B50B490160BC
:103D90000C49416000214FF480428160C0E9031268
:103DA00041618161C1610162FDF71AFC002803D005
:103DB000BDE81040FDF7B6BA10BD00000054004049
:103DC000AC000020801A06000D4810B50B490160B8
:103DD0000C49416000214FF480428160C0E9031228
:103DE00041618161C1610162FDF7FAFB002803D0E6
:103DF000BDE81040FDF796BA10BD00000058004025
:103E000000010020801A06000D4810B50B49016022
:103E10000C49416000214FF480428160C0E90312E7
:103E200041618161C1610162FDF7DAFB002803D0C5
:103E3000BDE81040FDF776BA10BD0000005C004000
:103E400054010020801A060030B591B000240F9470
:103E50001C2168461094FCF7EDF9202107A8FCF717
:103E6000E9F93248304D20210560C0E901414FF4A5
:103E70005261C0E903148021C0E90541FEF74AFB05
:103E800008B1FDF74FFA0F940FA928481094FEF7D8
:103E900025FA08B1FDF746FA6020CDE90004029446
:103EA0000394049405940022694620480694FEF782
:103EB000CBFA08B1FDF736FA042269461B48FEF733
:103EC000C3FA08B1FDF72EFA082269461748FEF733
:103ED000BBFA08B1FDF726FA0794089409944FF449
:103EE00000500A94CDE90B4007A910480E94FEF744
:103EF000CBF908B1FDF716FA0C48FEF737FA0021A6
:103F00000A48FEF765FB04210848FEF761FB08211B
:103F10000648FEF75DFB686C40F4004068640348A7
:103F2000FEF724FA11B030BD00000140A8010020C6
:103F300010B58AB0002407941C2168460894FCF749
:103F400079F91F481D49C0E900142021816040F221
:103F50008F61C0E9031480218161FEF7DBFA08B1AB
:103F6000FDF7E0F9079407A915480894FEF7B6F99C
:103F700008B1FDF7D7F96020CDE9000402940022D2
:103F800069460F480494FEF75FFA08B1FDF7CAF9D5
:103F9000042269460A48FEF757FA08B1FDF7C2F94C
:103FA000082269460648FEF74FFA08B1FDF7BAF94C
:103FB0000348FEF7DBF90AB010BD00000004004022
:103FC000F001002010B58AB0002407941C21684637
:103FD0000894FCF72FF91F481D49C0E9001420215F
:103FE000816040F28F61C0E9031480218161FEF796
:103FF00091FA08B1FDF796F9079407A915480894B6
:10400000FEF76CF908B1FDF78DF96020CDE90004E9
:104010000294002269460F480494FEF715FA08B18D
:10402000FDF780F9042269460A48FEF70DFA08B147
:10403000FDF778F9082269460648FEF705FA08B147
:10404000FDF770F90348FEF791F90AB010BD0000C2
:10405000000800403802002010B50D480B4C4FF40A
:10406000E131C0E90041002181600C22C160C0E95A
:1040700004128161C161FEF755FC08B1FDF752F9E8
:10408000E06840F02000E06010BD0000001001403A
:10409000C80700200C4810B50A4901604FF4E1310F
:1040A0004160002181600C22C160C0E9041281617D
:1040B000C161FEF737FC002803D0BDE81040FDF7D2
:1040C00031B910BD0044004080070020FEE7000029
:1040D0002DE9F04F2DED068BB1B0F54DF54895ED7E
:1040E000009A01F065FEF44801F062FEF34801F029
:1040F0005FFEF3A001F05CFEFE4E00241021FD489F
:10410000FDF75BFA642004F0EDF9641C0A2CF5DB82
:10411000002210213046FDF758FAF74801F048FE1A
:10412000E348B0EE080AF54980ED000A0320087064
:1041300005F066FC0CA900240DF1280BDFEDF09AC8
:104140009FEDF08AB0EE00AA2B9195E0002C79D07B
:10415000012C78D004202D900020289029900A90DE
:104160000B900C90269027901E9004EB84012590D4
:104170001D901F9023900D900EAF229024902090C0
:104180000591219007F8210007EB81050026688042
:10419000A88085ED028A85ED038A85ED048A611C7D
:1041A000D9A001F005FE0094002C6BD0012C6BD03F
:1041B0000423DA48611C621C01F0FAFD0AAA28A94E
:1041C0000020FDF799F8E0B35FF000008DF83400AF
:1041D000D8460BF104020DF1A00901200DF1A20156
:1041E000FDF78AF880B300208DF8350009F104014D
:1041F00002202B9AFDF780F838B300208DF83600A6
:10420000002025AA4FEA080101EB8003904693EDB8
:10421000000A02EB8003401C83ED000A0328F3DB55
:1042200001EB84002F908B4690ED000A002185ED74
:10423000020A084605F068FB601C2E90C0B20121FE
:1042400004E023E018E01BE022E023E005F05CFB43
:10425000142004F047F94FF0E0208169B04840F89D
:104260002410B04800EB840080ED008AFDF7B2F91D
:104270000746BA46079094E00120F0EE4A8A6AE7C2
:10428000022068E7012394E7032392E701209DE7DA
:104290000120A9E70120B1E7B0EE680A05F096FC1D
:1042A000FDF798F9A0EB0A00642806D3FDF792F910
:1042B000824690482D99FDF780F9FDF78BF9079913
:1042C000401A14286DD3FDF785F9761C0790B6B215
:1042D0000AAA28A90020FDF70FF8B0B35FF000008C
:1042E0008DF834000BF1040209F102010120FDF701
:1042F00003F858B35FF000008DF8350009F10401B0
:1043000002202B9AFCF7F8FF28B300208DF8360026
:1043100000200DAA115CE9B320A9DFF80CC231F826
:1043200010305B1C21F810300BEB800108EB800390
:10433000D1ED000A93ED000A30EEC00A10EE101A1B
:1043400061450ADD30EE690A0FE000E001E001207E
:10435000C6E70120D0E70120D8E710EE101ADFF8F9
:10436000CCC1614501D930EE290A1DA901EB8001BC
:10437000D1ED001AB0EEC01A31EE211A81ED001A0B
:1043800022A901EB800191ED001A31EE000A81EDC6
:10439000000A01E002E004E0C3ED000A401C03282B
:1043A000B8DBFDF717F9C01BB0F5FA6F2046FFF434
:1043B00073AFB0EE480AB0EE401AF0EE400A05F0D6
:1043C000A3F92E980021C0B205F09EFA00224948B8
:1043D0002D99FDF7FAF836B1BDF884006421484301
:1043E000B0FBF6F000E0002008901F98FCF7BBF946
:1043F0008846074636B1BDF8820064214843B0FBC9
:10440000F6F000E0002004901E98FCF7ACF98A4614
:10441000814636B1BDF8800064214843B0FBF6F018
:1044200000E0002000901D98FCF79DF9CDE906788A
:1044300041EC100BCDE9029A53EC102B611C3C4867
:1044400001F0B6FC20A86E8030F81410A9808846D0
:104450002F990027374B91ED000A1DA901EB84022B
:1044600085ED030A92ED000AF2000DF1380985EDA1
:10447000040A4FF0FF3E0A268C4682465CF827006D
:10448000984272DBB2FBF6F13AF8170081426CD821
:10449000002F6DDB28480755059A002009F82200F7
:1044A0005CF8270028613AF81710A98046E0000060
:1044B00070000020E0A80008C49D000824A900089E
:1044C0005B544553545D20506861736520313A2038
:1044D000504734204C454420626C696E6B696E67AE
:1044E00020666F722031207365636F6E642E2E2EEE
:1044F0000D0A000000180240B0A70008500000207C
:104500000000B4430000000024544553545F53544A
:1045100045502C4D2564230D0A00000018A7000803
:10452000540900201008002000003443000034C368
:10453000109F00080000A041540000200BEB8701F1
:1045400091ED000A22A901EB870185ED030A91EDA7
:10455000000AB5EEC00AF1EE10FA28DDFE4A01218C
:1045600042F8241026E000E002E07F1C032F85DBE8
:10457000B8F1000F7DD00598022209F820206420B0
:1045800003F0B0FF641C032CFFF6E0AD00214FF0F8
:10459000010A08464FEA090500EB800215F82220BF
:1045A000002A67D0012A66D0022A64D084E0EA4A51
:1045B00042F824E0FCF7D7F8CDE90201E64850F8CC
:1045C000240001286BD0E5A000907B1C621C611CBC
:1045D000E44801F0EDFB2E980121C0B205F094F9FA
:1045E000142003F07FFF20469FEDDF1ADF49F0EE35
:1045F000480A91ED000A05F087F8DD4E00253046A7
:104600002D99FCF7DAFF642003F06CFF6D1C082D78
:10461000F5DB204605F0F6F9D64800EB8405204688
:1046200085ED008A03F074FF85ED000A2046B0EEA8
:10463000481AF0EE480AB0EE480A05F065F82E98E0
:104640000021C0B205F060F9CB49012000220855D5
:1046500030462D99FCF7B9FFD5ED00AA9FEDC70AAA
:104660006AEE800A9FEDC61A80EE810A10EE100AEB
:1046700002E016E01FE025E0FCF775F805460E465F
:104680001AEE900AFCF76FF841EC100BCDE90056DA
:1046900053EC102B611CBB4801F08AFB6FE7BAA0FA
:1046A00092E705990320621C09F82100611CB8A05B
:1046B00001F07EFB63E7491C401C0328FFF66CAF4A
:1046C00019B104E04FF0000AFAE74FF0000AC048C1
:1046D00080ED009A05F094F9AFF2EC1001F068FB60
:1046E000BC4801F065FBBC4801F062FBB94801F031
:1046F0005FFBBA4801F05CFBB94801F059FB0024AC
:104700000FF2E02B04EB84020EA810F8221001290E
:1047100004D0022904D0032904D005E0B3A102E0AB
:10472000B5A100E0B7A18B4600EB82052869FCF734
:104730001AF806460F46E868FCF715F880468946E1
:10474000A868FCF710F86A883AB1AB884FF0640C9F
:1047500003FB0CF3B3FBF2F300E000230DF1080CB4
:104760008CE80303CDE90667A888CDE900020DF1C6
:1047700038085A46611CA64801F01AFB641C032C39
:10478000BEDB974801F014FB1C98FBF7ECFF0446D6
:10479000BDF862000D4628B1BDF864106422514393
:1047A000B1FBF0F081461798FBF7DDFF0646BDF838
:1047B0004E000F4628B1BDF8501064225143B1FBA2
:1047C000F0F083461298FBF7CEFFBDF83A3043B1C4
:1047D000BDF83C204FF0640C02FB0CF2B2FBF3F28C
:1047E00000E00022BAF1000F01D07EA300E089A30F
:1047F0000894CDE909539DF86030EBB3032B6FD0DB
:10480000012B6FD085A300BFCDF81C900496CDE995
:1048100005739DF84C3083B3032B67D0012B67D011
:104820007EA300BF8DE80B089DF8380030B3032845
:1048300062D0012862D079A17B4801F0B9FABAF1BF
:10484000000F5FD0794801F0B3FA794801F0B0FA6F
:10485000474D012210212846FCF7B7FE4FF47A702D
:1048600003F040FE002410212846FCF7A6FE962007
:1048700003F038FE641C02E030E035E03AE0062C3C
:10488000F1DB002210212846FCF79FFE694880EDED
:10489000038A80ED048A80ED058A80ED068A4FF058
:1048A000FF3004F0D1FE6449012000240870454621
:1048B00004EB840015F82000002804F10100C0B2C8
:1048C0001ED0002105F020F8641C032CF0DB01E071
:1048D00006E007E059A001F06BFA34E041A393E74A
:1048E00066A391E767A38FE73EA39BE763A399E7DE
:1048F00064A397E73BA19FE760A19DE761A19BE7C8
:104900000121DFE7624801F053FA62A001F050FA9A
:104910006F4801F04DFA464801F04AFA144D002460
:1049200010212846FCF749FE3C2003F0DBFD641C07
:10493000142CF5DB002210212846FCF746FE00214E
:10494000084604F0E1FF05F05BF862A001F030FAE0
:1049500031B0BDEC068BC3E058000020434357281C
:104960002D312900D8AB0008E4CB96406800002028
:104970000018024028080020640000200000344392
:10498000DB0F494068A900084357282B3129000054
:1049900020205B4D2564204E6F746963655D204D5A
:1049A0006F746F72202564202F20456E636F6465DD
:1049B00072206973206E6F7420696E7374616C6C01
:1049C00065642028736B6970292E0D0A00000000B1
:1049D0007000002024A90008809D000890AB00080A
:1049E00038A6000850415353000000004641494C8E
:1049F00028493243290000004641494C285354417C
:104A00004C4C2900534B4950284E4F4E452900002D
:104A1000F4A500084641494C000000004641494CBD
:104A20005F5354414C4C0000CC9E00089CA80008E9
:104A30003C9D00080000002050000020436F6E7471
:104A4000726F6C206D6F646520737769746368653D
:104A50006420746F20434C4F5345445F4C4F4F507C
:104A600020666F722063616C696272617465642094
:104A70006D6F746F72732E0D0A000000534B495016
:104A8000000000004641494C5F49324300000000ED
:104A900058A80008546970733A204641494C284987
:104AA000324329202D3E20436865636B2049324301
:104AB00020776972696E672C20332E33562F474E4C
:104AC000442C2070756C6C2D7570732E0D0A0000CF
:104AD000FCA700084F4B20544553540D0A0000001A
:104AE000BDE8F08F30B587B014216846FBF7A2FB14
:104AF0000D480024016841F00801016000680B4D79
:104B000000F008000590224607212846FCF75DFDCD
:104B1000072000900120CDE901046946284603944E
:104B2000FCF75EFC07B030BD30380240000C02409C
:104B30002DE9F04F2DED088B85B04FF000080446AD
:104B4000B0EE08BA0B2540F69807ADF80C809FED43
:104B5000958A02288DED028AF0EE488A00D9002459
:104B60009148005D049091A001F022F9611C9CA085
:104B700001F01EF9A5A001F01BF90021084604F080
:104B8000C3FE04F1010909F0FF00012104F0BCFE9D
:104B9000322003F0A7FC9FEDA91BAAA053EC112B18
:104BA00001F006F92046DFEDB4AAF0EE480AB0EEB7
:104BB0004B0AB0EE6A1A04F0A7FD40F2DC5003F095
:104BC00091FC02AA03A90498FCF796FB0298FBF754
:104BD000CAFD41EC100BBDF90C00009053EC102BFA
:104BE000A6A001F0E5F8B2EE06AADFEDB1BA2A46BA
:104BF0009DED029A1146AF4801F0DAF8DFF8B8A24D
:104C000000264FF0320BDFEDAD9A00BF7AEEABAA73
:104C10002046F0EE480AB0EE4B0AB0EE6A1A04F0F5
:104C200073FD40F2DC5003F068FC96FBFBF10BFBDC
:104C30001160F0B9ADF804808DED008A6A4601A9D3
:104C40000498FCF759FB9DED000A70EE491A11EE2D
:104C5000900A504502DD71EEE91A06E011EE900A65
:104C60009749884201D971EEA91AB0EE409A78EEC0
:104C7000A18A761CBE42C9DB4FF4FA7003F032FC05
:104C8000ADF804808DED008A6A4601A90498FCF70E
:104C900033FB9DED000A30EE490A10EE100A504534
:104CA00002DD30EE690A06E010EE100A84498842FF
:104CB00001D930EE290A204678EE808AB0EE480A03
:104CC000B0EE401AF0EE400A04F01EFD09F0FF00BD
:104CD000002104F019FE00EE905AB0EEE80A10EE42
:104CE000100AF8EEE00AB0F17E5F20EEA99A01DD2D
:104CF00089EE008A73A001F05BF819EE100AFBF749
:104D000032FD41EC100B76A053EC102B009501F016
:104D10004FF818EE900AFBF726FD41EC100B7FA030
:104D200053EC102B01F044F818EE100AFBF71BFDB2
:104D3000B6EE001A41EC100B38EE011A53EC102BB2
:104D400081A0FDEEC18ACDED008A01F031F8B1EE0F
:104D50000C0A8C4838EE400AB0EEC00A10EE101A69
:104D6000814201DA88A008E038EE4A0AB0EEC00AB3
:104D700010EE101A814203DA92A001F019F804E053
:104D800018EE901A9EA001F013F8A9A001F010F8F7
:104D900004F036FEB3A001F00BF805B0BDEC088BB3
:104DA000BDE8F08F00000000540000200D0A3D3DDA
:104DB0003D3D3D3D3D3D3D3D3D3D3D3D3D3D3D3D23
:104DC0003D3D3D3D3D3D3D3D3D3D3D3D3D3D3D3D13
:104DD0003D3D3D3D3D3D3D3D3D3D0D0A000000005A
:104DE00020204D4F544F5220256420504F4C4520D9
:104DF0005041495253204D4541535552454D454E22
:104E00005420285050290D0A000000003D3D3D3D32
:104E10003D3D3D3D3D3D3D3D3D3D3D3D3D3D3D3DC2
:104E20003D3D3D3D3D3D3D3D3D3D3D3D3D3D3D3DB2
:104E30003D3D3D3D3D3D3D3D0D0A00000000000073
:104E400000000840312E20416C69676E696E672052
:104E5000726F746F7220746F20656C656374726911
:104E600063616C207A65726F2028553D252E31666E
:104E700056292E2E2E0D0A00E4CB964020202049E4
:104E80006E697469616C204D656368616E69636108
:104E90006C20416E676C653A20252E326620646571
:104EA0006720285261773A202564290D0A00000006
:104EB000FDAD003D60A70008000034430000B4438E
:104EC000000034C3332E204D6561737572656D65C6
:104ED0006E742046696E69736865643A0D0A000055
:104EE000202020546F74616C20456C656374726976
:104EF00063616C20526F746174696F6E3A20252E65
:104F0000316620646567202825642066756C6C20F6
:104F10006379636C6573290D0A000000202020541A
:104F20006F74616C204D656368616E6963616C20AC
:104F3000526F746174696F6E3A20252E3266206458
:104F400065670D0A0000000020202043616C637536
:104F50006C6174656420506F6C6520506169727378
:104F60003A2020202020252E33662028436C6F73A2
:104F700065737420496E74656765723A20256429EB
:104F80000D0A0000CDCC4C3F2020203E3E20434F58
:104F90004E434C5553494F4E3A204D6F746F72201B
:104FA000686173203720504F4C452050414952537F
:104FB00020283134206D61676E65747329203C3C74
:104FC0000D0A00002020203E3E20434F4E434C550A
:104FD00053494F4E3A204D6F746F722068617320B1
:104FE000313120504F4C45205041495253202832F6
:104FF00032206D61676E65747329203C3C0D0A0098
:105000002020203E3E20434F4E434C5553494F4EA7
:105010003A204D6F746F72206861732025642050B0
:105020004F4C45205041495253203C3C0D0A000052
:105030003D3D3D3D3D3D3D3D3D3D3D3D3D3D3D3DA0
:105040003D3D3D3D3D3D3D3D3D3D3D3D3D3D3D3D90
:105050003D3D3D3D3D3D3D3D3D3D3D3D0D0A0D0A46
:10506000000000004F4B2050500D0A0010B50AA060
:1050700000F09EFE002000F03DF8012000F03AF81C
:10508000022000F037F84FF0FF3004F0DDFABDE801
:1050900010400DA000F08CBE0D0A3D3D3D20537424
:1050A000617274696E6720332D41786973204D54A5
:1050B000363730312053656E736F7220416C6967EB
:1050C0006E203D3D3D0D0A003D3D3D20332D417894
:1050D00069732053656E736F7220416C69676E202F
:1050E00046696E6973686564203D3D3D0D0A0D0A91
:1050F000000000002DE9F0472DED088B86B0044636
:10510000DFED7E8A7E48032C90ED00BA05D30120A6
:1051100006B0BDEC088BBDE8F0877A48002505AAEB
:10512000075DADF81050CDED058A04A93846FCF7AF
:10513000E3F8DFF8D49138B17A1C611C73A000F059
:1051400037FE09F80450D4E0601CC0B2012104F01D
:10515000DBFB322003F0C6F920469FED7A9AF0EE91
:10516000680AB0EE4B0AB0EE491A04F0CDFA4FF4DB
:105170002F7A504603F0B6F9204604F043FC20464F
:1051800004F02EFCB0EE40AA0025DFED6F9A9FEDF3
:105190006F8A4FF4FA6600BF00EE105AB0EE491A5B
:1051A0002046F8EEC00A80EEA90AF0EE680A00EE8A
:1051B000081AB0EE4B0A04F0A7FA204604F022FCCD
:1051C000304603F09AF96D1CC82DE5DD204604F049
:1051D00019FC204604F004FCF0EE68BAF0EE40AA98
:1051E000C825F0EE498A00BF00EE105AB0EE681AEA
:1051F0002046F8EEC00A80EEA90AF0EE6B0A00EE37
:10520000081AB0EE4B0A04F07FFA204604F0FAFBCD
:10521000304603F072F96D1EE6D5204604F0F2FB2D
:10522000C82003F05FF93AEECA0A494910EE100AA5
:10523000884202DD30EE480A06E010EE100A4549C9
:10524000884201D930EE080A0126DFF80C81B5EE5C
:10525000C00AF1EE10FA02DD48F8246003E04FF0D6
:10526000FF3148F82410B0EE6B8A2046B0EE681A81
:10527000F0EE480AB0EE4B0A04F046FA504603F04E
:1052800031F9204604F0BEFB344800EB840520468B
:1052900085ED008A03F03CF985ED000A2046B0EE6A
:1052A000481AF0EE480AB0EE480A04F02DFA09F860
:1052B000046095ED008A9FED2A0A9FED2A1A68EE98
:1052C000000A80EE810A10EE100AFBF74CFA054640
:1052D0000E4618EE100AFBF746FA8DE8630058F800
:1052E0002400012807D020A37A1C611C204800F06C
:1052F0005FFD00200CE71FA3F6E7000000000000A0
:10530000680000205400002064000020416C6967A0
:105310006E204D25643A20456E636F646572206F80
:105320006E204932432564206973206E6F742069B2
:105330006E7374616C6C65642028736B6970292EC0
:105340000D0A0000E4CB964000004843DB0FC94043
:10535000DB0F4940DB0F49C058000020280800201F
:1053600000003443DB0F4940434357282D312900C7
:1053700074AD00084357282B31290000FEE70000D8
:1053800010B504462DED028BB0EE408A03F068FFA5
:105390009FED530A216A79B3411A00EE901AF8EE94
:1053A000600A9FED501A20EE811A00BFB5EEC01AB8
:1053B0004FF07C52F1EE10FA03D911EE101A91421F
:1053C00001DDB0EE401A206294ED000AD4ED070A28
:1053D00094ED042A20EE083A94ED010AF1EE422AF7
:1053E00020EE080A40EE010AF4EEE02AF1EE10FA8F
:1053F00006DDF0EE620A0AE0FFE7B0EE401AD5E7FC
:10540000B4EEE02AF1EE10FA01D2F0EE420AC4ED59
:10541000070A94ED020AB5EEC00AF1EE10FA1BDDA0
:1054200011EE100A3049884216DDD4ED051A78EEE7
:10543000611A20EE210AC0EE011A11EE900AB0F1B5
:105440003F4F02D9FEEE001A08E011EE900A90429A
:1054500004DDF6EE001A01E0DFED241A33EE200A37
:1054600084ED058A30EE210AF4EEC02AF1EE10FA3E
:1054700002DDB0EE620A06E0B4EEC02AF1EE10FAE8
:1054800001D2B0EE420AD4ED031AF5EEC01AF1EEE5
:1054900010FA1FDD11EE100A154988421ADDD4ED0D
:1054A000060A70EE602A82EE812AF4EEC21AF1EE4C
:1054B00010FA04D2B0EE600A01EE810A0AE0F1EEC1
:1054C000612AF4EEC22AF1EE10FA03DDB0EE600AB2
:1054D00001EEC10A84ED060ABDEC028B10BD00008E
:1054E0006F12833ABD3786356F12033B0000000010
:1054F0006F12033A704700002DE9F0412C4886B046
:105500004FF00008016841F002010160006800F0FE
:105510000200059026481030016841F48041016086
:105520000068142100F4804005906846FAF782FE76
:1055300001244FF480550326CDE900541D4FCDE9D9
:10554000024669463846FBF74BFF1A48183005609B
:105550004FF46040009001A9022081E8510005202D
:10556000049069463846FBF73BFF1348C0F80080BB
:10557000016841F004010160016841F0100101601F
:10558000016841F002010160016841F00101016020
:10559000016841F400710160016841F480710160AB
:1055A000016841F04001016006B0BDE8F0810000F3
:1055B000303802400004024000380040F0B50C4F83
:1055C0000E464FF080511546396040F0800000F0E3
:1055D00011F8002405E0FF2000F00CF83055641CA1
:1055E000A4B2AC42F7D34FF480503860F0BD000055
:1055F0001804024010B54CF2503211460A4B01E03B
:10560000491E0ED01C68A407FAD50749091D086079
:1056100001E0521E05D01868C007FAD00868C0B271
:1056200010BDFF2010BD00000838004030B5074C09
:105630000D464FF08051216000F07F00FFF7DAFF48
:105640002846FFF7D7FFA014206030BD18040240A1
:105650007047000010B5194B0021DFED171A9FEDC0
:10566000180A9FED182A0A46F7EE080AB1EE081A42
:1056700003F16C0401EBC10003EB8000C0ED001AE4
:10568000C0ED010A80ED020A80ED030A80ED041AE4
:1056900080ED050A80ED060A80ED070A026201EB43
:1056A000410004EB8000491C80ED002A80ED010AD6
:1056B00082600329DEDB10BDCDCC4C3E7C0800208F
:1056C00000000000A69B443CFCF792BA30B593B0B2
:1056D00030216846FAF7AEFD14210CA8FAF7AAFDAE
:1056E0001E480025016841F080510160006800F00B
:1056F000805011901A48016841F4804101600068AF
:10570000022400F4804011900120009000040190D8
:105710008001CDE90640192008904FF4A870CDE92A
:10572000090404200B906846FCF7EEFB08B172B642
:10573000FEE70CA90F2081E831004FF4A0500F9034
:105740004FF48050109005210CA8FCF7EBFA0028CC
:1057500001D072B6FEE713B030BD00004038024001
:10576000007000400248016841F470010160704718
:1057700088ED00E0104808B50268002142F00802F8
:105780000260006800F0080000900C4801600B4BBC
:10579000532228331A604A1E1B1D1A60074A2432FE
:1057A0001160064914310A6842F001020A6001687A
:1057B00041F00101016008BD40380240000C00408A
:1057C00038B512480024016841F0100101600068FA
:1057D000224600F01000009001213620FCF770FAFC
:1057E0003620FCF75FFA0A4804605321816240F2D8
:1057F000E731C1620121C160416941F001014161AC
:10580000016841F00101016038BD000040380240EC
:105810000010004006480169C90708D06FF0010177
:10582000016104480168491C0160FCF7E1B9704757
:10583000001000403C00002005480168C90706D060
:105840006FF00101016003480168491C0160704765
:10585000101400407C000020F0B50268274D284E4F
:10586000284FDFF8A4C0294B4FF0804EA84209D042
:10587000704507D0B04205D0B84203D0604501D092
:10588000984203D122F070044A682243A8421BD0F8
:10589000704519D0B04217D0B84215D0604513D02A
:1058A000984211D01A4CA0420ED01A4CA0420BD0F4
:1058B000194CA04208D0194CA04205D0184CA04267
:1058C00002D0184CA04203D122F44074CA6822438B
:1058D0004C6922F0800222438C68C4620C688462A6
:1058E000A84201D0984201D109690163016841F0E1
:1058F00004010160012141610260F0BD000001402E
:105900000004004000080040000C0040000401407A
:1059100000400140004401400048014000180040A0
:10592000001C00400020004010B501F01F010123C1
:10593000046A8B409C430462036A8A4013430362F7
:1059400010BD0000F0B5026A036A23F00103036290
:1059500043688469114E24F073050C68104F2C4382
:1059600022F002058A682A43B04201D0B84205D12C
:1059700022F00805CA682A4322F00402B04201D08E
:10598000B84205D14D6923F440731D438B692B4305
:1059900043608461496841630262F0BD00000140D8
:1059A00000040140F0B5026A036A23F010030362A9
:1059B000436884690D6824F4E64444EA05248D684C
:1059C00022F0200242EA05120F4D104EA84201D0EB
:1059D000B04206D1CF6822F0800242EA071222F0DC
:1059E0004002A84201D0B04207D14D6923F4406380
:1059F00043EA85038D6943EA85034360846149680E
:105A000081630262F0BD000000000140000401401B
:105A1000F0B5026A036A23F4807303624368C469C1
:105A200022F4007224F073050C68124E2C438D682A
:105A300042EA05220E4DA84201D0B04206D1CF68FD
:105A400022F4006242EA072222F48062A84201D0D6
:105A5000B04207D14D6923F4405343EA05138D69E1
:105A600043EA05134360C4614968C1630262F0BD43
:105A7000000001400004014030B5036A026A22F4CC
:105A8000805202624268C4690D6824F4E64444EA24
:105A900005248D6823F4005343EA0533084DA842DA
:105AA00002D0084DA84204D14D6922F4804242EA56
:105AB00085124260C46149680164036230BD000020
:105AC000000001400004014010B5806B0021C18539
:105AD000FCF7E7FD10BD01680C3151E8002F22F4FE
