:020000040800F2
:10000000E8080020A10100082D3600088D2800080E
:100010005D330008F5120008653F0008000000008D
:10002000000000000000000000000000B5380008DB
:10003000F7120008000000005937000831390008A5
:10004000BB010008BB010008BB010008BB010008A0
:10005000BB010008BB010008BB010008BB01000890
:10006000BB010008BB010008BB010008BB01000880
:10007000BB010008BB010008BB010008BB01000870
:10008000BB010008BB010008BB010008BB01000860
:10009000BB010008BB010008BB010008BB01000850
:1000A000BB010008BB010008BB010008BB01000840
:1000B000BB010008BB010008BB010008BB01000830
:1000C000BB010008BB010008BB010008BB01000820
:1000D000BB010008BB010008F13E0008BB0100089D
:1000E000BB010008BB010008BB010008BB01000800
:1000F000BB010008BB010008BB010008BB010008F0
:10010000BB010008BB010008BB010008BB010008DF
:10011000BB010008BB010008313A0008BB01000820
:10012000BB010008BB010008BB010008BB010008BF
:10013000BB010008BB010008BB010008BB010008AF
:10014000BB010008BB010008BB010008BB0100089F
:10015000BB010008BB010008BB010008BB0100088F
:10016000BB010008BB010008BB010008BB0100087F
:10017000BB010008BB010008BB0100080000000033
:10018000BB010008BB010008DFF810D000F03CFE06
:1001900000480047195E0008AFF30080E80800201F
:1001A0000648804706480047FEE7FEE7FEE7FEE711
:1001B000FEE7FEE7FEE7FEE7FEE7FEE7CD390008D3
:1001C000890100082DE9F05F0546002092469B4614
:1001D00088460646814640241BE02846414647465D
:1001E000224600F014FB53465A46C01A914110D3E0
:1001F00011461846224600F0FBFA2D1A67EB01085B
:100200004F4622460120002100F0F2FA17EB0009C8
:100210004E41201EA4F10104DFDC484631462A4647
:100220004346BDE8F09FD2B201E000F8012B491E21
:10023000FBD270470022F6E710B513460A46044683
:100240001946FFF7F0FF204610BD30B505460020E7
:10025000034600E05B1C934205D2EC5CC85C201AAC
:1002600001D1002CF6D130BD0FB400B58DB010A96E
:1002700009900B9000914FF0FF300A9000200C90F5
:1002800005480690054807906A4609A80F9900F0AE
:10029000E3FA0DB05DF814FB750800089308000838
:1002A0002DE9FF5F1D464FF0FF3BD5E90146914622
:1002B0005F464FF00008A9697F1C01988847296AAA
:1002C000824688470028F6D1BAF1FF3F0CD024F4CB
:1002D000C064002E19DD600614D5BAF12B0F09D0C9
:1002E000BAF12D0F0ED103E0584604B0BDE8F09FDF
:1002F00044F48064A9697F1C01988847761E824671
:10030000002E02DDBAF1300F03D0B9F1000F26D074
:1003100032E0A969761E44F400747F1C0198884776
:100320008246002E05DDBAF1780F06D0BAF1580FDB
:1003300003D0B9F1000F10D01EE0B9F1000F02D0C8
:10034000B9F1100F18D1A969761E24F400747F1C2E
:10035000019888478246102002E0082000E00A2029
:10036000814609E008FB0908A969761E44F4007477
:100370007F1C019888478246002E05DD494650467D
:1003800000F055FA0028EDDAE96901988847A005E0
:1003900002D46FF00100A8E7E00725D1600613D56D
:1003A000600502D5C8F1000000E0404629680A1D3A
:1003B0002A600968220501D5087015E0220701D5D9
:1003C000088011E008600FE02868011D29600068BE
:1003D000210502D580F8008006E0210702D5A0F8AB
:1003E000008001E0C0F8008038467EE72DE9FF4F2D
:1003F000087883B09946FF2805D0491C2D2804D0E1
:100400000024002008E000200BE00124F9E700EBC5
:10041000800003EB4000491C0B78FF2BF7D104B19F
:10042000404200230293147819461D462D2C01D01A
:100430002B2C04D1521C2D2C13D000240294AA463C
:100440001478FF2C0FD00A25A3FB057801FB05814A
:100450004FF0000C03FB0C11521CE3194AEB010195
:10046000EEE70124EAE7814453EA010002D019F5DE
:10047000C87F06DA03980021C0E9001107B0BDE883
:10048000F08F0025AE4E2F46DFF8B882184600F0F8
:100490007FFCCDE90001B9F1000002DAC9F10004E6
:1004A00000E004460023A74A1AEB030B42EB045A70
:1004B00012E0E00707D02A4633463846414600F0AE
:1004C00086FB074688462A4633461046194600F002
:1004D0007EFB05460E466410002CEAD1DDE90001E2
:1004E000B9F1000F5A46534606DA00F0E2FB3A46ED
:1004F000434600F0DEFB05E000F069FB3A46434668
:1005000000F065FB029A0AB181F00041039AC2E94A
:100510000001B3E72DE9FF4F1F468DB0D7E9014633
:100520004FF0FF382E2045464FF000090B90B96977
:100530006D1C0E988847396A824688470028F6D194
:10054000BAF1FF3F0AD024F4D064002E11DDBAF1D5
:100550002B0F08D0BAF12D0F0BD102E0404611B09D
:100560008DE744F48064B9696D1C0E988847824613
:10057000761E6946600501D52D2000E02B208DF800
:10058000000001F1010B0DF1200809E0B9696D1CB3
:100590000E98884782460F9844F40074761E0560D2
:1005A000002E02DDBAF1300FF0D00B998A453ED112
:1005B00044F0800406E00F99681CA9F1010944F495
:1005C00000740860B9696D1C761E0E9888478246D3
:1005D0003028F0D02BE00B998A4505D1200603D4B2
:1005E00044F08004761E18E0504603F0BBFF08B3C9
:1005F0000DF11301761E44F400748B4508D2AAF164
:1006000030000BF8010B200607D5A9F1010003E02B
:10061000200602D409F101008146A00502D50F99F8
:10062000681C0860B9696D1C0E9888478246002EC8
:10063000D1DC53E0002E51DDBAF1650F02D0BAF1E2
:10064000450F4BD1A00549D5B9696D1C24F4407400
:10065000761E0E9888478246002E0CDD2B2804D08B
:10066000BAF12D0F07D144F48074B9696D1C0E984E
:1006700088478246761EE00501D52D2100E02B211A
:1006800008F8011BCDF82C8021E00DF12901761E20
:1006900044F4007488450CD2AAF1300010F0FF0039
:1006A00088F8000002D10B99884509D908F10108A2
:1006B00006E0E00501D5244801E042F20F708146D2
:1006C000B9696D1C0E98884782460F980560002E08
:1006D00004DD504603F046FF0028D6D1F9690E9894
:1006E0008847FF208BF8000088F800000020069063
:1006F00007904B466A4608A906A8FFF777FEA005B3
:1007000002D46FF001002AE714F0240F0AD0E007AA
:1007100014D1DDE906123868031D3B600068C0E9AA
:1007200000120BE0DDE9060100F030F80146E007B9
:1007300004D13868021D3A600068016028460EE75F
:10074000000014400000F03FF1D8FFFF70B50646EE
:1007500003F03EFC046805460A220021304600F002
:10076000F7F82C6070BD00F0004230F000400AD075
:10077000C10D01F56071C0F3160042EA0151C208D3
:1007800040071143704700200146704701F00043C5
:1007900030B421F0004150EA010206D00A0DA2F562
:1007A0006072C1F31301002A02DC30BC00207047E4
:1007B000440F44EAC104C100E01830BC00EBC25051
:1007C00000F0FEB830B50B4601460020202201247F
:1007D00009E021FA02F59D4205D303FA02F5491B0F
:1007E00004FA02F52844151EA2F10102F1DC30BD25
:1007F000202A04DB203A00FA02F1002070479140E1
:10080000C2F1200320FA03F3194390407047202AD5
:1008100004DB203A21FA02F00021704721FA02F3AA
:10082000D040C2F1200291400843194670473A284F
:1008300000D2303820F02002412A01D3A2F1370043
:10084000884201D34FF0FF30704700000268114426
:100850001378016018467047D1600449516104491A
:10086000116200211161114600F000BB4D08000823
:10087000590E0008426842B1016811F8013B23B1EA
:10088000521EC0E90012184670470121C160881E3F
:10089000704742685AB1C368016843B983688B42A4
:1008A00005D0491E521CC0E90012002070474FF0CD
:1008B000FF3070470FB4002300B589B00CA9009138
:1008C0000B996FF00042CB601E4B06931E4B0793B3
:1008D0000423CDE901321D4A089202466B460020EE
:1008E000FFF718FE09B05DF814FB70B586B0064638
:1008F0004FF0FF300091CDE90101002015460C4674
:1009000004903246694604A8FFF7D4FF02460498D3
:10091000211825B108B1084600E020462860049857
:1009200000280DD0002A02DD0098884208D0081B5C
:100930000094CDE901043246694604A8FFF7BAFFE6
:1009400006B070BD7508000893080008590E00082D
:100950002DE9F04791460F4680460446002614F8DC
:10096000015B2DB100F074FA0068405DC007F6D15C
:100970002B2D02D02D2D18D0641E4A463946204614
:1009800000F00CFC27B13968A14201D1C7F8008002
:1009900071054FF002040BD54042002803DD03F03F
:1009A00017FB0460A007BDE8F08746F48066E4E723
:1009B0000028F8DA03F00CFB04606FF00040F2E767
:1009C0000029A8BF7047401C490008BF20F0010063
:1009D000704710B4B0FA80FC00FA0CF050EA010441
:1009E00004BF10BC704749B1CCF1200421FA04F4D3
:1009F00011FA0CF118BF012121430843A3EB0C01AC
:100A0000CB1D4FEA00614FEA102042BF002010BC0E
:100A1000704700EBC35010440029A4BF10BC7047BE
:100A2000401C490008BF20F0010010BC7047F0B422
:100A300000F0004221F0004120F00040CE0DC30D37
:100A4000C1F3160141F40001C0F316004C421546F3
:100A500040F40000761E09E010EB440002D582F05D
:100A6000004240428842F7D840005B1EB342F9DAA8
:100A700018B1F0BC0021FFF7ACBF2846F0BC7047AE
:100A80002DE9FE4F804681EA0300C00F0C4600901E
:100A900021F0004123F00045B8EB0200A94105D246
:100AA0004046214690461C460B46024623F0004035
:100AB000104347D0270DC7F30A00C3F30A51029031
:100AC000401A019040286BDAC3F3130040F4801BF6
:100AD0000098924620B10023D2EB030A63EB0B0B84
:100AE00001985946C0F140025046FFF781FE064684
:100AF0000D4650465946019A00F098F910EB08004F
:100B00006141002487EA115284EAE7731A4340D016
:100B1000009A62B3019A012A4FEA075215DC001BC2
:100B200061EB02014FF0004202EA0752CDE90042B8
:100B3000001C41F5801132462B4600F08DFB03B0BE
:100B4000BDE8F08F40462146F9E7001B61EB02014A
:100B5000001C41F5801300185B412018A2F5001716
:100B600047EB030140EAD570B6196D4111E06D08FD
:100B70004FEA360645EAC0754FEA0752001B61EBA3
:100B80000201001C41F5801149084FEA30000019AC
:100B9000514132462B4603B0BDE8F04F00F04DBB4B
:100BA0000098012240000023D0EB020263EBE073C7
:100BB000009821464FEAE074B8EB000061EB0401B5
:100BC000E9E783F000435BE781F0004158E72DE956
:100BD000FE4F81EA030404F0004421F00041009438
:100BE0004FF0000B23F0004350EA01045ED052EABC
:100BF00003045BD0C3F30A54C1F30A552C44A4F296
:100C0000F3340194A0FB0254C1F3130141F48011A9
:100C1000C3F3130343F4801301FB024400FB034EB0
:100C2000840A970A44EA815447EA8357A4FB076879
:100C300002958D0A05FB07854FEA932C04FB0C54A3
:100C40002705029D4FEA065847EA1637B5EB080517
:100C50006EEB070C870E920E47EA811742EA831269
:100C6000A7FB0201B6EB0B0164EB00042B0D43EA7A
:100C70000C335E1844EB1C50DA465146E7FB020188
:100C8000C5F313044FEA0B3343EA14534FEA04321B
:100C9000019C43EA0603A4F10C040294009CCDE9F4
:100CA00000B400F0D9FA03B0BDE8F08F002001468F
:100CB000F9E72DE9F04D81EA030404F0004B21F03F
:100CC000004514464FF0000A23F0004150EA0502A7
:100CD00020D054EA01021DD0C5F30A570246C5F3DD
:100CE0001303C1F31300C1F30A5640F4801543F413
:100CF0008013A7EB0608101BD64608F2FD3873EBED
:100D0000050002D308F1010801E092185B41B8F137
:100D1000000F03DA00200146BDE8F08D00204FF4FB
:100D20008011064684460EE0171B73EB050705D3BA
:100D3000121B63EB050306434CEA010C49084FEA1A
:100D4000300092185B4150EA0107EDD152EA0300EE
:100D500012D082EA040083EA0501084305D0101B83
:100D6000AB4106D20122002306E000224FF00043EF
:100D700002E06FF0010253101AEB06004CEB085131
:100D800010EB0A0041EB0B01BDE8F04D00F055BA45
:100D90000EB540F2334202920022CDE90022134602
:100DA00000F05AFA03B000BDC1F30A52C1F31301B7
:100DB00040F2FF3341F480119A4202DA00200146EA
:100DC000704740F233439A42A2F2334202DC52426D
:100DD000FFF71DBDFFF70CBD30B5041E71F1000417
:100DE00004DB4FF00044404264EB0101141E73F138
:100DF000000405DB1C464FF00043524263EB040342
:100E0000994208BF904230BD064C074D06E0E068AD
:100E100040F0010394E8070098471034AC42F6D341
:100E2000FFF7B6F91C7700083C770008202A06DB9C
:100E3000CB17203A41FA02F043EAE07306E041FAA8
:100E400002F3D040C2F12002914008431946704796
:100E500000487047E06F000810B50446FFF7F8FF40
:100E60000068005D00F0010010BD00002DE9F34FA7
:100E70008BB04FF0000801F10C000C464FF0010B55
:100E800046460DF1080A01906269012101989047D8
:100E9000051E2DD0252D2CD0216A8847C0B162694E
:100EA000012101989047216A88470028F7D1411E07
:100EB00062690198904700E0761CA1690B98884709
:100EC000216A88470028F7D1E1690B988847DBE75A
:100ED000A1690B9888470746A84201D1761CD3E741
:100EE000E1690B9888477F1C02D1B8F1000F6FD0E1
:100EF00047E1002762693D463946019890472A2814
:100F000004D162690121019890470125DFF8889298
:100F10006269012101989047A0F130010A290AD2A3
:100F20004F45E5DC07EB870100EB4107303FDFD49D
:100F300045F01005ECE7E90601D46FF000476C2896
:100F40000AD04C2814D0682815D06A280DD07428EF
:100F50001CD07A281AD01DE06269012101989047BF
:100F60006C2802D045F0040514E045F002050DE0C0
:100F700045F020050AE06269012101989047682840
:100F800002D045F0080505E045F4006562690121DD
:100F900001989047C4E9015765283DD019DC5828CD
:100FA0007AD00CDC452837D004DC252826D041280F
:100FB00031D131E046282FD047282CD12CE05B28B6
:100FC00077D0612828D063287CD0642823D15AE0C8
:100FD000D1E06F2848D008DC66281DD067281BD0D8
:100FE000692821D06E2816D127E0702845D07328B3
:100FF00068D0752847D078280DD14DE0A1690B98AD
:101000008847054625283FF469AFE1690B98884772
:101010006D1C3FF46AAFB4E023466A466FF00100EE
:101020000B99FFF777FA9FE045F040006060A80752
:1010300023464FF0000236D43EE0E8077FF447AF86
:101040002068011D21600068290501D506701BE795
:10105000290701D5068017E7A90703D5F117C0E9CD
:10106000006111E706600FE745F040006060A807E7
:1010700023464FF0080216D41EE040F60E0125EA82
:101080000100606016E045F040006060A80723465C
:101090004FF00A0207D40FE045F040006060A80757
:1010A00008D5234610226FF001000B99AFF30080A2
:1010B0005AE007E0234610226FF001000B99FFF77A
:1010C000EFF851E04FF000094F464B46632802D03D
:1010D0005B2807D041E02079C00601D40120A06040
:1010E00001273AE062690121019890475E2805D105
:1010F0004FF001096269494601989047216939B961
:1011000000210A46534643F82120491C0829FADBEE
:10111000B0B3216969B9C11700EBD16253110AEB71
:10112000830122F01F02821A01200B6890400343C2
:101130000B6062690121019890475D28E8D1B9F1FF
:10114000000F09D00020514651F82020D24341F829
:101150002020401C0828F7DB02AB224600976FF0E6
:1011600001000B99AFF3008000280CDA401C08D175
:10117000BBF1000F05D04FF0FF300DB0BDE8F08F90
:10118000FFE74046F9E7E90701D108F10108064405
:101190004FF0000B78E60000CCCCCC0C2DE9F05FD2
:1011A00082460078002715468B460AF10104B946AD
:1011B000302801D09DB113E014F8010B01277828E5
:1011C00003D0582801D045B10AE00DB1102D07D148
:1011D0000027102514F8010B02E0082500E00A257D
:1011E0000026B0460EE005FB080005FB06F10127CE
:1011F00001EB10461FFA80F8B6F5803F00D3B946E0
:1012000014F8010B2946FFF712FB0028EBDABBF1BB
:10121000000F05D00FB1641E00E05446CBF800402B
:10122000B9F1000F06D002F0D3FE02210160C81E02
:10123000BDE8F09F48EA0640FAE710B5141E73F1C6
:10124000000408DA401C41F1000192185B411A4386
:1012500001D120F0010010BD2DE9F04D92469B46D2
:1012600011B1B1FA81F202E0B0FA80F22032904678
:10127000FFF7BEFA04460F4640EA0A0041EA0B01B6
:1012800053465A46084313D0114653EA010019D079
:10129000C8F140025046FFF7BAFA05460E465046DE
:1012A00059464246FFF7A4FA084305D0012004E05E
:1012B00020463946BDE8F08D0020054346EAE07639
:1012C0002C4337430A986305E40AA0EB0800002288
:1012D000FD0A44EA47540A3002D500200146E9E7F6
:1012E000010510196941DDE9084500196941BDE8AA
:1012F000F04DA2E7FEE7704772B6FEE72DE9F04138
:101300000446876D00F05CF9064694F83500002528
:10131000022806D08020606584F834500120BDE8A2
:10132000F0812068016821F01601016020684169A0
:1013300021F080014161206C08B9A06C20B12068C7
:10134000016821F0080101602068016821F00101B5
:1013500001600CE000F034F9801B052807D920203B
:101360006065032084F8350084F83450D7E720689E
:101370000068C007EED194F85C103F208840B86048
:10138000012084F8350084F834500020C7E790F835
:101390003510022903D080214165012070470521C5
:1013A00080F835100068016821F00101016000201B
:1013B000704700002DE9F84FDFF8BCA1002201259D
:1013C00003264FF00F090AF1040BAAF1040E00BF27
:1013D0000B6805FA02F42340A34270D10F7907F09D
:1013E0000307012F01D0022F16D187684FEA420868
:1013F00006FA08FC27EA0C07D1F80CC00CFA08FC26
:101400004CEA070CC0F808C04768A7430C79C4F33E
:10141000001494403C4344600C79E443A4070AD090
:10142000C4684FEA420C06FA0CF7BC438F6807FA0F
:101430000CF72743C7600C7904F00304022C12D187
:10144000D40800EB840CDCF820405707FF0E09FAA3
:1014500007F824EA0804D1F8108008FA07F848EAE7
:101460000408CCF8208004684FEA420C06FA0CF716
:10147000BC430F7907F0030707FA0CF7274307600F
:101480004C6814F4403F70D03C4C276847F48047C8
:101490002760246822F0030704F480440094384C49
:1014A00007EB040CDCF8084897074FEA177809FAAD
:1014B00008F7BC43334FB84202D1002724E054E080
:1014C000314FB84201D101271EE0304FB84201D15F
:1014D000022719E02E4FB84201D1032714E02D4F07
:1014E000B84201D104270FE02B4FB84201D10527A4
:1014F0000AE02A4FB84201D1062705E0284FB8423A
:1015000001D1072700E0082707FA08F72743CCF89E
:101510000878DAF800405746D1F804C09C435FEAE7
:10152000CC2C00D51C433C60DBF800405F46D1F872
:1015300004C09C435FEA8C2C00D51C433C60DEF861
:1015400000407746D1F804C09C435FEA8C3C00D54C
:101550001C433C60084F083F3C68D1F804C09C43E2
:101560005FEACC3C00D51C433C60521C102AFFF4BF
:101570002FAFBDE8F88F0000083C0140443802401E
:101580000030014000000240000402400008024018
:10159000000C0240001002400014024000180240FB
:1015A000001C0240426921EA02030A4043EA024168
:1015B000816170470AB1816170470904FBE700004F
:1015C00001488068704700002C00002070B50400BE
:1015D00025D094F83D00002520B984F83C502046E1
:1015E00000F0BAF9242084F83D002068016821F059
:1015F000010101602068016841F400410160206838
:10160000016821F40041016000F06AFB4D4A616805
:10161000914201D84C4900E04C49884201D2012056
:1016200070BD4B492368B0FBF1F15E6826F03F06C0
:101630000E435E606368934206D94FF49673594334
:101640004FF47A73B1FBF3F12368491C1E6A26F04C
:101650003F06314319626168914210D84900401E2B
:10166000B0FBF1F2521CC2F30B02042A01D2042097
:1016700022E0B0FBF1F0401CC0F30B001CE0A268BC
:10168000F2B301EBC10303EB0116431EB3FBF6F308
:101690005B1C43F480431B0549D092B301EBC102AC
:1016A00002EB0111401EB0FBF1F0401CC0F30B0037
:1016B00040F4804040F400402168CA694CF6FF7352
:1016C0009A431043C861D4E90710014320680268B7
:1016D00022F0C00211430160D4E9030101432068F4
:1016E000826848F2FF339A4311438160D4E90501CF
:1016F00008432168CA6822F0FF021043C86001E075
:101700000EE016E02068016841F0010101602564E7
:10171000202084F83D00256384F83E50002070BDF1
:1017200001EB4106431EB3FBF6F35B1CB3E701205C
:10173000C2E701EB4101401EB0FBF1F0401CC0F3D9
:101740000B00B7E7A086010080841E0000093D0061
:1017500040420F002DE9FF4F83B09A46DDE9118723
:1017600093460446DDF84090FFF72AFF054694F8BB
:101770003D00202870D1192301227449204600958C
:1017800001F01AF90028F5D194F83C00012863D043
:10179000012084F83C0020680168C90703D1016872
:1017A00041F0010101602068016821F400610160DD
:1017B000222084F83D00402084F83E000026266464
:1017C000C4F82490A4F82A80608D20856048E062E7
:1017D000CDE9007553465A462046049901F06EF84B
:1017E000002879D1208DD0B1012821D0022820688D
:1017F00024D0416980690090208D032866D8012893
:101800002BD0544902283B464FF00002009557D098
:101810008846204601F0D0F800285DD13AE02068E3
:10182000416981690091016841F4007101607DE0C6
:101830002068016821F480610160F0E7016821F40B
:10184000806101602068016841F4006101602068E6
:1018500041698069009069E075E02A463946204672
:1018600001F050F988BB54E02068016841F4007130
:10187000016020680069616A0870606A401C6062EB
:10188000218D491E2185618D491E61852168096967
:10189000017042E02068016821F4806101602068E5
:1018A0000069616A0870606A401C6062208D401E99
:1018B0002085608D401E60853B4600224146009594
:1018C000204601F079F800B9CEE705E02A4639460E
:1018D000204601F017F918B1012007B0BDE8F08FDC
:1018E00020680069616A0870606A401C6062208D2F
:1018F000401E81B22185608D401E6085206842694E
:10190000D243520712D4032903D1016821F4806124
:10191000016020680069616A0870606A401C60624A
:10192000208D401E2085608D401E6085208D002802
:101930007FF462AF202084F83D0084F83E6084F894
:101940003C600020C9E70220C7E700000200100049
:101950000000FFFF040001002DE9F04186B00446BD
:1019600014216846FEF766FC2268394C374B00218B
:10197000374812250126042710349A4219D10268EB
:1019800042F0020202600068CDE9026100F002004C
:101990000590C020CDE90005049769462D48FFF762
:1019A00009FD206840F400102060206800F4001059
:1019B0001BE0294B9A421CD1026842F020020260CF
:1019C0000068CDE9026100F0200005900320CDE918
:1019D0000005049769462148FFF7ECFC206840F4B5
:1019E00080002060206800F48000059006B0BDE80B
:1019F000F0811B4B9A42F9D18846016841F00401FD
:101A00000160016801F004010591016841F00101E4
:101A100001600068049700F00100059050158DE802
:101A2000610169460F48FFF7C5FC4FF480700497C9
:101A30008DE8610169460C48FFF7BCFC206840F462
:101A400000002060206800F40000CEE70054004051
:101A500030380240000402400058004000140240A8
:101A6000005C00400008024000000240024881681B
:101A700002781144816070472C0000200B4810B59B
:101A8000016841F400710160016841F48061016006
:101A9000016841F480710160032000F06FF80F20AD
:101AA00000F006F800F024F8002010BD003C0240D1
:101AB00070B50D4D04464FF47A712878B1FBF0F003
:101AC0000A490968B1FBF0F000F012FB48B9102C8C
:101AD00007D200222146501E00F030F800206C6032
:101AE00070BD012070BD00002C00002038000020D7
:101AF0000A4808B5016841F480410160006800F4BB
:101B0000804000900548001F016841F0805101604D
:101B1000006800F08050009008BD0000443802408A
:101B2000002809DB00F01F020121914040098000DC
:101B300000F1E020C0F8001170470000F0B40E4B37
:101B40001B680C46C3F30223C3F10705042D00D91B
:101B50000425191D072901D2002300E0DB1E012600
:101B600006FA05F1491E214099409E40761E164016
:101B70003143F0BC02F01BBA0CED00E0064900F066
:101B8000070208684FF6FF03184040EA0220034AA4
:101B900010430860704700000CED00E00000FA05FB
:101BA0002DE9F0470E46050065D0DFF81481D8F81E
:101BB0000000F7B200F00700B04207D288F80070CA
:101BC000D8F8000000F00700B04254D128683D4C1E
:101BD000810712D5400703D5206840F4E05020600B
:101BE0002878000703D5206840F460402060206812
:101BF000A96820F0F000084320602878C0072DD0A5
:101C0000304968680839012812D0022813D0032807
:101C100011D00968890700292DDA216821F0030114
:101C200001432160FFF7CCFC814641F2883A0EE087
:101C300009688903EFE709688901ECE7FFF7C0FC51
:101C4000A0EB0901514502D90320BDE8F0872068C7
:101C5000696800F00C00B0EB810FEFD1D8F80010EC
:101C6000404601F00701B14207D90770006800F053
:101C70000700B04201D00120E7E72878400705D5EA
:101C80002068E96820F4E0500843206028780007C5
:101C900006D52068296920F4604040EAC100206030
:101CA00000F03EF82168084AC1F30311515CC840B6
:101CB0000649086006480068FFF7FAFE0020C4E7FE
:101CC000003C024008380240246C00083800002024
:101CD00030000020014800687047000038000020F4
:101CE0000448054900680968044AC1F38221515C2F
:101CF000C84070473800002008380240346C0008A3
:101D00000448054900680968044AC1F34231515C3E
:101D1000C84070473800002008380240346C000882
:101D2000154810B5006810F00C02144813D014497F
:101D3000042A0FD0082A0ED10F4C241F22682368D2
:101D400002F03F025B0207D52068C0F38810A0FBB9
:101D5000010106E0084610BD2168C1F38811A1FB0E
:101D600000010023FEF72EFA2168C1F30141491C4E
:101D70004900B0FBF1F010BD083802400024F40027
:101D800040787D012DE9F84F04006ED02078DFF80F
:101D90004C93C007A9F104054AD009F10400016879
:101DA000C1F38101012908D00068C0F38100022835
:101DB0000AD1D9F80000400206D52868800337D53B
:101DC00060680028E1D033E06068B0F5803F10D053
:101DD000B0F5A02F286810D020F480302860286843
:101DE00020F4802028606068A8B1FFF7E9FB064670
:101DF0000DE0286840F48030F4E740F4802028604B
:101E0000F7E700BFFFF7DCFB801B642873D8286866
:101E10008003F7D50CE0FFF7D3FB064605E000BFD3
:101E2000FFF7CEFB801B6428F0D828688003F7D426
:101E30002078DFF8AC8280074FF0000A3ED5A74833
:101E4000001D016811F00C0F08D00068C0F381007C
:101E500002280BD1D9F80000400207D42868800777
:101E600016D5E068012800D112E033E1E068B8B18E
:101E70000120C8F80000FFF7A3FB064605E000BFFD
:101E8000FFF79EFB801B0228C0D828688007F7D583
:101E90002868216920F0F80040EAC10028600DE0C0
:101EA000C8F800A0FFF78CFB064604E0FFF788FBAC
:101EB000801B02281FD828688007F7D420780007E5
:101EC00022D5864F87486169703771B10121016061
:101ED000FFF776FB064604E0FFF772FB801B022843
:101EE00009D838688007F7D50EE0C0F800A0FFF7E2
:101EF00067FB064605E082E0FFF762FB801B0228D5
:101F00007DD838688007F7D42078400768D5DFF897
:101F1000CCB100270BF13C0BDBF80000C0000BD468
:101F2000DBF8001041F08051CBF80010DBF8000026
:101F3000012700F0805000906B4E3068C00510D42F
:101F4000306840F480703060FFF73AFB009005E0A5
:101F5000FFF736FB0099401A022850D83068C005B8
:101F6000F6D55E4EA0686C3601280FD00528306883
:101F700010D020F001003060306820F004003060A4
:101F8000A068B8B1FFF71CFB00900FE0306840F08C
:101F90000100F4E740F004003060F7E7FFF710FBC2
:101FA0000099411A41F28830814266D83068800732
:101FB000F4D50EE0FFF704FB009007E0FFF700FB0D
:101FC0000099411A41F28830814256D83068800722
:101FD000F4D42FB1DBF8001021F08051CBF80010C1
:101FE000A069C8B33D49091D0968C1F381010229EF
:101FF0004AD00228504607D0C8F8600000E03CE014
:10200000FFF7DEFA04463BE04746C8F86000FFF7FA
:10201000D7FA064605E000BFFFF7D2FA801B022878
:102020002BD828688001F7D4D4E907010843A16AB6
:102030002E4A490802EB0141626A41EA82110843D3
:1020400094F82C1040EA0161C9F8001001203866AC
:10205000FFF7B6FA044606E03EE000BFFFF7B0FA2D
:10206000001B022809D828688001F7D534E000BF9A
:10207000FFF7A6FA001B022802D90320BDE8F88F5B
:1020800028688001F4D427E00128F7D0D9F80000AF
:10209000E26900F4800191421CD1226A00F03F0104
:1020A000914217D147F6C071626A0140B1EB821FBD
:1020B00010D1A26A4FF0FF3300F4403103EB52021B
:1020C000B1EB024F06D194F82C1000F07060B0EB29
:1020D000016F01D00120D1E70020CFE70438024092
:1020E00000004742800E4742007000400000FFFFA2
:1020F00010B5401EB0F1807F01D3012010BD4FF01C
:10210000E02460610F21601701F051FF0020A06101
:1021100007202061002010BD10B590F83C20012A56
:1021200022D0012280F83C20CA688C6822F44072D8
:1021300022434C6822F4806222430C6822F400623D
:1021400022430C6922F4805222434C6922F400524B
:102150002243C969002322F480420A4301684A6489
:1021600080F83C30002010BD022010BD70B590F802
:102170003C20012A32D0012480F83C40022280F821
:102180003D2003685A689D6822F070060A68324351
:102190005A60134B02689A4214D0B2F1804F11D0AA
:1021A000104B9A420ED0104B9A420BD00F4B9A42D2
:1021B00008D00F4B9A4205D00E4B9A4202D00E4BDC
:1021C0009A4204D1496825F080031943916080F850
:1021D0003D40002180F83C10084670BD022070BDD3
:1021E000000001400004004000080040000C0040D6
:1021F00000040140004001400018004070B586B066
:10220000044614216846FEF715F82B4A216800247D
:102210002A4802250126914211D1016841F010019E
:1022200001600068694600F0100005904FF42850E6
:102230000090CDE90154CDE90346214822E0214A2E
:10224000914223D1016841F001010160016801F070
:1022500001010591016841F00201016000686946D1
:1022600000F002000590C0200090CDE9015416480E
:10227000CDE90345FFF79EF80096CDE90154694684
:10228000124815E0FFF796F806B070BD104A91426B
:10229000FAD1016841F0080101600068694600F068
:1022A000080005904FF4E0400090CDE90154094842
:1022B000CDE90345E6E70000000001403038024068
:1022C00000100240000400400000024000040240F0
:1022D00000080040000C024070B5044690F83C0035
:1022E00000260D4601280FD0012084F83C006AB179
:1022F000042A1DD0082A2FD00C2A3FD00126002006
:1023000084F83C00304670BD022070BD206801F0AA
:1023100017FC2068816941F00801816120688169AA
:1023200021F004018161206881692A69114311E06B
:10233000206801F035FC2068816941F40061816109
:102340002068816921F480618161206881692A693E
:1023500041EA02218161D2E7206801F057FC206840
:10236000C16941F00801C1612068C16921F004011F
:10237000C1612068C1692A69114311E0206801F038
:1023800079FC2068C16941F40061C1612068C169BC
:1023900021F48061C1612068C1692A6941EA022192
:1023A000C161ACE710B5040003D094F83D0010B152
:1023B00007E0012010BD002084F83C00204600F01A
:1023C0001FF8022084F83D00211D206801F042FB27
:1023D000012084F8460084F83E0084F83F0084F829
:1023E000400084F8410084F8420084F8430084F8F7
:1023F000440084F8450084F83D00002010BD000032
:1024000008B501681248814208D11248016841F0BC
:1024100001010160006800F001000BE00D480E4A68
:10242000001F914208D1016841F00201016000687B
:1024300000F00200009008BD084A9142FBD10168FB
:1024400041F004010160006800F00400F2E70000C0
:1024500000000140443802400004004000080040F1
:1024600010B50446022249B104290ED0082913D020
:1024700094F84100012816D0012010BD94F83E00C8
:102480000128F9D184F83E200FE094F83F0001289C
:10249000F2D184F83F2008E094F840000128EBD105
:1024A00084F8402001E084F841200122206801F0F6
:1024B00039FB16492068164A884201D0904203D160
:1024C000436C43F4004343642068884213D0B0F166
:1024D000804F10D00F4988420DD00F4988420AD052
:1024E0000E49884207D0904205D00D49884202D05B
:1024F0000C49884204D1816801F00701062903D004
:10250000016841F001010160002010BD00000140A0
:10251000000401400004004000080040000C00409E
:10252000004001400018004070477047F8B501684E
:1025300004460868CA684B6910F00F0F4FF0000599
:1025400059D003F0010602F49077374365D0C107F4
:1025500005D0D10503D5616C41F0010161644107EB
:1025600005D5D90703D0616C41F002016164810790
:1025700005D5D90703D0616C41F0040161640107FE
:1025800007D502F02001314303D0616C41F008010E
:102590006164616C00293AD0800604D5900602D5AA
:1025A000204601F0BDFB20684069616CC0F38010DB
:1025B000090700D460B3204601F08BFB2068406916
:1025C000400621D52068143050E8001F21F040015A
:1025D00040E80012002AF5D1E06BA8B1724901650C
:1025E000E06BFEF7D4FE002811D0E06B016D01B066
:1025F000BDE8F040084783060FD593060DD5204669
:10260000BDE8F84001F08CBB2046FFF78EFFF8BD17
:102610002046FFF78AFF6564F8BD266B2023012E54
:102620007ED1C6067CD5D6067AD508684868009063
:1026300048694FF0020640064DD5E26B10684068CD
:102640004FF480770004000C3AD0A18D814237D935
:10265000E085D069B8422DD020680C3050E8001FCA
:1026600021F4807140E80012002AF5D1206814306E
:1026700050E8001F21F0010140E80012002AF5D1C6
:102680002068143050E8001F21F0400140E800129B
:10269000002AF5D184F84230256320680C3050E8D8
:1026A000001F21F0100140E80012002AF5D1E06B74
:1026B000FEF724FE6663A08DE18D401A81B206E02C
:1026C000A18D8142A8D1D069B842A5D166632046C8
:1026D000FFF72AFFF8BDA08DE18D401A81B2E08D91
:1026E0000028F7D00029F5D020680C3050E8002FE2
:1026F00022F4907240E80027002FF5D120681430B2
:1027000050E8002F22F0010240E80027002FF5D109
:1027100084F84230256320680C3050E8002F00E038
:1027200006E022F0100240E80023002BF3D1CDE7B1
:1027300005062BD5150629D594F841002128C9D1C5
:10274000A068B0F5805F01D12069B0B1206A411C5A
:102750002162216800784860E08C401E0004000C73
:10276000E084B7D12068C16821F08001C160206891
:10277000C16841F04001C160F8BD206A0088C0F323
:1027800008004860206A801C2062E5E74006F3D517
:102790005006F1D5CA68204622F04002CA6084F88B
:1027A000413000F072F8F8BDC53C000870B5040077
:1027B00004D094F84100002510B106E0012070BD5E
:1027C00084F84050204600F023F8242084F841008B
:1027D0002068C16821F40051C160204601F002FB6D
:1027E0002068016921F4904101612068416921F06C
:1027F0002A0141612068C16841F40051C1606564EB
:10280000202084F8410084F842006563002070BDF8
:1028100010B586B0044614216846FDF70BFD174934
:102820002068884228D116480021026842F400320C
:102830000260006800F4003005901148103802680A
:1028400042F008020260006800F008000590602075
:1028500000900220CDE9010103200390072004909D
:1028600069460848FEF7A6FD002211462620FFF71C
:1028700065F92620FFF754F906B010BD004400406A
:1028800040380240000C024070477047FEE7016884
:102890004A69D24352050FD46FF480624A61002125
:1028A00040F8301F202242738173026942F0040213
:1028B0000261017301207047002070472DE9F84F35
:1028C0000446006889460B9D01689846174641F406
:1028D000806101602068016841F4807101600095A9
:1028E0004FF0011B0022594620460A9B00F064F875
:1028F0004FF4007A40B120680068C00501D5C4F8E3
:1029000040A00320BDE8F88F216809F0FE000861AF
:102910002B46284920460A9A00F096F8F0BB20681A
:102920004169806900902A4620460A9900F022F900
:1029300040B1206C04283AD12068016841F400714C
:10294000016034E0FEB2B8F1010F09D02168380A05
:1029500008612A4620460A9900F00CF90028E8D1BF
:10296000206806612A4620460A9900F003F90028EB
:10297000DFD12068016841F4807101600095002278
:10298000594620460A9B00F017F80028B3D1216869
:1029900009F0FF0040F00100086100E007E02B466D
:1029A000044920460A9A00F04FF80028AAD00120D6
:1029B000A8E70000020001002DE9F04798461746FD
:1029C0000D460446C1F30746DDF820902AE000BF1B
:1029D000B8F1FF3F26D0FEF7F3FDA0EB090141451A
:1029E00002D8B8F1000F1DD12068012E16D08069E1
:1029F00025EA00000004000C12D00020B84211D1DA
:102A0000002044F8300F20216173A073216941F048
:102A10002001216120730120BDE8F0874069E7E7CC
:102A20000120EBE72068012E0AD0806925EA00002A
:102A30000004000C06D00020B842C9D00020EBE70B
:102A40004069F3E70120F7E72DE9F047984616467D
:102A50000D4604464FF000094FF0200AC1F3074726
:102A600023E020684069C043400515D42068016810
:102A700041F40071016021686FF480604861C4F81E
:102A8000309084F83DA084F83E90216C41F0040120
:102A9000216484F83C9021E0701C06D0FEF790FD84
:102AA000A0EB0800B04203D816B1012F1FD021E0DF
:102AB0002068012F15D0806925EA00000004000C71
:102AC00018D000BF44F8309F84F80DA084F80E9011
:102AD000216941F02001216184F80C900120BDE8BA
:102AE000F087406925EA00000004000CEAD1206864
:102AF000406901E02068806925EA00000004000CBC
:102B0000AFD1ECE72DE9F041002590460E46044692
:102B1000202728E04069C043C0060CD454F8301B7D
:102B20006FF01000486144F810596777A577206A64
:102B30002062257714E0FEF743FDA0EB0800B042C9
:102B400000D886B920684069C04340060BD544F8D8
:102B5000305F6773A573206940F020002061257302
:102B60000120BDE8F08120684169C9434906D1D4FC
:102B70000020F6E770B516460D4604461EE02046D6
:102B8000FFF785FE08B1012070BD681C16D0FEF766
:102B900017FD801BA84200D885B920684069C04352
:102BA00000060BD5002044F8300F20216173A0737C
:102BB000216941F0200121612073E4E72068406928
:102BC000C0430006DBD4002070BD00004FF0E021C0
:102BD000F0EE401A8969DFED210A82683AB19FED73
:102BE000200AB3EE051A8A4204D9521A06E0B0EE62
:102BF000600A0BE06FF07F435B1A1A4402EE102A62
:102C0000B8EE422A22EE002A82EE010AB5EEC00A90
:102C1000F1EE10FA04D910EE102AB2F17C5F01DD5A
:102C2000B0EE600A8160D0ED000AF5EEC00AF1EE68
:102C300010FA02D8B0EE610A704730EE800A80EEDA
:102C4000801A90ED010AF7EE000A20EE010A70EEFC
:102C5000C10A00EEA10A80ED010A70476F12833AA3
:102C6000BD3786357FB5054600200C4600900190A3
:102C70000290039002A9684600F076F8BDF90000C2
:102C800000EE100AF8EEC00A9FED1D0A60EE800A01
:102C9000C5ED000ABDF9020000EE900AF8EEE00A68
:102CA00060EE800AC5ED010ABDF9040000EE900A4D
:102CB000F8EEE00A20EE800A85ED020ABDF9080070
:102CC00000EE100AF8EEC00A9FED0E0A60EE800AD0
:102CD000C4ED000ABDF90A0000EE900AF8EEE00A21
:102CE00060EE800AC4ED010ABDF90C0000EE900A06
:102CF000F8EEE00A20EE800A84ED020A7FBD0000B3
:102D000040DA7F38295C8F3D10B500F027FD142094
:102D100002F0C4FE0121122000F0BAFD322002F0C0
:102D2000BDFE00F015F86B2801D0012010BD442134
:102D3000122000F0ADFD4021102000F0A9FD4C2133
:102D4000112000F0A5FD0A2002F0A8FE002010BD11
:102D500008B500208DF80000012269460F2000F020
:102D60005FFD9DF8000008BD3EB50D4604460C22EF
:102D70006946222000F054FDBDF800002880BDF80F
:102D800002006880BDF80400A880BDF8060020801D
:102D9000BDF808006080BDF80A00A08000203EBD9C
:102DA0007FB5054600200C460090019002900390EC
:102DB00002A9684600F0ACF8BDF9000000EE100A68
:102DC000F8EEC00A9FED1D0A60EE800AC5ED000A0C
:102DD000BDF9020000EE900AF8EEE00A60EE800A0B
:102DE000C5ED010ABDF9040000EE900AF8EEE00A14
:102DF00020EE800A85ED020ABDF9080000EE100AF7
:102E0000F8EEC00A9FED0E0A80EE801A84ED001ADB
:102E1000BDF90A0000EE900AF8EEE00A80EE801A92
:102E200084ED011ABDF90C0000EE900AF8EEE00AFC
:102E300080EE801A84ED021A7FBD00000000803809
:102E40003333834110B52A4888B00024016841F02B
:102E5000020101600068142100F00200069068463B
:102E6000FDF7E8F94FF44060009011200190012037
:102E700002900320039069461E48FEF79BFA1D4806
:102E80004FF4806118300160C1140160142002F019
:102E900005FE80216B2003F00EFC322002F0FEFDC7
:102EA00000216B2003F007FC142002F0F7FD8DF8E1
:102EB0001440012205A9752003F0D0FB9DF81400F1
:102EC000682802D0012008B010BD0721192003F0A6
:102ED000F2FB06211A2003F0EEFB18211B2003F061
:102EE000EAFB00211C2003F0E6FB0020EBE70000DA
:102EF000303802400004024008B500208DF8000080
:102F000001226946752003F0A9FB9DF8000008BD69
:102F10007FB50C4605460E2269463B2003F09EFB1A
:102F200010B1012004B070BDBDF8000040BA288087
:102F3000BDF8020040BA6880BDF8040040BAA8801D
:102F4000BDF8080040BA2080BDF80A0040BA608091
:102F5000BDF80C0040BAA0800020E3E7F0B587B0D0
:102F600014216846FDF766F935480024016841F0F0
:102F700020010160016801F020010591016841F024
:102F800080010160016801F080010591016841F054
:102F900001010160016801F001010591016841F042
:102FA00002010160016801F002010591016841F030
:102FB00040010160016801F040010591016841F0A4
:102FC00010010160016801F010010591016841F0F4
:102FD00008010160016801F008010591016841F0F4
:102FE000040101600068174E00F0040040F2FF1574
:102FF0000590002229463046FEF7DCFA124F0022E7
:1030000007213846FEF7D6FA00950125CDE901548F
:10301000694630460394FEF7CDF907200090CDE9CC
:103020000154694638460394FEF7C4F98020CDE97F
:103030000004694638460294FEF7BCF907B0F0BDBB
:103040003038024000180240000C02400D4810B514
:103050000B4901600C49416000214FF480428160BE
:10306000C0E9031241618161C1610162FEF7AEFAFC
:10307000002803D0BDE81040FEF73EB910BD0000A7
:103080000054004090000020801A06000D4810B542
:103090000B4901600C49416000214FF4804281607E
:1030A000C0E9031241618161C1610162FEF78EFADC
:1030B000002803D0BDE81040FEF71EB910BD000087
:1030C00000580040E4000020801A06000D4810B5AA
:1030D0000B4901600C49416000214FF4804281603E
:1030E000C0E9031241618161C1610162FEF76EFABC
:1030F000002803D0BDE81040FEF7FEB810BD000068
:10310000005C004038010020801A060030B591B004
:1031100000240F941C2168461094FDF78BF82021A1
:1031200007A8FDF787F83248304D20210560C0E937
:1031300001414FF45261C0E903148021C0E9054107
:10314000FFF730F908B1FEF7D7F80F940FA9284818
:103150001094FFF70BF808B1FEF7CEF86020CDE928
:1031600000040294039404940594002269462048C4
:103170000694FFF7B1F808B1FEF7BEF804226946DD
:103180001B48FFF7A9F808B1FEF7B6F80822694610
:103190001748FFF7A1F808B1FEF7AEF807940894B6
:1031A00009944FF400500A94CDE90B4007A9104848
:1031B0000E94FEF7B1FF08B1FEF79EF80C48FFF73A
:1031C0001DF800210A48FFF74BF904210848FFF7D2
:1031D00047F908210648FFF743F9686C40F40040BE
:1031E00068640348FFF70AF811B030BD00000140E1
:1031F0008C01002010B58AB0002407941C21684679
:103200000894FDF717F81F481D49C0E90014202154
:10321000816040F28F61C0E9031480218161FFF772
:10322000C1F808B1FEF768F8079407A91548089493
:10323000FEF79CFF08B1FEF75FF86020CDE90004BF
:103240000294002269460F480494FFF745F808B13C
:10325000FEF752F8042269460A48FFF73DF808B124
:10326000FEF74AF8082269460648FFF735F808B124
:10327000FEF742F80348FEF7C1FF0AB010BD000098
:1032800000040040D401002010B58AB00024079447
:103290001C2168460894FCF7CDFF1F481D49C0E972
:1032A00000142021816040F28F61C0E90314802165
:1032B0008161FFF777F808B1FEF71EF8079407A9B8
:1032C00015480894FEF752FF08B1FEF715F8602084
:1032D000CDE900040294002269460F480494FEF7E9
:1032E000FBFF08B1FEF708F8042269460A48FEF71A
:1032F000F3FF08B1FEF700F8082269460648FEF71A
:10330000EBFF08B1FDF7F8FF0348FEF777FF0AB0BF
:1033100010BD0000000800401C0200200E4810B53F
:103320000C4901604FF4E1314160002181600C22C1
:10333000C160C0E904128161C161FFF737FA08B1C9
:10334000FDF7DAFF03480C30016841F0200101600D
:1033500010BD00000044004064030020FEE70000B0
:1033600030B587B014216846FCF764FF0D4800248F
:10337000016841F00801016000680B4D00F0080091
:103380000590224607212846FEF714F907200090F1
:103390000120CDE90104694628460394FEF70AF8A6
:1033A00007B030BD30380240000C024010B508A014
:1033B00000F0DAFD002000F039F8012000F036F8C6
:1033C000022000F033F8BDE810400DA000F0CCBDA5
:1033D0000D0A3D3D3D205374617274696E67203360
:1033E0002D41786973204D54363730312053656E46
:1033F000736F7220416C69676E203D3D3D0D0A0080
:103400003D3D3D20332D417869732053656E736FC8
:103410007220416C69676E2046696E6973686564E5
:10342000203D3D3D0D0A0D0A000000002DE9F0434E
:103430002DED068B85B004469FED5F8A5F48032C17
:1034400090ED009A05D3012005B0BDEC068BBDE8D8
:10345000F08320469FED5AAAF0EE480AB0EE490AE2
:10346000B0EE4A1A03F040F900264FF42F774FF4DC
:103470007A75284602F029FB761CBE42F9DB20460D
:1034800003F0BEFA204603F09FFAF0EE408A204691
:103490009FED4C1AF0EE480AB0EE490A03F024F909
:1034A0000026284602F011FB761CBE42F9DB2046BE
:1034B00003F0A6FA204603F087FAF0EE409AB0EE49
:1034C000480A2046B0EE401AF0EE400A03F00CF92C
:1034D00039EEE80A3C493D4F4FF00108F0EEC00AD2
:1034E00010EE900A88420CDA10EE100AFDF73BF954
:1034F00041EC100B611C53EC102B354800F034FDEF
:1035000004E0B5EEC00AF1EE10FA02DD47F82480BF
:1035100003E04FF0FF3047F824002046B0EE4A1A8F
:10352000F0EE480AB0EE490A03F0DEF8A94600269C
:103530004FF4FA75484602F0C8FA761CAE42F9DB41
:10354000204603F05DFA234800EB8405204685ED14
:10355000008A02F0CDFA85ED000A2046B0EE481A46
:10356000F0EE480AB0EE480A03F0BEF81A499FEDA3
:103570001B0A9FED1B1A01F8048095ED008A68EE86
:10358000000A80EE810A10EE100AFDF7ECF80546FD
:103590000E4618EE100AFDF7E6F88DE8630057F8BE
:1035A0002400012806D00FA2611C10A000F0DCFC52
:1035B000002049E71BA2F7E70000000050000020B0
:1035C000E4CB9640DB0FC9400AD7233C40000020E3
:1035D000CC760008C40300204C00002000003443D7
:1035E000DB0F4940434357282D312900416C69675F
:1035F0006E204D2564204F4B3A204469723D25735F
:103600002C205A65726F5F456C65633D252E3266CE
:10361000207261642028252E316620646567290D9B
:103620000A0000004357282B31290000FEE7000064
:103630004FF0E0218969DFED460A026A3AB19FED59
:10364000451AF3EE051A8A4204D9521A06E0B0EE82
:10365000601A0BE06FF07F435B1A1A4402EE102AE7
:10366000B8EE422A22EE012A82EE211AB5EEC01AE5
:10367000F1EE10FA04D911EE102AB2F17C5F01DDEF
:10368000B0EE601A0162D0ED000AD0ED011A20EE12
:10369000803A61EE801AD0ED070A41EE810AD0ED42
:1036A000041AB1EE612AB4EEE02AF1EE10FA02DD5E
:1036B000F0EE420A06E0F4EEE01AF1EE10FA01D262
:1036C000F0EE610AC0ED070AD0ED053AD0ED022A0E
:1036D00080ED050A70EE633A33EE200A62EEA33AFB
:1036E000C3EE812A30EE220AB4EEC02AF1EE10FABF
:1036F00002DDB0EE420A06E0F4EEC01AF1EE10FA76
:1037000001D2B0EE610AD0ED031AF5EEC01AF1EE67
:1037100010FA1ADDD0ED060A70EE602A82EE812AD8
:10372000F4EEC21AF1EE10FA04D2B0EE600A01EE25
:10373000810A0AE0F1EE612AF4EEC22AF1EE10FAF3
:1037400003DDB0EE600A01EEC10A80ED060A7047A3
:103750006F12833ABD378635704700002DE9F0417E
:103760002C4886B04FF00008016841F0020101606A
:10377000006800F00200059026481030016841F40E
:10378000804101600068142100F480400590684683
:10379000FCF750FD01244FF480550326CDE9005479
:1037A0001D4FCDE9024669463846FDF703FE1A482B
:1037B000183005604FF46040009001A9022081E8B4
:1037C00051000520049069463846FDF7F3FD134883
:1037D000C0F80080016841F004010160016841F017
:1037E00010010160016841F002010160016841F0CF
:1037F00001010160016841F400710160016841F458
:1038000080710160016841F04001016006B0BDE8CF
:10381000F0810000303802400004024000380040CF
:10382000F0B50C4E0F464FF080511546316040F018
:10383000800000F011F8002405E0FF2000F00CF8F3
:103840003855641CA4B2AC42F7D34FF480503060BA
:10385000F0BD00001804024010B54CF25033194678
:103860000A4A01E0491E0ED01468A407FAD5074998
:10387000091D086001E05B1E05D01068C007FAD082
:103880000868C0B210BDFF2010BD0000083800401D
:1038900030B5074C0D464FF08051216000F07F009D
:1038A000FFF7DAFF2846FFF7D7FFA014206030BDEE
:1038B000180402407047000010B5174B0021DFEDDF
:1038C000150A9FED161ADFED161A9FED162A9FEDC9
:1038D000160A9FED163A0A46F0EE042A03F16C042C
:1038E00001EBC10003EB800080ED050A80ED060AC4
:1038F00080ED070AC0EC050A026201EB410004EB0F
:103900008000491C80ED003A80ED010A82600329A5
:10391000E6DB10BDCDCC4C3E0C0400209A99993FBB
:103920006F12833A0000C842000000008FC2753C4D
:10393000FEF79CB830B593B030216846FCF77AFCAE
:1039400014210CA8FCF776FC1E480025016841F004
:1039500080510160006800F0805011901A480168A1
:1039600041F4804101600068022400F4804011901D
:1039700001200090000401908001CDE9064019204B
:1039800008904FF4A870CDE9090404200B90684614
:10399000FEF7F8F908B172B6FEE70CA90F2081E82E
:1039A00031004FF4A0500F904FF48050109005213B
:1039B0000CA8FEF7F5F8002801D072B6FEE713B0A8
:1039C00030BD0000403802400070004002480168ED
:1039D00041F470010160704788ED00E038B512488D
:1039E0000024016841F0100101600068224600F0E7
:1039F0001000009001213620FEF7A0F83620FEF7D7
:103A00008FF80A4804605321816240F2E731C162B5
:103A10000121C160416941F001014161016841F04A
:103A20000101016038BD0000403802400010004034
:103A300006480169C90708D06FF001010161044817
:103A40000168491C0160FEF711B870470010004082
:103A500028000020F0B50268274B284D284E294F3A
:103A6000294C4FF0804C984209D0604507D0A842BD
:103A700005D0B04203D0B84201D0A04204D122F018
:103A8000700E4A6842EA0E0298421BD0604519D077
:103A9000A84217D0B04215D0B84213D0A04211D0DE
:103AA0001A4DA8420ED01A4DA8420BD0194DA8426B
:103AB00008D0194DA84205D0184DA84202D0184D83
:103AC000A84203D122F44075CA682A434D6922F006
:103AD00080022A438D68C5620D688562984201D0D4
:103AE000A04201D109690163016841F0040101604C
:103AF000012141610260F0BD00000140000400406E
:103B000000080040000C004000040140004001405B
:103B1000004401400048014000180040001C0040E3
:103B20000020004010B501F01F030121046A9940F4
:103B30008C430462016A9A401143016210BD000087
:103B4000F0B5036A026A22F00102026242688469E7
:103B5000124E24F073050C682C4323F002058B6889
:103B60002B430D4DA84201D0B04205D123F00807E8
:103B7000CB683B4323F00403A84201D0B04205D1F7
:103B80004D6922F4407215438A692A434260846178
:103B9000496841630362F0BD000001400004014038
:103BA000F0B5026A036A23F0100303624368846974
:103BB0000D6824F4E64444EA05248D6822F02002CE
:103BC00042EA05120F4D104EA84201D0B04206D174
:103BD000CF6822F0800242EA071222F04002A84297
:103BE00001D0B04207D14D6923F4406343EA850315
:103BF0008D6943EA85034360846149688163026299
:103C0000F0BD00000000014000040140F0B5026A70
:103C1000036A23F4807303624368C46922F4007268
:103C200024F073050C68124E2C438D6842EA05227D
:103C30000E4DA84201D0B04206D1CF6822F40062F6
:103C400042EA072222F48062A84201D0B04207D1A2
:103C50004D6923F4405343EA05138D6943EA051384
:103C60004360C4614968C1630262F0BD0000014065
:103C70000004014030B5046A026A22F480520262F4
:103C80004268C3690D6823F4E64343EA05238D685F
:103C900024F4005444EA0534084DA84202D0084DEB
:103CA000A84204D14D6922F4804242EA8512426062
:103CB000C36149680164046230BD00000000014036
:103CC0000004014010B5806B0021C185FEF72DFC7A
:103CD00010BD01680C3151E8002F22F4907241E8C8
:103CE0000023002BF5D10168143151E8002F22F098
:103CF000010241E80023002BF5D1016B012909D114
:103D000001680C3151E8002F22F0100241E8002335
:103D1000002BF5D1202180F842100021016370476B
:103D200008B590F84210222901D0022008BD82680F
:103D30004FF480539A4201D1016921B1816A9A42BC
:103D40001BD04AB10AE00268816A5268C2F30802D5
:103D50000A80816A891C08E0026972B102685268AF
:103D600002F07F020A70816A491C8162C18D491E7E
:103D70000904090CC18503D01BE002685268F1E711
:103D80000168CA6822F02002CA600168CA6822F489
:103D90008072CA6001684A6922F001024A612021EA
:103DA00080F8421000214163026B012A03D0FEF724
:103DB0006BFD002008BD016301680C3151E8002F44
:103DC00022F0100241E80023002BF5D101680A68B7
:103DD000D20602D50A6849680091818DFEF7A4FBDE
:103DE000E7E7000070B5044600680169E26821F465
:103DF0004051114301612169A068E269084361698A
:103E0000114308432168CA6849F20C639A4302438C
:103E1000CA6020684169A26921F44071114341617F
:103E200031492068884202D03049884202D1FDF7EA
:103E300067FF01E0FDF754FFE269002319216425C3
:103E40003226B2F5004F626828D0A0FB0101930F23
:103E50009200FCF7B7F90146B0FBF5F06FF01802DD
:103E6000504301EB800006EB0010B0FBF5F000F0D2
:103E7000F002B1FBF5F002EB0012B1FBF5F06FF0D0
:103E80001803584301EB800006EB0010B0FBF5F07F
:103E900000F00F0021681044886070BDA0FB010194
:103EA00092185B41FCF78EF90146B0FBF5F0020178
:103EB000B1FBF5F06FF01803584301EB800006EBFF
:103EC000C000B0FBF5F000F0F80002EB4002B1FBDF
:103ED000F5F0584301EB800006EBC000B0FBF5F0B5
:103EE00000F00700D6E70000001001400014014078
:103EF00010B500F007F8BDE810400148FEF716BB0A
:103F00006403002030B514480068800619D51248B3
:103F1000001D0068C3B211480288110411D40D2B92
:103F200010D00146002409880D4DC1F30D010A2B64
:103F30000BD0FF290ED26B5402F48042491C0A4375
:103F4000028030BD42F4804102E06C5442F40041F2
:103F5000018030BD048030BD0044004026000020B8
:103F600064020020FEE700000FB4054B10B503A962
:103F7000044A029800F014FB10BC5DF814FB00002A
:103F8000455B0008640000204100080218BF0420BF
:103F90000A0E18BF40F001004FF07F4232EA0101E3
:103FA00008BF40F00200012808BF0520704709073C
:103FB000090E002804DB00F1E02080F800147047AF
:103FC00000F00F0000F1E02080F8141D70470000A1
:103FD000004870476800002070B54FF068422DED32
:103FE000048BF0EE408A18EE900AB0EE608A18EE6C
:103FF000101A02EB4003B3F1654F3CBF02EB4102E4
:10400000B2F1654F7DD200BFC0F3C753C1F3C752B1
:104010009A1A1B2A09DD10F0004F14BF9FED830A86
:104020009FED830ABDEC048B70BD12F11A0F36DAD6
:1040300011F0004F09D010F0004F0CBF9FED7D0A2A
:104040009FED7D0ABDEC048B70BD88EE889A19EE59
:10405000100AFFF799FF042808BF00F095F918EE41
:10406000900AFFF791FF054618EE100AFFF78CFF44
:10407000044619EE100AFFF787FF042D18BF052D1F
:1040800008D1042C18BF052C04D1002804BF02203D
:1040900000F098F9B0EE490ABDEC048B70BD420007
:1040A000B2EB410F3AD910F0004F19BFDFED630AB0
:1040B0009FED630ADFED630A9FED630AB0EE481AD5
:1040C0000A46B1EE688A80F00041F0EE418A10465F
:1040D0000A1A5200B2F1807F34D2484010F0004FEB
:1040E000DFED5A1A9FED5A2A1DBFBEEE001A70EE80
:1040F000E10A30EE420AB6EE001A08BF70EEA10ADD
:1041000000E040E008BF30EE020AB0EE682A01EE9F
:10411000482A08EE818AC2EE081A15E011F0004F15
:1041200004BF9FED4C0AF0EE400AD1D010F0004FD2
:1041300019BFDFED490A9FED490ADFED490A9FEDFE
:10414000490AC5E7C8EE881A21EEA11A9FED462A52
:10415000DFED462A41EE022A9FED452A01EE222A92
:10416000DFED442A41EE022A9FED432ABDEC048B89
:1041700001EE222A21EE811A01EE020A30EE210A16
:1041800030EE200A70BD4FF07F42B2EB400F28BFE7
:10419000B2EB410F09D2F0EE480AB0EE680ABDEC6E
:1041A000048BBDE8704000F0E3B840EA01035B0017
:1041B00008BF41F0FF410BD0B2EB400F08BFB2EB9C
:1041C000410F08D120F0804008EE900A21F0804194
:1041D00008EE101A18E7B2EB400F12BF5FEA410376
:1041E00040F0FF4001F000413FF40EAFB2EB410F51
:1041F00012BF5FEA400200F0004041F0FF413FF48F
:1042000003AF4A0092EA40033FF5FEAE002AACBF7E
:104210009FED1A0A9FED1A0A68EE808A28EE008A3E
:1042200018EE900A18EE101AEEE60000DB0FC9BF78
:10423000DB0FC93FDB0F4940DB0F49C00000C9BF9E
:1042400022AAFDB90000C93F22AAFD390060ED3E57
:10425000C30ACE3700000000000049C022AA7DBA80
:104260000000494022AA7D3A2DAD65BD8FB8D53DED
:104270000FB511BE61C84C3EA8AAAABE0000804F6F
:104280000000802F0000000030B583B0044600F02D
:1042900083F89FED090B05468DED000B00222146AA
:1042A0006846FCF722FB284600F08CF89DED000BD9
:1042B00003B030BD0000000000000000000000005E
:1042C00010B52DED028BF0EE408A18EE900AB0EE9C
:1042D000608A20F00040C0F1FF40C00F07D118EE07
:1042E000100A20F00040C0F1FF40C00F2BD018EEA4
:1042F000101A18EE900AFCF79AFB00EE100A10EE66
:10430000100A6FEAD05010F0FF0F04BFBDEC028B13
:1043100010BD18EE900A00F0004110EE100A00F0F7
:104320000040814204BFBDEC028B10BD18EE101A94
:1043300010EE100ABDEC028B61F31E0000EE900A35
:1043400030EE600A10BD18EE900A4FF07F41B1EBDD
:10435000400F1CBF18EE100A5FEA4000C7D10120D1
:1043600000F030F8BDEC028BBDE8104000F004B85E
:1043700030EE200A70470000DFED020A80EEA00A4E
:1043800070470000000000009FED020A20EE000AC6
:1043900070470000000000100148006870470000EE
:1043A0006800002002E008C8121F08C1002AFAD1E4
:1043B00070477047002001E001C1121F002AFBD1A5
:1043C0007047000001490860704700006800002045
:1043D00000EE900AF8EEE00A20EE200A7047000096
:1043E0002DE9FF5F82B00021DDE90430020DDDF828
:1043F00040B0034318D044F61050A2F2FF324243BB
:104400001514119801281FD0A5EB0B00401C5FEA82
:10441000000A4FF000064E4FDFF83891B046504684
:1044200015D5CAF1000413E0119801244AA301280C
:1044300001D16FEA0B010298119AC0E90031C0E97D
:10444000024206B0BDE8F09FCBF10000DFE7044672
:104450000021404A491842EB0450CDE9001012E017
:10446000E00707D032463B4640464946FCF7AFFBE3
:104470008046894632463B4610461946FCF7A7FB64
:1044800006460F466410002CEAD1DDE90401DDE99F
:104490000023BAF1000F06DAFCF799FB42464B46BF
:1044A000FCF795FB05E0FCF704FC42464B46FCF7A5
:1044B00000FC04460E460022284BFCF78DFC03D876
:1044C0004FF0FF30014607E00022254B20463146E1
:1044D000FCF7D6FAFCF768FC102409E0002C0ADB94
:1044E0000A220023FBF76EFE039B30321A55641E2E
:1044F00050EA0102F2D1641C039AC4F1110314447E
:10450000119A012A03D0012208430DD10AE0084381
:1045100004D000204FF0110B119072E7A3EB0B05B4
:104520006D1E0DE05B4504DD4FF0000205F1010555
:1045300004E003DA4FF00002A5F10105002AECD0F7
:1045400002981199C0E90231C0E9004579E70000FD
:10455000000014400000F03F300000000000F04375
:104560000000E03F30380A2801D2012070470020C7
:104570007047000010B52DED028B9FED088AF0EE1C
:10458000480AFFF79DFEB5EEC00AF1EE10FA01DA17
:1045900030EE080ABDEC028B10BD0000DB0FC940F5
:1045A0002DE9FF4F95B09A46884606460025EEE174
:1045B000252877D100242746F94A0121039400E0F9
:1045C000044316F8013F203B01FA03F01042F7D1F3
:1045D00030782A2811D06FF02F033078A0F1300204
:1045E000092A16D8039A44F0020402EB820203EB74
:1045F00042021044761C0390EFE758F8042B039214
:10460000002A03DA504244F40054039044F00204B8
:10461000761C30782E2816D116F8010F44F00404C9
:104620002A280DD06FF02F023078A0F13003092B2B
:1046300009D807EB870302EB4303C718761CF3E79F
:1046400058F8047B761C30786C280FD006DC4C2898
:1046500017D068280DD06A2814D104E0742810D02F
:104660007A280FD10DE044F400140AE044F48014D9
:1046700001E044F440147278824202D104F58014BF
:10468000761C761C307866280BD013DC582877D03F
:1046900009DC002875D04528F6D04628F4D04728F4
:1046A0001AD193E118E0632835D0642879D06528C1
:1046B00012D18BE1702873D008DC6728F1D069280B
:1046C0006FD06E280DD06F2806D1ACE073282CD0A7
:1046D000752874D0782853D05246179990476D1C8E
:1046E00054E1C4F30250022809D003280DD0D8F8B1
:1046F000001004280DD00D6008F1040846E1D8F838
:104700000010EA17C1E90052F6E7D8F800100D8052
:10471000F2E70D70F0E718F8041B8DF80010002088
:104720008DF80100EB46012003E058F804BB4FF080
:10473000FF3061074FF0000102D40DE009F10101E3
:104740008946B9420FDA8145F8DB1BF809100029C8
:10475000F4D108E009F1010189468142FADB1BF836
:1047600009100029F6D103985346A0EB090721460A
:104770003846179A00F080FA284400EB090507E054
:1047800044E008E10DE01BF8010B524617999047F1
:10479000B9F10109F7D2534621463846179AF2E09B
:1047A00039E00A21C4F302524FF0000B0091022AB3
:1047B00006D058F8040BC117032A09D00AE023E0F9
:1047C00008F1070020F00702F2E80201904605E038
:1047D00000B2C117042A01D140B2C117002906DA7C
:1047E0000A460021404261EB02012D2202E022052F
:1047F00004D52B228DF80420012203E0E20701D02A
:104800002022F7E7914657E00A2100E010214FF0FF
:10481000000B00910BE010214FF0000B44F004045A
:104820000827009103E008204FF0000B0090C4F32C
:104830000252022A05D058F8040B0021032A08D09E
:1048400008E008F1070020F00702F2E802019046B4
:1048500003E080B2042A00D1C0B24FF00009220761
:104860002AD53278702A07D0DDF800C08CF0100C01
:104870005CEA0B0C05D00EE040228DF804200122EA
:1048800008E050EA010306D030238DF804308DF89B
:10489000052002229146009B83F0080353EA0B0394
:1048A0000AD150EA010201D1620705D530228DF804
:1048B00004204FF001097F1E3278582A04D039A213
:1048C0000C920CAA02920BE03BA2F9E75B46009A1D
:1048D000FBF778FC0C9B9B5C029A521E02921370B1
:1048E00050EA0102F2D1029804A9081A00F1200B43
:1048F000600702D524F4803400E001275F4502DD23
:10490000A7EB0B0000E0002000EB0B0100900398E8
:104910004944401A0390E00306D453462146179AAF
:10492000039800F0A9F90544002706E001A85246C3
:10493000C05D179990476D1C7F1C4F45F6DBE00367
:104940000CD553462146179A039800F095F9054473
:1049500004E030205246179990476D1C0099481E7C
:1049600000900029F5DC08E0029802995246007890
:10497000491C0291179990476D1CBBF10001ABF1E6
:10498000010BF1DC5BE100F065F90544761C307841
:1049900000287FF40DAE19B02846BDE8F08F000066
:1049A0000928010030313233343536373839616205
:1049B00063646566000000003031323334353637C9
:1049C000383941424344454600000000600700D4A6
:1049D000062708F1070020F00700F0E802238046D0
:1049E00003F0004C5FEA0C0001D097A009E020051D
:1049F00001D596A005E0E00701D095A001E0AFF257
:104A00004C001390307823F0004365280CD006DC6E
:104A1000452809D046281DD047287FD13BE066288D
:104A200018D067287AD136E00021112F01DB112040
:104A300000E0781CCDE9000104A90CA8FFF7D0FC28
:104A4000DDE90D010C9A4FF0000B07F101091092FE
:104A500000914EE04FF000400097CDE9011004A90D
:104A60000CA8FFF7BDFCDDE90D020C9B0F994FF080
:104A7000000B91461093009211B9791C00EB0109CB
:104A8000B7EB090003D4C0F1FF3B07F10109A9EB23
:104A90000700019042E0012F00DA01270021112FC9
:104AA00001DD112000E03846CDE9000104A90CA881
:104AB000FFF796FCDDE90D010C9A00914FF0000B19
:104AC000B946109221070FD4009A4A4503DA91465D
:104AD00001E0A9F10109B9F1010F05DD109AA9F171
:104AE0000101515C3029F4D0B84202DA10F1040F10
:104AF00003DA0121CDE9011010E0002803DC834432
:104B0000A9EB000102E0411C494500DD8946A0EB0C
:104B10000B00401C01904FF000400290200705D48C
:104B20000198484502DB4FF0FF30019000208DF8DE
:104B30004B0002980DF14B07B0F1004F25D0022039
:104B40000C902B200D90029800280CDA4042029025
:104B50002D200D9007E00A210298FBF733FE30313B
:104B6000029007F8011D0C99481E0C900029F2DCF8
:104B700002980028EFD1791E0D980870307800F067
:104B8000200040F0450007F8020D11A8C01BC01D11
:104B900002901398007800B1012000EB0901019800
:104BA00001EBE071029801440398401A401E039003
:104BB000E00306D453462146179A039800F05CF8A8
:104BC00005441398007818B15246179990476D1C08
:104BD000E00323D553462146179A039800F04CF87A
:104BE00005441BE0BBF1000F07DB0098584504DDCE
:104BF0001098179910F80B0001E0179930205246D1
:104C0000904701980BF1010B401E05F10105019041
:104C100004D12E205246179990476D1CB9F100011E
:104C2000A9F10109DEDC05E017F8010B52461799DE
:104C300090476D1C0299481E02900029F4DC5346EF
:104C40002146179A03989EE62D0000002B000000D5
:104C5000200000002DE9F041044600251E461746BD
:104C6000880404D405E039462020B0476D1C641E3A
:104C7000F9D52846BDE8F0812DE9F041044600252C
:104C80001E469046C80301D5302700E0202788043F
:104C900004D505E041463846B0476D1C641EF9D581
:104CA0002846BDE8F0810000F6EE000ADFED341A78
:104CB000B0EE601A10EE100A00EE211A50EE210A32
:104CC0002E4A60EE211A9FED2F2A2F49BDEEC11A00
:104CD000FDEEE00A904212DAF5EEC01AF1EE10FA9B
:104CE00002DB11EE100A01E010EE900A51F82000EC
:104CF00000EE100AB8EEC00A20EE020A704710EE6D
:104D0000100A224A90420CDAF5EEC01AF1EE10FABF
:104D100002DB11EE100A01E010EE900AC0F5C77038
:104D2000E4E710EE100A1A4A9FED1A0A904210DAD0
:104D3000F5EEC01AF1EE10FA02DB11EE100A01E0F6
:104D400010EE900A01EB8000A0F58050D0F8C80961
:104D50000DE0F5EEC01AF1EE10FA02DB11EE100ACA
:104D600001E010EE900AC0F5477051F8200000EE07
:104D7000900AF8EEE00A20EE800A7047DB0FC93F88
:104D8000E65FFD4217B7D1383C6C0008DB0F4940A5
:104D9000E4CB964017B7D1B810EE100A0349A1EB47
:104DA000600000EE900A20EE200A7047865A375FB6
:104DB00010B504464FF0E0202DED028B8169354A95
:104DC000DFED350AB3EE051A52F82400884201D906
:104DD000401A03E06FF07F435B1A184401EE900A1B
:104DE00042F82410F8EE611A61EEA01AC1EE810AB1
:104DF000F5EEC00AF1EE10FA04D010EE900AB0F110
:104E00007C5F01DDDFED250A2548264900EB8400A3
:104E100090ED002AD1ED041A30EE421A21EEA03AAC
:104E2000F0EEC12AF4EEC32AF1EE10FA1ADDB5EE67
:104E3000C01AF1EE10FA02D24FF0FF3207E0B5EEE1
:104E4000C01AF1EE10FA01DD012200E0002200EEAE
:104E5000102AB8EEC00A20EE210A00EE202A80EDCA
:104E6000002A01E080ED000A90ED000A91ED028A2F
:104E7000C868FFF7ADFAB0EE401A2046DFED0A0A27
:104E8000B0EE480A01F030FCB0EE480ABDEC028BEF
:104E900010BD0000D8040020BD3786356F12833A5C
:104EA000AC03002050000020000000002DE9F04F6E
:104EB000FE482DED028B99B0008800047AD5FC4D98
:104EC00000E06D1C28782028FBD00928F9D010F0CC
:104ED000FF0F6ED09FEDF78AF74C4D2815D06D2847
:104EE00013D00422F5A12846FBF7AFF900287DD0A6
:104EF0000422F4A12846FBF7A8F90028F7D0287867
:104F0000532858D0732856D05AE06878312819D0E1
:104F1000322819D0332819D08DED058A8DED068AF7
:104F20008DED048A04A8009006AB05AAE7A1681CD1
:104F3000FBF79AF903280BD0012824D0022824D0AB
:104F4000E5A05CE3A81C6FE1A81C7DE1A81C8BE137
:104F500005982061069D804665610498A061FBF775
:104F600002FC06460F462846FBF7FDFB04460D46AD
:104F70004046FBF7F8FB8DE8F00041EC100BE4A095
:104F800053EC102BFDE3059884E1059D25610698FF
:104F90006061FBF7E8FB06460F462846FBF7E3FB9C
:104FA00041EC100BE2A053EC102BCDE90067FEF7AB
:104FB000DBFFD1E0D3E06878002898D0202896D095
:104FC0000222E1A12846FBF740F9012600287CD007
:104FD0000222DEA12846FBF738F90028F7D028780E
:104FE000312873D0322872D0332800E0BCE06FD073
:104FF00054286ED07428FCD055286BD07528FCD06E
:105000004C2868D06C28FCD00422D1A12846FBF79C
:105010001CF900287DD00422CFA12846FBF715F902
:105020000028F7D00322CEA12846FBF70EF900286E
:1050300070D00322CBA12846FBF707F90028F7D050
:105040000622C9A12846FBF700F900287ED00622D7
:10505000C7A12846FBF7F9F80028F7D00422C6A11B
:105060002846FBF7F2F8DFF8188300286FD00422F7
:10507000C4A12846FBF7E9F80028F7D00322C3A112
:105080002846FBF7E2F80028F0D00322C0A128460A
:10509000FBF7DBF80028E9D00422BEA12846FBF785
:1050A000D4F800287ED00422BCA12846FBF7CDF816
:1050B0000028F7D00522BBA12846FBF7C6F8002838
:1050C00071D00522B9A1284606E057E0ABE0BAE06E
:1050D000C9E0D8E0ECE110E2FBF7B7F80028EFD028
:1050E0000522B4A12846FBF7B0F80028E8D0052235
:1050F000B2A12846FBF7A9F80028E1D00322B1A10C
:105100002846FBF7A2F8002871D00322AEA128465A
:1051100001E019E222E2FBF798F80028F4D02878A1
:10512000482873D06828FCD03F28FAD00422A7A1D1
:105130002846FBF78AF80028F3D00422A5A12846C8
:10514000FBF783F80028ECD0294601E04FE26BE240
:10515000A2A000BFFEF708FF54480021018019B04B
:10516000BDEC028BBDE8F08F84ED038A84ED048AE8
:1051700084ED058A84ED068A9FA034E3A87831285F
:1051800017D032281FD0332827D004A800900296C9
:10519000039603AB02AA9BA10496A81CFBF764F834
:1051A000032801E08BE29BE222D001282FD098A0B7
:1051B00019E3E81CFBF7CAFAC1B2012001F0A2FB17
:1051C00021789EA0C6E7E81CFBF7C0FAC1B2022016
:1051D00001F098FB61789CA0BCE7E81CFBF7B6FAED
:1051E000C1B2032001F08EFBA1789AA0B2E77EE263
:1051F0000298C1B2012001F085FB0398C1B20220E0
:1052000001F080FB0498C1B2032003E0EEE20298B3
:10521000C1B2002001F076FBA3786278217890A0DB
:10522000FEF7A2FE98E7681CFFF72EF851EC100B72
:10523000FBF7ACFA2061FBF796FA41EC100B8CA05F
:1052400053EC102B7DE1681CFFF71EF851EC100B9E
:10525000FBF79CFA6061FBF786FA41EC100B88A023
:1052600053EC102B6DE1681CFFF70EF851EC100B9E
:10527000FBF78CFAA061FBF776FA41EC100B84A0E7
:1052800053EC102B5DE1681CFEF7FEFF51EC100B98
:10529000FBF77CFAE06020616061A061FBF763FAD4
:1052A00041EC100B7EA053EC102B4AE126000020AD
:1052B00064020020000000000000002053544F5002
:1052C0000000000073746F70000000002566202548
:1052D0006620256600000000455252204D20666F72
:1052E000726D6174202855736167653A204D203CCA
:1052F00076313E203C76323E203C76333E206F7243
:10530000204D31203C76616C3E290D0A00000000E2
:105310004F4B204D313A252E32662C4D323A252EF8
:1053200032662C4D333A252E32660D0A00000000FD
:105330004F4B204D313A252E32662C4D323A252ED8
:1053400032660D0A00000000454E0000656E000048
:1053500054454C450000000074656C650000000079
:10536000494D5500696D750053454E534F5200002D
:1053700073656E736F72000048414C4C0000000072
:10538000B803002068616C6C00000000454E4300CB
:10539000656E63004D4F4445000000006D6F64650D
:1053A00000000000414C49474E000000616C6967F5
:1053B0006E00000043414C494200000063616C698B
:1053C00062000000504944007069640048454C5038
:1053D0000000000068656C7000000000455252201B
:1053E000556E6B6E6F776E20636F6D6D616E643A94
:1053F0002025730D0A0000004F4B2053544F500DD1
:105400000A000000256420256420256400000000B7
:1054100045525220454E20666F726D6174202855AA
:10542000736167653A20454E203C65313E203C65FE
:10543000323E203C65333E290D0A00004F4B20458B
:105440004E313A25640D0A004F4B20454E323A2525
:10545000640D0A004F4B20454E333A25640D0A0077
:105460004F4B20454E3A2564256425640D0A000003
:105470004F4B204D313A252E32660D0A00000000B8
:105480004F4B204D323A252E32660D0A00000000A7
:105490004F4B204D333A252E32660D0A0000000096
:1054A0004F4B20414C4C3A252E32660D0A0000002D
:1054B000681CFEF7E9FE51EC100BFBF767F900EEF4
:1054C000100AF94A10EE100AF849904202DA9FEDEC
:1054D000F80A05E010EE100A884201DDB1EE080A74
:1054E000F44880ED000A10EE100AFBF73CF941EC9D
:1054F000100BF1A053EC102B23E0681CFEF7C4FE48
:1055000051EC100BFBF742F900EE100AEE4910EED9
:10551000100AB0F17E5F02DAB7EE000A05E010EE85
:10552000100A884201DD9FEDE90AE94880ED000A92
:1055300010EE100AFBF717F941EC100BE5A053EC45
:10554000102BFEF711FD07E6281DFBF7FFF808B149
:10555000012100E00021E170E2A0FBE500200C90B9
:10556000E4484079012802D0022803D005E0FDF785
:10557000EFFB01E0FDF7C0FC0C90DFF87C83D8F86E
:105580000800FBF7F0F882468B46D8F80400FBF7DA
:10559000EAF806460F46D8F80000FBF7E4F80446A0
:1055A00008F10C000D468068FBF7DDF8CDE9040139
:1055B00008F10C004068FBF7D6F88046CE488946D3
:1055C0000C300068FBF7CFF80A468DE8050306A902
:1055D000C84881E8F00C4179012906D0C7A10279B9
:1055E000CB480C9BFEF7C0FCB6E5CAA1F7E7A81DA7
:1055F000FBF7ACF8012803D0022801D0CA48F2E03A
:10560000C0B26071012804D0FDF71CFC20B100205D
:1056100003E0FDF779FBF9E701202071C2B261795F
:10562000C2A0FEF7A1FC97E5D8F80800FBF79BF8AD
:105630000446B1480D4618308068FBF794F80646DA
:105640000F46D8F80400FBF78EF8CDE90601AA480A
:1056500018304068FBF787F882468B46D8F8000080
:10566000FBF781F88046A448894618300068FBF7AC
:105670007AF8A04B0A469B1D01469878CDE9106741
:1056800003F11A061490CDE91245B58858780CAF8D
:105690002CB287E83100DDE90645CDE90A45CDE9C0
:1056A00008AB74881B7806948DE8060320B2CDE918
:1056B00004303288A44811B2FEF756FC4CE5281D90
:1056C000FBF744F8012802D028B1A0488BE0A0489D
:1056D0000670A0A087E09E4803210170A5A082E08B
:1056E000ACA0FEF741FCFDF761FEB2A07BE08DEDC2
:1056F000068A8DED078A8DED058AEC78B04E05A8F7
:10570000312C1CD0322C1AD0332C18D007AB06AA5F
:10571000AFF248410090E81CFAF7A6FD01460228C6
:1057200060DB05AB002093E8340000BF00EBC00352
:1057300006EB83030329C3E9004538D038E007AB03
:1057400006AAAFF278410090281D313CFAF78CFD93
:105750000146022828DB04EBC40006EB8000069A11
:105760000260079D91464560032903D19DED050A1E
:1057700080ED020A8068FAF7F6FF07468846284659
:1057800000E02CE0FAF7EFFF05460E464846FAF730
:10579000EAFF41EC100B8DE8E00153EC102B611C8B
:1057A00088A0FEF7E1FBD7E4611C8FA0D2E49A60E9
:1057B000401C0328BADB1046FAF7D5FF0746884697
:1057C0002846FAF7D0FF05460E462046FAF7CBFFEB
:1057D0008DE8E00141EC100B8EA053EC102BFEF78E
:1057E000C3FBB9E495A0FEF7BFFBB5E4D8F8080009
:1057F000FAF7B9FF06460F46A346A069FAF7B3FFCA
:1058000081468A46D8F80400FAF7ADFFCDE90801D1
:10581000DBF81400FAF7A7FFCDE90601D8F800007D
:10582000FAF7A1FFCDE90401DBF81000FAF79BFFBE
:10583000044627480D460068FAF795FFCDE90001B8
:105840001C480068FAF78FFF41EC100BCDE9166792
:105850009BF80200CDF84890CDE913A0DDE90801DE
:10586000CDE910019BF801000E90DDE90601CDE9BC
:105870000C01DDE90401CDE90A019BF80000069462
:10588000CDE907503248007801280BD076A100BF3F
:105890009BF805209BF80300CDE90202049102D198
:1058A00074A1F2E0ECE0EEE0CDCCCC3D0000C040D5
:1058B000CDCCCC3D580000204F4B2056713A252EC0
:1058C00032660D0A00000000000048420000484215
:1058D000600000204F4B20566C696D3A252E3266D1
:1058E0000D0A00004F4B2054454C453A25640D0AE3
:1058F00000000000000000206C0000204D50552DDD
:10590000363035302028536F66742D4932432900D4
:10591000387600084C534D36445352545220285385
:105920005049322900000000907000084F4B20536E
:10593000454E534F523A2564206F6E6C696E653D3B
:1059400025640D0A00000000E87400080C740008CB
:105950003C0000204F4B204D4F44453A3120284316
:105960006C6F7365642D6C6F6F7020537065656428
:10597000290D0A004F4B204D4F44453A3020284F07
:1059800070656E2D6C6F6F70205370656564290DA6
:105990000A0000005374617274696E67204D6F7461
:1059A0006F7220416C69676E6D656E742E2E2E0DC0
:1059B0000A0000004F4B20414C49474E0D0A0000A1
:1059C0000C0400204F4B2050494425643A20503DA0
:1059D000252E33662C20493D252E33662C20443D50
:1059E000252E34660D0A00004552522050494420AD
:1059F000666F726D6174202855736167653A205037
:105A000049442564203C503E203C493E205B445D97
:105A1000290D0A004F4B20414C4C205049443A205C
:105A2000503D252E33662C20493D252E33662C20F3
:105A3000443D252E34660D0A0000000045525220D8
:105A400050494420666F726D6174202855736167F8
:105A5000653A20504944203C503E203C493E205B62
:105A6000445D290D0A0000004F50454E5F4C4F4FDA
:105A700050000000434C4F5345445F4C4F4F500083
:105A8000AFF2100104E7AFF2200153EC102B0248F3
:105A9000FEF76AFA57E50000D870000845F20821C1
:105AA00048434FF0E021486100228A61086940F0D4
:105AB000010008610869C30701D0C003FAD508696D
:105AC00020F0010008618A617047C0EBC00000EB64
:105AD00040014FF0E020416100218161012202611B
